:020000040800F2
:10000000B8080020890100080F230008F91E000825
:100010000D230008E7020008612900080000000025
:100020000000000000000000000000001323000892
:100030002B0300080000000011230008152300080E
:10004000A3010008A3010008A3010008A301000800
:10005000A3010008A3010008A3010008A3010008F0
:10006000A3010008A30100082D030008A301000854
:10007000A3010008A3010008E9020008F502000836
:10008000A3010008A3010008A3010008A3010008C0
:10009000A3010008A3010008A3010008330300081E
:1000A000A301000895230008A3010008A30100088C
:1000B000A3010008A301000800000000A30100083C
:1000C000A30100080000000000000000A3010008D8
:1000D0000000000019290008A3010008000000002A
:1000E000A3010008A3010008A301000800F002F822
:1000F00000F03AF80AA090E8000C82448344AAF188
:100100000107DA4501D100F02FF8AFF2090EBAE885
:100110000F0013F0010F18BFFB1A43F0010318473B
:1001200088290000A8290000103A24BF78C878C1A7
:10013000FAD8520724BF30C830C144BF04680C60ED
:10014000704700000023002400250026103A28BF35
:1001500078C1FBD8520728BF30C148BF0B60704739
:100160001FB51FBD10B510BD00F058F81146FFF7C0
:10017000F7FF02F029FC00F076F803B4FFF7F2FF76
:1001800003BC00F07DF8000009488047094800479B
:10019000FEE7FEE7FEE7FEE7FEE7FEE7FEE7FEE737
:1001A000FEE7FEE704480549054A064B7047000094
:1001B00091230008ED000008B8020020B8080020D4
:1001C000B8040020B80400204FF0000200B5134628
:1001D00094469646203922BFA0E80C50A0E80C5067
:1001E000B1F12001BFF4F7AF090728BFA0E80C5018
:1001F00048BF0CC05DF804EB890028BF40F8042B11
:1002000008BF704748BF20F8022B11F0804F18BF7D
:1002100000F8012B7047704770477047754600F033
:100220002BF8AE4605006946534620F00700854688
:1002300018B020B5FFF7B6FFBDE820404FF000062C
:100240004FF000074FF000084FF0000B21F00701BE
:10025000AC46ACE8C009ACE8C009ACE8C009ACE801
:10026000C0098D46704710B50446AFF300802046A4
:10027000BDE81040FFF781BF0048704758020020DA
:1002800001491820ABBEFEE72600020070470000BF
:1002900070B5044600688168C943C90717D18168F1
:1002A00021F00101816000F0F5FB05460AE000BF86
:1002B00000F0F0FB401B022804D920688068C0438E
:1002C000C00706D020688068C043C007F0D0002077
:1002D00070BDA06A40F01000A062E06A40F001002A
:1002E000E062012070BDFEE7014800F0CFB90000D8
:1002F00014020020014800F0C9B90000D00100201C
:1003000030B590F840500124AC40C56B6C60046877
:1003100063604368102B036803D099600068C26073
:1003200030BD9A600068C16030BD7047102000F099
:10033000BFBA202000F0BCBA72B6FEE7F8B50024C0
:10034000009490F824202546012A12D0012280F83A
:1003500024204A681F23072A0DD20668776B521E95
:1003600002EB820293409F430B6893401F437763E5
:1003700019E00220F8BD06680D2A0AD2376BD21F99
:1003800002EB820293409F430B6893401F43376305
:1003900009E0F76A0D3A02EB820293409F430B6833
:1003A00093401F43F7620A68072306680A2A0AD3A4
:1003B000F7680A3A02EB420293409F438B689340EE
:1003C0001F43F76008E0376902EB420293409F4306
:1003D0008B6893401F4337610A68102A01D0112AA5
:1003E00020D1124B02689A4217D193681B0219D48C
:1003F000936843F4000393600968102912D10C49F3
:100400000C4A0968B1FBF2F101EB8101490000E0FF
:10041000491E00910029FBD104E0816A41F02001CE
:100420008162012480F824502046F8BD0024014058
:100430001C00002040420F002DE9F0414FF0000762
:1004400004003D467ED0A06A002628B9E66284F802
:100450002460204600F07EF82046FFF719FFA16ACD
:10046000C90600D420B1A06A40F01000A06269E083
:10047000A16A21F4885141F00201A1626268E16938
:10048000237B0A4347EA43010A43A1684FF480777C
:10049000B94209D0012907D05FF0000194F814C0D7
:1004A000BCF1010F02D00AE03946F7E7F3B1A36AC5
:1004B00043F02003A362E36A43F00103E36223688D
:1004C000D3F804C02CF4694C4CEA010CC3F804C006
:1004D00021688B68DFF870C003EA0C0313438B605C
:1004E000A168B9420BD0012909D00CE0DFF85CC04B
:1004F000A3690CEB43330B4343F40061DFE7218A2C
:100500000D05A5F580152168CB6A23F470032B43F4
:10051000CB62216889680E4B1940914208D1E6628E
:10052000A16A21F0020141F00101A162BDE8F08160
:10053000A06A20F0020040F01000A062E06A40F0E3
:100540000100E0620120F1E7FDF7E1FF00E0FFFFBD
:10055000FE0E1FFF00B585B00021009101910291B0
:10056000039100680E49884218D10E48816941F410
:1005700000718161816901F400710491816941F028
:10058000040181618069694600F00400049006203E
:10059000009003200190044800F096F905B000BDDA
:1005A00000240140001002400008014010B590F8FE
:1005B00021100022022905D00421816380F8202027
:1005C000012010BD01680B6823F00E030B60016869
:1005D0000B6823F001030B6090F84030C46B0121DD
:1005E00001FA03F3636080F8211080F820201046A0
:1005F00010BD000010B590F821100024022903D08E
:100600000421816301243DE001680A6822F00E02A2
:100610000A6001680A6822F001020A601A4A016849
:10062000914201D1012121E0174A1432914201D1B6
:1006300010211BE0144A2832914201D1891515E09E
:10064000114A3C32914201D189140FE00E4A5032D6
:10065000914202D14FF4803108E00B4A643291425A
:1006600002D14FF4801101E04FF08071064A083A40
:100670005160012180F82110002180F82010416B89
:1006800001B18847204610BD080002402DE9F05F07
:10069000C16B0C6801680B68D0F840C0042202FAF4
:1006A0000CF2494DDFF824A1494E4A4FDFF828B13A
:1006B000DFF828E122422CD05A072AD50A68920690
:1006C00003D40A6822F004020A600168A94201D139
:1006D000042219E0514501D1402215E0B14202D176
:1006E0004FF4806210E0B94202D14FF480420BE037
:1006F000594502D14FF4802206E0714502D14FF4F2
:10070000800201E04FF080622F4908394A60C16AD7
:100710003BE04FF0020808FA0CF818EA040F4FF01B
:1007200000094FF0010235D05FEA837832D50B68BB
:100730009B0605D40B6823F00A030B6080F8212088
:100740000168A94201D1022219E0514501D12022BC
:1007500015E0B14202D14FF4007210E0B94202D16B
:100760004FF400520BE0594502D14FF4003206E03D
:10077000714502D14FF4001201E04FF000721249AE
:1007800008394A6080F82090816A00291AD0BDE8B3
:10079000F05F0847082505FA0CF5254212D01B0723
:1007A00010D50B6823F00E030B6090F84010C36B5C
:1007B00002FA01F15960826380F8212080F82090CC
:1007C000016BE2E7BDE8F09F080002401C00024018
:1007D0003000024044000240580002406C000240D9
:1007E00030B528B308C8134914221944B1FBF2F1FB
:1007F0008900C16310498163022141771A6843F679
:10080000F0718A43D0E900142143D0E902452C431A
:1008100021430469214344692143846921431143ED
:10082000196000214163012242770177084630BDFB
:10083000012030BDF8FFFDBF0000024070B5044646
:1008400090F82000002501280CD0012084F8200019
:1008500094F821600020012E06D084F820000225A3
:10086000284670BD022070BD022684F82160A06376
:100870002068066826F0010606602046FFF740FD66
:10088000E06A00282068016802D041F00E0106E00D
:1008900021F0040101602068016841F00A01016053
:1008A0002068016841F001010160D9E7704700004C
:1008B000044910B50A68024202D00860FFF7F6FF4B
:1008C00010BD0000140401402DE9F84FDFF89C91A1
:1008D000002409F1040A0AF1040B23460F270BF147
:1008E000040EBBE00125A5402A40AA4276D1DFF8DC
:1008F00080C14E68A6EB0C0866452BD00DDC032E9C
:1009000034D005DC36B3012E19D0022E2FD11BE0D6
:10091000112E16D0122E2AD119E0B8F5881F19D041
:1009200006DCB8F5803F15D0B8F5801F1FD111E067
:10093000B8F5001F0ED0B8F5041F18D10AE0CB6837
:1009400015E0CB681B1D12E0CB6808330FE0CB68C5
:100950000C330CE08B682BB1012B4FF0080303D054
:10096000456104E0042302E0056100E00023FF2A62
:1009700001D8064601E000F104064FEA840501D9DA
:10098000A5F12005D6F8008007FA05FC28EA0C0836
:1009900003FA05F548EA0508C6F800804D68ED0041
:1009A0005BD5344DAE6946F00106AE61AD6924F009
:1009B000030605F0010500952F4D06EB050CDCF84C
:1009C0000850A607360F07FA06F825EA0805DFF8EB
:1009D000AC80404503D14FF0000810E03DE0DFF867
:1009E000A080404502D14FF0010808E0DFF8948074
:1009F000404502D14FF0020801E04FF0030808FA29
:100A000006F848EA0508CCF808804D68D9F8006077
:100A1000ED034D4601D5164300E096432E604D6828
:100A2000DAF80060AD03554601D5164300E0964361
:100A30002E604D68DBF80060ED025D4601D516437F
:100A400000E096432E604D68DEF80060AD0275460A
:100A500001D5164300E096432E60641C0A6832FA02
:100A600004F57FF43FAFBDE8F88F000000040140BB
:100A70000000111000100240000001400008014079
:100A8000000C0140001001400AB1016170470904E7
:100A9000FBE700000148806870470000100000205C
:100AA00070B5040025D094F83D00002520B984F8E5
:100AB0003C50204600F0B8F8242084F83D0020681F
:100AC000016821F0010101602068016841F40041E2
:100AD00001602068016821F40041016000F07EFAA5
:100AE0004D4A6168914201D84C4900E04C49884226
:100AF00001D2012070BD4B492368B0FBF1F15E6863
:100B000026F03F060E435E606368934206D94FF4B9
:100B1000967359434FF47A73B1FBF3F12368491C80
:100B20001E6A26F03F06314319626168914210D86F
:100B30004900401EB0FBF1F2521CC2F30B02042A22
:100B400001D2042022E0B0FBF1F0401CC0F30B0006
:100B50001CE0A268F2B301EBC10303EB0116431ED4
:100B6000B3FBF6F35B1C43F480431B0549D092B3FF
:100B700001EBC10202EB0111401EB0FBF1F0401C81
:100B8000C0F30B0040F4804040F400402168CA6983
:100B90004CF6FF739A431043C861D4E90710014330
:100BA0002068026822F0C00211430160D4E9030109
:100BB00001432068826848F2FF339A431143816001
:100BC000D4E9050108432168CA6822F0FF021043F6
:100BD000C86001E00EE016E02068016841F0010104
:100BE00001602564202084F83D00256384F83E5090
:100BF000002070BD01EB4106431EB3FBF6F35B1C06
:100C0000B3E70120C2E701EB4101401EB0FBF1F068
:100C1000401CC0F30B00B7E7A086010080841E00D3
:100C200000093D0040420F0010B586B00021009140
:100C300001910291039100681249884220D1124C1F
:100C4000A06940F00800A061A069694600F00800B2
:100C500004904FF440700090122001900B48FFF771
:100C600033FE0B48416841F0E06141F00201416010
:100C7000E06940F40010E061E06900F400100490C5
:100C800006B010BD0054004000100240000C0140AE
:100C90000000014002488168027811448160704779
:100CA00010000020074810B5016841F010010160F4
:100CB000032000F075F80F2000F006F800F024F88B
:100CC000002010BD0020024070B50D4D04464FF4C9
:100CD0007A712878B1FBF0F00A490968B1FBF0F0AD
:100CE00000F062FB48B9102C07D200222146501EAA
:100CF00000F036F800206C6070BD012070BD00006F
:100D0000100000201C0000200C4808B5816941F04B
:100D100001018161816901F001010091C16941F026
:100D20008051C161C06900F0805000900448416862
:100D300021F0E06141F00071416008BD0010024007
:100D400000000140002809DB00F01F020121914052
:100D50004009800000F1E020C0F800117047000059
:100D6000F0B40E4B1B680C46C3F30223C3F1070516
:100D7000042D00D90425191D072901D2002300E004
:100D8000DB1E012606FA05F1491E214099409E40CE
:100D9000761E16403143F0BC01F0E3BD0CED00E0DF
:100DA000064900F0070208684FF6FF03184040EAC2
:100DB0000220034A10430860704700000CED00E079
:100DC0000000FA052DE9F84305460078354CC007C8
:100DD00054D0E0690026C00008D4E06940F080509B
:100DE000E061E069012600F0805000902E48016823
:100DF000C90512D40168804641F480710160FFF793
:100E000049FE074605E000BFFFF744FEC01B64280B
:100E100023D8D8F80000C005F6D5206A10F4407039
:100E200021D0A98801F4407181421CD0206A1F4959
:100E3000012220F440700A6000220A602062C0078C
:100E400011D0FFF727FE074641F2883808E000BFBF
:100E5000FFF720FEC11B414502D90320BDE8F883FE
:100E6000206A8007F4D5206A696820F4407008433E
:100E700020621EB1E06920F08050E0612878800790
:100E800005D56068A96820F4404008436060287870
:100E9000C00605D56068E96820F4800008436060FA
:100EA0000020DBE700100240007000404004424296
:100EB0002DE9F0470F46050061D0434E306800F041
:100EC0000700B84209D2306820F00700384330608C
:100ED000306800F00700B84251D128683B4C8107C8
:100EE00012D5400703D5606840F4E0606060287860
:100EF000000703D5606840F4605060606068A968CE
:100F000020F0F000084360602878C00728D06868A7
:100F1000012810D02168022810D0890700292EDA74
:100F2000616821F0030101436160FFF7B3FD804672
:100F300041F288390DE021688903EFE78901EDE787
:100F4000FFF7A8FDA0EB0801494502D90320BDE841
:100F5000F0876068696800F00C00B0EB810FEFD19A
:100F6000306800F00700B8420BD9306820F0070065
:100F700038433060306800F00700B84201D00120EB
:100F8000E5E72878400705D56068E96820F4E06067
:100F9000084360602878000706D56068296920F456
:100FA000605040EAC100606000F038F86168084AAB
:100FB000C1F30311515CC840064908600648006847
:100FC000FFF782FE0020C2E700200240001002402E
:100FD000902A00081C000020140000200448054945
:100FE00000684968044AC1F30221515CC840704757
:100FF0001C00002000100240A02A000804480549F7
:1010000000684968044AC1F3C221515CC840704776
:101010001C00002000100240A02A000812A185B088
:101020000FC98DE80F0014A0144A0068049051689D
:10103000134801F00C03042B10D0082B0ED1C1F380
:101040008343C9031DF803000AD5516804AAC1F3FC
:101050004041515C0A4A5043B0FBF1F005B0704783
:1010600008494843FAE70000020304050607080997
:101070000A0B0C0D0E0F10100102000000100240B0
:1010800000127A0000093D002DE9F84F040070D0ED
:101090002078C04DC00749D06868C0F3810001289E
:1010A00007D06868C0F38100022809D16868C003CE
:1010B00006D52868800339D560680028E7D035E078
:1010C0006068B0F5803F0BD010B1B0F5A02F11D003
:1010D000286820F480302860286820F4802002E00E
:1010E000286840F480302860606890B1FFF7D2FC37
:1010F00006460AE0286840F480202860F0E700BF38
:10110000FFF7C8FC801B642873D828688003F7D5D4
:101110000CE0FFF7BFFC064605E000BFFFF7BAFC96
:10112000801B6428F0D828688003F7D420789A4E72
:1011300080074FF001094FF0000839D5686810F0BA
:101140000C0F07D06868C0F38100022809D16868D5
:10115000C00306D42868800714D52069012808D167
:1011600010E02069B0B1C6F80090FFF793FC074685
:1011700005E00AE1FFF78EFCC01B0228C4D82868EE
:101180008007F7D52868616920F0F80040EAC100BF
:1011900028600DE0C6F80080FFF77CFC074604E0FD
:1011A000FFF778FCC01B022823D828688007F7D4F3
:1011B000207800072CD57948A169D9B1C0F80090F2
:1011C000FFF768FC074604E0FFF764FCC01B022839
:1011D0000FD8686A8007F7D571484FF4FA51006854
:1011E000B0FBF1F0009000BF0098411E0091FAD2D0
:1011F0000EE080E0C0F80080FFF74CFC074604E0FA
:10120000FFF748FCC01B022875D8686A8007F7D42E
:101210002078400760D5E8690027C00008D4E86955
:1012200040F08050E861E869012700F080500090AC
:101230005C480168C90513D40168834641F4807194
:101240000160FFF727FC824606E000BFFFF722FCA3
:10125000A0EB0A0064284ED8DBF80000C005F5D5E5
:10126000E06801280AD008B1052813D0286A20F0C8
:1012700001002862286A20F0040002E0286A40F099
:1012800001002862E06841F2883B98B1FFF702FC58
:1012900082460BE0286A40F004002862EEE700BFB7
:1012A000FFF7F8FBA0EB0A0159455AD8286A8007D6
:1012B000F6D50CE0FFF7EEFB824605E0FFF7EAFB10
:1012C000A0EB0A0159454CD8286A8007F6D41FB113
:1012D000E86920F08050E861E06988B36968C1F38B
:1012E0008101022944D00228C6F8608004D0FFF7AB
:1012F000D1FB044638E034E0FFF7CCFB074604E0BE
:10130000FFF7C8FBC01B02282BD828688001F7D440
:10131000206AB0F5803F05D16868A16820F40030EC
:1013200008436860D4E908010843696821F474112E
:1013300008436860C6F86090FFF7ACFB044606E01F
:1013400025E000BFFFF7A6FB001B022809D828688C
:101350008001F7D51BE000BFFFF79CFB001B0228B4
:1013600002D90320BDE8F88F28688001F4D40EE08C
:101370000128F7D06868226A00F48031914204D1D4
:10138000616A00F47010884201D00120EAE7002071
:10139000E8E70000001002400000424280044242A0
:1013A0001C0000200070004010B5401EB0F1807F8E
:1013B00001D3012010BD4FF0E02460610F216017C0
:1013C00001F0CFFA0020A06107202061002010BDAD
:1013D0007047704710B590F83C20012A22D00122B6
:1013E00080F83C20CA688C6822F4407222434C6822
:1013F00022F4806222430C6822F4006222430C69CA
:1014000022F4805222434C6922F400522243C969DB
:10141000002322F480420A4301684A6480F83C3089
:10142000002010BD022010BD70B590F83C20012AAC
:1014300023D0012480F83C40022280F83D2003683C
:101440005A689D6822F070060A6832435A600C4B55
:1014500002689A4205D0B2F1804F02D0094B9A42FD
:1014600004D1496825F080031943916080F83D401C
:10147000002180F83C10084670BD022070BD0000BD
:10148000002C01400004004010B5040003D094F883
:101490003D0010B107E0012010BD002084F83C00A1
:1014A000204600F01FF8022084F83D00211D20682E
:1014B00000F09AFF012084F8460084F83E0084F88A
:1014C0003F0084F8400084F8410084F8420084F82A
:1014D000430084F8440084F8450084F83D0000206F
:1014E00010BD000008B500680B49884212D10B48B6
:1014F000816941F4006181618069002200F400602B
:10150000009011461920FFF72BFCBDE80840192078
:10151000FFF718BC08BD0000002C0140001002407D
:1015200090F83D10012901D001207047022180F878
:101530003D1000680949884205D0B0F1804F02D0C3
:101540000749884204D1816801F00701062903D0C8
:10155000016841F00101016000207047002C01404A
:101560000004004070B5044690F83C00012817D0F4
:10157000012584F83C50022084F83D0020688268F0
:1015800022F0770222F47F4282600868502830D02F
:101590000DDC20284DD005DC98B310283BD148E065
:1015A000022070BD302844D0402834D139E0602872
:1015B00028D0702806D0B0F5805F2CD0B0F5005F41
:1015C00029D10AE0CB68D1E90121206800F03AFF77
:1015D0002068816841F0770109E0CB68D1E90121F9
:1015E000206800F02FFF2068816841F4804181600D
:1015F00011E0CA684968206800F0D8FF50212068CF
:1016000007E016E0CA684968206800F0E0FF602142
:10161000206800F021FF84F83D50002084F83C0051
:1016200070BDCA684968206800F0C0FF402120688A
:10163000EFE7226801461046EBE7704770B50446B5
:10164000006801694FF00005C943890715D4C168D6
:10165000C943890711D4E91E016101202077206860
:1016600080698007204602D0FFF7E7FF04E000F022
:101670002DF9204600F008FA257720680169C94352
:10168000490717D4C168C943490713D46FF004014F
:101690000161022020772068806910F4407F204695
:1016A00002D0FFF7CAFF04E000F010F9204600F076
:1016B000EBF9257720680169C943090716D4C16889
:1016C000C943090712D46FF0080101610420207793
:1016D0002068C0698007204602D0FFF7AEFF04E013
:1016E00000F0F4F8204600F0CFF925772068016972
:1016F000C943C90617D4C168C943C90613D46FF0DA
:1017000010010161082020772068C06910F4407F33
:10171000204602D0FFF791FF04E000F0D7F8204602
:1017200000F0B2F9257720680169C943C90708D1DB
:10173000C168C943C90704D1891E0161204600F070
:10174000A4F920680169C943090609D4C168C943DD
:10175000090605D46FF0800101612046FFF738FECD
:1017600020680169C943490609D4C168C9434906CB
:1017700005D46FF040010161204600F087F9206830
:101780000169C94389060BD4C168C943890607D4D6
:101790006FF0200101612046BDE87040FFF719BEDF
:1017A00070BD000030B585B000210091019102911B
:1017B000039100682C4B2D4902242D4A98420FD1E9
:1017C000886940F0040088618869694600F0040077
:1017D00004904FF47060CDE900041046039424E0B7
:1017E000244DB0F1804F24D0234B98421FD18869FB
:1017F00040F004008861886900F004000490886962
:1018000040F0080088618869694600F0080004908B
:10181000C020CDE9000410460394FFF755F80320DB
:10182000CDE90004694628460394FFF74DF805B05A
:1018300030BD886940F0080088618869694600F019
:10184000080004904FF44060CDE90004284603945A
:10185000FFF73AF80948416821F4407141F0E0612E
:1018600041F400714160E2E7002C014000100240A9
:1018700000080140000C014000040040000001404D
:1018800010B5044690F83C0001280AD0012084F8E5
:101890003C0042B1042A0AD0082A0CD00C2A11D1EB
:1018A0000DE0022010BD206800F0DEFD0AE0206897
:1018B00000F002FE06E0206800F02AFE02E0206848
:1018C00000F052FE002084F83C0010BD704710B5B7
:1018D000040003D094F83D0010B107E0012010BDD2
:1018E000002084F83C00204600F01EF8022084F816
:1018F0003D00211D206800F077FD012084F846009E
:1019000084F83E0084F83F0084F8400084F84100E9
:1019100084F8420084F8430084F8440084F84500C9
:1019200084F83D00002010BD704770B5044690F863
:101930003C000D4601280AD0012084F83C0042B149
:10194000042A18D0082A2AD00C2A4DD139E00220C6
:1019500070BD206800F088FD2068816941F00801B1
:1019600081612068816921F00401816120688169B9
:101970002A69114311E0206800F09EFD206881690A
:1019800041F4006181612068816921F48061816195
:10199000206881692A6941EA0221816124E0206886
:1019A00000F0B6FD2068C16941F00801C1612068FE
:1019B000C16921F00401C1612068C1692A6911432C
:1019C00011E0206800F0D0FD2068C16941F4006199
:1019D000C1612068C16921F48061C1612068C16969
:1019E0002A6941EA0221C161002084F83C0070BDEF
:1019F00010B5040003D094F83D0010B107E00120B9
:101A000010BD002084F83C00204600F01FF80220A2
:101A100084F83D00211D206800F0E6FC012084F8D8
:101A2000460084F83E0084F83F0084F8400084F8C3
:101A3000410084F8420084F8430084F8440084F8AC
:101A4000450084F83D00002010BD000008B5016885
:101A50000B48B1F1804F0BD00A4A914207D1C169BE
:101A600041F00201C161C06900F00200009008BDB0
:101A7000C16941F00101C161C06900F00100F5E7F1
:101A800000100240000400407047704770477047E4
:101A900010B504460068416994F83D20C1F3C011B7
:101AA000212A0BD151B1416921F080014161606B64
:101AB00008B1FEF77BFD204600F036FE2068416944
:101AC00094F83E20C1F38011222A0BD151B1416913
:101AD00021F040014161A06B08B1FEF767FD20468F
:101AE00000F00AFE002010BD70470000F8B5026843
:101AF00004461068D168536910F00F0F4FF00005CD
:101B000053D003F0010601F4907737435FD0C2074A
:101B100005D0CA0503D5226C42F0010222644207B7
:101B200005D5DA0703D0226C42F002022264820754
:101B300005D5DA0703D0226C42F0040222640207C2
:101B400007D501F02002324303D0226C42F0080294
:101B50002264226C002A34D0800604D5880602D57F
:101B6000204600F0EAFD20684069216CC0F3801037
:101B7000090700D430B3204600F0BEFD206841695B
:101B800049061BD5416921F040014161A06BA8B114
:101B900058494163A06BFEF72DFD002811D0A06BC2
:101BA000416B01B0BDE8F040084783060FD58B06B6
:101BB0000DD52046BDE8F84000F0BFBD2046FFF738
:101BC00093FFF8BD2046FFF78FFF2564F8BD266B15
:101BD0002023012E52D1C60650D5CE064ED5106810
:101BE00050680090506940062AD5A16B086840688B
:101BF0000004000CEAD0A68D8642E7D9E08588690A
:101C0000202818D0D06820F48070D0602068416906
:101C100021F0010141612068416921F040014161E9
:101C200084F83E3025632068C16821F01001C1604E
:101C3000A06BFEF7BBFCA08DE18D401A81B219E0CC
:101C4000A08DE18D401A81B2E08D0028BED0002920
:101C5000BCD0D06820F49070D0602068426922F037
:101C60000102426184F83E3025632068C26822F098
:101C70001002C2602046FFF70AFFF8BD05062BD50B
:101C80000D0629D594F83D002128F6D1A068B0F5BD
:101C9000805F01D12069B0B1206A411C21622168B6
:101CA00000784860E08C401E0004000CE084E4D121
:101CB0002068C16821F08001C1602068C16841F0DE
:101CC0004001C160F8BD206A0088C0F30800506080
:101CD000206A801C2062E5E74006F3D54806F1D56E
:101CE000D168204621F04001D16084F83D3000F0F9
:101CF00001F9F8BDF325000870B5040004D094F88C
:101D00003D00002510B106E0012070BD84F83C5074
:101D1000204600F023F8242084F83D002068C168A4
:101D200021F40051C160204600F062FD2068016985
:101D300021F4904101612068416921F02A0141614B
:101D40002068C16841F40051C1602564202084F8F6
:101D50003D0084F83E00002070BD0000F0B585B065
:101D600000240646009401940294039400682F49CD
:101D7000884259D12E48816941F48041816181694D
:101D800001F480410491816941F008018161806919
:101D9000284D00F00800049040200090022001909F
:101DA0000320039069462846FEF78EFD8027CDE983
:101DB0000074694628460294FEF786FD1E48416875
:101DC00041F0E06141F0040141601D4D1B48C5E94F
:101DD0000004C5E902472C616C61AC612846EC61E6
:101DE000FEF7FEFC08B1FEF7A7FAB5636E62144D6C
:101DF00012484435143801C5102091C5104845F8E3
:101E0000104944306C61AC61EC61FEF7E9FC08B14B
:101E1000FEF792FA75630022114625206E62FEF7E6
:101E20009FFF2520FEF78EFF05B0F0BD0038014072
:101E300000100240000C0140000001405800024028
:101E4000D001002090F83E30202B0ED159B152B174
:101E500090F83C30012B08D0012380F83C3000235F
:101E6000036300F021BD01207047022070477047D6
:101E70007047000070B5044690F83D00202830D12E
:101E800069B362B394F83C0001282AD0012084F899
:101E90003C002162A284E28400252564212084F88C
:101EA0003D00636B10489862636B1048D862636BA7
:101EB0000F481863606B134645632668606B321DDC
:101EC000FEF7BCFC21686FF04000086084F83C50CD
:101ED0002068416941F080014161002070BD01200E
:101EE00070BD022070BD0000C1260008EF2600086A
:101EF0000326000870477047FEE700003EB5002447
:101F000010480094019402940D49846001600473A8
:101F10000475012505614FF460214460C161FEF73D
:101F20008BFA08B1FEF708FA0095CDE9015469462D
:101F30000448FEF703FA002801D0FEF7FDF93EBD84
:101F400000240140300000200D4808B5416941F0EF
:101F5000010141614069002200F00100009011463A
:101F60000E20FEF7FDFE0E20FEF7ECFE00221146CD
:101F70000F20FEF7F5FEBDE808400F20FEF7E2BE99
:101F80000010024070B586B000252C4800950195E0
:101F900002950395816941F020018161816901F019
:101FA00020010491816941F004018161816901F09E
:101FB00004010491816941F0080181618069204E2A
:101FC00000F008000490002208213046FEF75CFD76
:101FD000082001248DE83100694630460394FEF75D
:101FE00073FC302000901748CDE901046946304663
:101FF000FEF76AFC4FF23800CDE90005694602940D
:102000001148FEF761FC4FF41040CDE90005694628
:1020100002943046FEF758FC002211460A20FEF7D3
:102020009FFE0A20FEF78EFE002211461720FEF7C3
:1020300097FE1720FEF786FE06B070BD0010024026
:102040000008014000001110000C01400D4810B5BF
:102050000B4901600C49416000214FF480428160CE
:10206000C0E9031241618161C1610162FEF718FD9F
:10207000002803D0BDE81040FEF75EB910BD000097
:102080000054004060000020A086010010B596B00A
:1020900000240F9410941194129413941C216846F8
:1020A0001494FEF791F8202107A8FEF78DF8384820
:1020B0003649016040F2CF21C0E901146321C0E933
:1020C00003148021C0E90541FFF7DEF908B1FEF7EE
:1020D00033F94FF480500F900FA92D48FFF742FAC3
:1020E00008B1FEF729F92A48FFF782FC08B1FEF78C
:1020F00023F92748FFF7EBFB08B1FEF71DF913940E
:1021000013A923481494FFF78FF908B1FEF714F9C7
:102110006020CDE900040294039404940594002205
:1021200069461B480694FFF700FC08B1FEF704F966
:10213000042269461648FFF7F8FB08B1FEF7FCF8E1
:10214000082269461248FFF7F0FB08B1FEF7F4F8E1
:102150000C2269460E480094FFF792FB08B1FEF787
:10216000EBF80794089409944FF400500A94CDE9D1
:102170000B4007A906480E94FFF72CF908B1FEF7AB
:10218000DBF80348FFF70EFB16B010BD002C014032
:10219000B400002010B58AB0002407941C216846C2
:1021A0000894FEF711F81B484FF08041016040F29F
:1021B000CF21C0E9011440F2CF71C0E9031480219E
:1021C0008161FFF715FC08B1FEF7B6F8079407A97F
:1021D00010480894FFF728F908B1FEF7ADF8602021
:1021E000CDE900040294082269460A480494FFF7E6
:1021F0009CFB08B1FEF7A0F80C2269460548FFF7E2
:1022000094FB08B1FEF798F80248FFF7CBFA0AB042
:1022100010BD0000FC00002010B58AB00024079417
:102220001C2168460894FDF7CFFF2348214901602F
:1022300040F2CF21C0E9011440F2CF71C0E903148C
:1022400080218161FFF7D4FB08B1FEF775F8079490
:1022500007A919480894FFF7E7F808B1FEF76CF8EA
:102260006020CDE9000402940022694612480494DB
:10227000FFF75BFB08B1FEF75FF8042269460E48E2
:10228000FFF753FB08B1FEF757F8082269460A48E2
:10229000FFF74BFB08B1FEF74FF80C2269460648E2
:1022A000FFF743FB08B1FEF747F80348FFF77AFA58
:1022B0000AB010BD000400404401002010B5114CCC
:1022C0000F480C2120604FF4E13060600020A060D6
:1022D000E060C4E90401A061E0612046FFF70CFD65
:1022E00008B1FEF729F82068C16841F01001C1600B
:1022F000BDE81040102204490248FFF7A3BD0000CA
:10230000003801408C01002020000020FEE7FEE79D
:1023100070477047FEF7BEBC30B593B028216846C1
:10232000FDF752FF14210AA8FDF74EFF00250120FA
:102330000F9510951195010412958DE823000490D6
:102340004FF4E010CDE90810022407946846FEF728
:102350009BFE08B172B6FEE70AA90F2081E83100A2
:102360004FF48060CDE90D0502210AA8FEF7A0FD1B
:1023700008B172B6FEE74FF4004011900F940FA819
:10238000FEF720FD002801D072B6FEE713B030BD85
:102390007047000010B50F4C2088401C81B221808E
:1023A000608808B1401E608019290DD90A4801785B
:1023B0000A480278914207D0017001220649084874
:1023C000FFF758FD00202080BDE810400548FFF7CA
:1023D00035B900000C0000200000002001000020A2
:1023E0008C010020B400002070B50268134B144C1F
:1023F0004FF08046984203D0B04201D0A04203D1B2
:1024000022F070054A682A43984203D0B04201D0B6
:10241000A04203D122F44074CA6822434C6922F0DE
:102420008002224302608A68C2620A68826298421D
:1024300001D1096901630121416170BD002C014096
:102440000004004010B5846842EA032224F47F446B
:102450000A432243826010BD826822F070020A4360
:1024600042F007018160704730B5026A22F0010234
:102470000262026A4368846924F073050C682C4385
:1024800022F002058A682A430A4DA8420BD122F0A5
:102490000805CA6823F440732A434D6922F00402F8
:1024A0001D438B692B434360846149684163026229
:1024B00030BD0000002C014030B5026A22F010024D
:1024C0000262026A436884690D6824F4E64444EABF
:1024D00005248D6822F0200242EA05120B4DA84225
:1024E0000ED1CD6822F0800242EA05124D6923F434
:1024F000406343EA85038D6922F0400243EA850385
:102500004360846149688163026230BD002C0140F0
:1025100030B5026A22F480720262036A4268C469BA
:1025200023F4007324F073050C682C438D6843EA90
:1025300005230C4DA8420ED1CD6823F4006343EA75
:1025400005234D6922F4405242EA05128D6923F4B5
:10255000806342EA05124260C4614968C163036254
:1025600030BD0000002C014030B5026A22F48052D8
:102570000262046A4268C3690D6823F4E64343EAD1
:1025800005238D6824F4005444EA0534064DA8421E
:1025900004D14D6922F4804242EA85124260C3614F
:1025A00049680164046230BD002C014010B5036A23
:1025B000046A24F001040462846924F0F00444EA0B
:1025C000021423F00A020A438461026210BD10B5AE
:1025D000036A23F0100303628369046A23F47043DF
:1025E00043EA023224F0A00343EA0111826101624E
:1025F00010BD10B5406A0021C185C184FFF774FA8F
:1026000010BD70B5446A2068406994F83D10C0F36D
:10261000C0100025212904D118B1E584204600F01E
:1026200083F82068406994F83E10C0F38010222996
:1026300004D118B1E585204600F05EF8206C40F02A
:10264000100020642046FFF74FFA70BD10B5014618
:10265000406A0968096889061BD40021C1850168A0
:10266000CA6822F48072CA6001684A6922F00102D5
:102670004A6101684A6922F040024A61202180F8DB
:102680003E10016B012904D10168CA6822F01002D2
:10269000CA60016B012902D0FFF7E9FB10BD818DF3
:1026A000FFF7F5F910BD10B5406A016B012902D0A2
:1026B000FFF7DEFB10BD818D4908FFF7E8F910BD7B
:1026C00010B50146406A0968096889060CD40021E2
:1026D000C18401684A6922F080024A610068C168C9
:1026E00041F04001C16010BDFFF704FC10BD10B502
:1026F000406AFFF700FC10BD0168CA6822F49072BE
:10270000CA6001684A6922F001024A61016B01292D
:1027100004D10168CA6822F01002CA60202180F842
:102720003E100021016370470168CA6822F0C002B0
:10273000CA60202180F83D10704708B590F83E101F
:10274000222901D0022008BD82684FF480539A42AA
:1027500001D1016921B1816A9A421BD04AB10AE0D4
:102760000268816A5268C2F308020A80816A891C81
:1027700008E0026972B10268526802F07F020A70D2
:10278000816A491C8162C18D491E0904090CC185F9
:1027900003D019E002685268F1E70168CA6822F0C4
:1027A0002002CA600168CA6822F48072CA600168A7
:1027B0004A6922F001024A61202180F83E10016B33
:1027C000012903D0FFF753FB002008BD002101635E
:1027D0000168CA6822F01002CA6001680A68D2065D
:1027E00002D50A6849680091818DFFF750F9EBE73F
:1027F00070B5044600680169E26821F44051114354
:1028000001612169A0680843616908432168CA68B9
:1028100041F20C639A430243CA6020684169A2698D
:1028200021F44071114341611E492068884202D160
:10283000FEF7E4FB01E0FEF7D1FB00EBC00101EB8A
:102840000012606864218000B2FBF0F3B3FBF1F387
:102850006FF018067343B2FBF0F5B2FBF0F605EB30
:102860008305322303EB0515B5FBF1F5B6FBF1F655
:1028700005F0F00505EB0615B2FBF0F6B2FBF0F043
:10288000B0FBF1F06FF01802504306EB800003EB51
:102890000010B0FBF1F0216800F00F0028448860C0
:1028A00070BD00000038014038B581628285002586
:1028B000134604460564222084F83E00A26B1348A8
:1028C0009062A26B1248D062A26B12481063A06B98
:1028D0000A4645632168A06B091DFDF7AFFF20681C
:1028E00001684168009184F83C50C16841F48071EE
:1028F000C1602068416941F001014161206841697E
:1029000041F040014161002038BD00004D26000823
:10291000A7260008032600080D4808B500680168CE
:10292000C1F3001179B10168406800900848FFF7D1
:10293000AFF80848006840680749C0F11000087007
:10294000064901200870BDE808400148FFF7CEB8ED
:102950008C010020D0010020020000200300002094
:10296000FEE70907090E002804DB00F1E02080F8EB
:102970000014704700F00F0000F1E02080F8141DF3
:10298000704700000F4B00B51878410718D4C007F6
:1029900002D0012000F062F81878800702D50220EA
:1029A00000F05CF81878C00602D5032000F056F855
:1029B0001878000704D502205DF804EB00F04EB84B
:1029C00000BD000000000020FEF76CF9FFF7A4FC3A
:1029D000FFF7D8FAFFF792FAFFF738FBFFF756FB3D
:1029E000FFF7D8FBFFF7B0FAFFF716FCFFF766FC1E
:1029F0001548FEF795FD154D154C00266078012809
:102A000015D1267066702878A07011490020C91C65
:102A10002B180A5C401CC0B25A700628F8D300205C
:102A200002E02E54401CC0B221788842F9D3102213
:102A300006490848FFF706FAA07810B1FFF7A2FF91
:102A4000DCE700F009F8D9E7B400002020000020FE
:102A5000020000208C01002070470000094940F668
:102A6000B8320A80012181400748007801400748B8
:102A7000007801E0002A03D0002901D00028F9D114
:102A8000704700000E00002000000020040000201D
:102A9000000000000000000001020304060708090E
:102AA0000000000001020304C82A00080000002002
:102AB0002000000028010008E82A0008200000206B
:102AC0009808000044010008000000000000000019
:102AD00000000000000000000100000010000000E5
:082AE000000000000024F400D6
:04000005080000ED02
:00000001FF
