:020000040800F2
:10000000E80D002035020008E717000889130008F2
:10001000E51700082B040008E11A000800000000A2
:100020000000000000000000000000004718000869
:100030002D04000800000000451800082D190008D4
:100040004F0200084F0200084F0200084F0200084C
:100050004F0200084F0200084F0200084F0200083C
:100060004F0200084F0200084F0200084F0200082C
:100070004F0200084F0200084F0200084F0200081C
:100080004F0200084F0200084F0200080000000065
:100090000000000000000000000000004F02000807
:1000A0004F0200084F0200084F0200084F020008EC
:1000B0004F0200084F0200084F0200084F020008DC
:1000C0004F0200084F0200084F0200084F020008CC
:1000D0004F0200084F0200084F0200080000000015
:1000E0004F0200084F0200084F0200080000000005
:1000F0000000000000000000000000004F020008A7
:10010000000000004F0200084F0200084F020008E4
:1001100000000000000000000000000000000000DF
:100120004F0200084F0200084F0200084F0200086B
:100130004F02000800000000000000000000000066
:100140000000000000000000000000004F02000856
:100150004F0200084F0200084F0200084F0200083B
:100160004F0200084F0200080000000000000000DD
:10017000000000000000000000000000000000007F
:10018000000000004F020008000000000000000016
:100190004F02000800F002F800F03CF80AA090E8D6
:1001A000000C82448344AAF10107DA4501D100F032
:1001B00031F8AFF2090EBAE80F0013F0010F18BFC3
:1001C000FB1A43F001031847C0230000E02300009E
:1001D000103A24BF78C878C1FAD8520724BF30C873
:1001E00030C144BF04680C60704700000023002445
:1001F00000250026103A28BF78C1FBD8520728BF37
:1002000030C148BF0B6070471FB502F0A6F91FBD93
:1002100010B510BD00F0CFF81146FFF7F5FF01F063
:10022000FFFC00F0EDF803B4FFF7F2FF03BC00F0B1
:10023000F5F800000948804709480047FEE7FEE757
:10024000FEE7FEE7FEE7FEE7FEE7FEE7FEE7FEE786
:1002500004480549054A064B70470000C5190008C7
:1002600095010008E8010020E80D0020E8050020C5
:10027000E805002053EA020C00F069802DE9F04BFC
:100280004FF00006002B1FBFB3FA83F503FA05F405
:1002900024FA05F65E4012BF1643B2FA82F502FA5E
:1002A00005F4C5F120051EBF22FA05FC44EA0C0442
:1002B000203556EA044C4FEA144418BF641C4FF032
:1002C00000084FF00009904271EB030C39D300296C
:1002D00019BFB1FA81F701FA07F6B0FA80F700FA10
:1002E00007F6C7F120071EBF20FA07FC46EA0C06F6
:1002F0002037B6FBF4FCA7EB0507103F07F01F0BF8
:10030000CBF120060CFA0BFB2CFA06F644BFB346E1
:100310000026202FA4BF5E464FF0000B5BEA060CC0
:1003200008BF4FF0010B19EB0B09ABFB027C48EB4C
:100330000608C01B06FB02CC0BFB03CC71EB0C01C7
:10034000C1E70B46024641464846BDE8F08B13B56F
:100350004FF000004FF00001AFF30080BDE81C40FB
:1003600070474FF0000200B5134694469646203978
:1003700022BFA0E80C50A0E80C50B1F12001BFF45E
:10038000F7AF090728BFA0E80C5048BF0CC05DF8C4
:1003900004EB890028BF40F8042B08BF704748BF12
:1003A00020F8022B11F0804F18BF00F8012B704786
:1003B000704770477047754600F02CF8AE46050050
:1003C0006946534620F00700854618B020B5FFF770
:1003D0003FFFBDE820404FF000064FF000074FF010
:1003E00000084FF0000B21F00701AC46ACE8C00953
:1003F000ACE8C009ACE8C009ACE8C0098D4670475C
:1004000010B50446AFF300802046BDE81040FFF76A
:100410000ABF0000004870478401002001491820ED
:10042000ABBEFEE7260002007047FEE77047000003
:1004300070B5044600F00CF90546601C02D0044873
:100440000078044400F004F9401BA042FAD370BDC8
:10045000000000202DE9F84FDFF8B8A100220124A8
:1004600003254FF00F090AF1040BAAF1040E00BF97
:100470000B6804FA02F63340B34273D10F7907F0E8
:100480000307012F01D0022F16D187684FEA4208D7
:1004900005FA08FC27EA0C07D1F80CC00CFA08FC96
:1004A0004CEA070CC0F808C04768B7430E79C6F39A
:1004B000001696403E4346600E79F643B6070DD0CF
:1004C000C768560005FA06FC27EA0C07D1F808C0F1
:1004D0000CFA06FC4CEA070CC0F80CC00E7906F0CA
:1004E0000306022E10D1D60800EB8608D8F820604B
:1004F00057074FEAD76C09FA0CF7BE430F6907FAA2
:100500000CF73743C8F8207006684FEA420C05FA2A
:100510000CF7BE430F7907F0030707FA0CF73743D0
:1005200007604E6816F4403F6DD03B4E376847F485
:1005300080473760366822F0030706F4804600964D
:10054000364E07EB060CDCF8086897073F0F09FAF0
:1005500007F826EA0806DFF8C880404503D14FF0C7
:1005600000081EE04FE0DFF8BC80404502D14FF0AC
:10057000010816E0DFF8B080404502D14FF00208D4
:100580000FE0DFF8A880404502D14FF0030808E0F3
:10059000DFF89C80404502D14FF0040801E04FF0A5
:1005A000070808FA07F848EA0608CCF80888DAF8D5
:1005B00000605746D1F804C09E435FEACC2C00D5BA
:1005C0001E433E60DBF800605F46D1F804C09E43E6
:1005D0005FEA8C2C00D51E433E60DEF80060774653
:1005E000D1F804C09E435FEA8C3C00D51E433E60B8
:1005F000084F083F3E68D1F804C09E435FEACC3CF8
:1006000000D51E433E60521C102AFFF431AFBDE8F6
:10061000F88F0000083C014044380240003001409F
:10062000000002400004024000080240000C0240AA
:1006300000100240426921EA02030A4043EA0241F3
:10064000816170470AB1816170470904FBE70000CE
:1006500001488068704700000000002070B5040069
:1006600025D094F83D00002520B984F83C50204660
:1006700000F03EFA242084F83D002068016821F053
:10068000010101602068016841F4004101602068B7
:10069000016821F40041016000F0B4FB4D4A61683B
:1006A000914201D84C4900E04C49884201D20120D6
:1006B00070BD4B492368B0FBF1F15E6826F03F0640
:1006C0000E435E606368934206D94FF496735943B4
:1006D0004FF47A73B1FBF3F12368491C1E6A26F0CC
:1006E0003F06314319626168914210D84900401EAB
:1006F000B0FBF1F2521CC2F30B02042A01D2042017
:1007000022E0B0FBF1F0401CC0F30B001CE0A2683B
:10071000F2B301EBC10303EB0116431EB3FBF6F387
:100720005B1C43F480431B0549D092B301EBC1022B
:1007300002EB0111401EB0FBF1F0401CC0F30B00B6
:1007400040F4804040F400402168CA694CF6FF73D1
:100750009A431043C861D4E9071001432068026836
:1007600022F0C00211430160D4E903010143206873
:10077000826848F2FF339A4311438160D4E905014E
:1007800008432168CA6822F0FF021043C86001E0F4
:100790000EE016E02068016841F001010160256467
:1007A000202084F83D00256384F83E50002070BD71
:1007B00001EB4106431EB3FBF6F35B1CB3E70120DC
:1007C000C2E701EB4101401EB0FBF1F0401CC0F359
:1007D0000B00B7E7A086010080841E0000093D00E1
:1007E00040420F002DE9F84F1F4690468A460446C6
:1007F000DDF82890FFF72CFF054694F83D002028EF
:1008000075D1192301226C492046009500F0BEFEE7
:100810000028F5D194F83C00012868D0012084F824
:100820003C0020680168C90703D1016841F001015B
:1008300001602068016821F400610160222084F8D1
:100840003D00102084F83E0000262664C4F8248071
:100850006785608D20855948E0622B464A4651469F
:10086000204600F0A9FD002878D1208D544F68B1B2
:10087000012814D002282068016816D041F4806154
:100880000160206841698069009087E020684169C3
:1008900081690091016841F4007101607EE0206887
:1008A000016821F480610160F0E721F4806101605A
:1008B0002068016841F40061E2E7032848D8012874
:1008C0000AD0022814D04B46002239462046009513
:1008D00000F05CFED8BB27E02A464946204600F0DF
:1008E000D4FEA0BB20680069616A08704DE061E039
:1008F0004B46002239462046009500F047FE30BBAB
:100900002068016841F40071016020680069616A33
:100910000870606A401C6062218D491E2185618DCE
:10092000491E618521682EE02068016821F48061FC
:10093000016020680069616A0870606A401C60623A
:10094000208D401E2085608D401E6085D0E705E02B
:100950002A464946204600F098FE10B10120BDE825
:10096000F88F20680069616A0870606A401C6062E4
:10097000218D491E2185618D491E618521684A6945
:10098000D24352070AD409690170606A401C606250
:10099000208D401E2085608D401E6085208D0028A2
:1009A0008BD1202084F83D0084F83E6084F83C60C0
:1009B0000020D4E70220D2E7020010000000FFFF71
:1009C000040001002DE9F84F1F4690468A46044670
:1009D000DDF82890FFF73CFE054694F83D002028FE
:1009E0007FD11923012240492046009500F0CEFD19
:1009F000002876D194F83C00012872D0012084F8B8
:100A00003C0020680168C90703D1016841F0010179
:100A100001602068016821F400610160212084F8F0
:100A20003D00102084F83E0000262664C4F824808F
:100A30006785608D20852D48E0622B464A465146E9
:100A4000204600F02FFD90B9206841698069009030
:100A500036E02A464946204600F04AFE50B1206C56
:100A6000042804D12068016841F40071016001206C
:100A7000BDE8F88F606A216800780861606A401CF0
:100A80006062618D491E6185218D491E89B2218573
:100A900022685369DB435B070BD451B100781061C6
:100AA000606A401C6062608D401E6085208D401E23
:100AB00020852A464946204600F042FD0028CED136
:100AC000208D0028C5D154F83D0B016841F4007118
:100AD0000160202004F81E09E67766770020C7E74A
:100AE000FFE70220C4E70000020010000000FFFF43
:100AF0002DE9F04186B0044614216846FFF731FC29
:100B000023682A4CDFF8A0C00025284912260327B5
:100B1000042227481034634518D10B6843F00203C0
:100B20000B600968029501F002010591C021CDE931
:100B30000016CDE903726946FFF78CFC206840F48B
:100B400000102060206800F4001028E0DFF864C086
:100B5000634525D10B6843F002030B6009680295D9
:100B600001F0020105914FF48061CDE90016CDE955
:100B7000037269468046FFF76DFC0820CDE9000648
:100B800002950920CDE9037069464046FFF762FCF3
:100B9000206840F480002060206800F48000059008
:100BA00006B0BDE8F081000000540040303802403B
:100BB0000004024000580040024881680278114455
:100BC00081607047000000200B4810B5016841F4B7
:100BD00000710160016841F480610160016841F4C5
:100BE00080710160032000F061F80F2000F006F82A
:100BF00000F024F8002010BD003C024070B50D4DFF
:100C000004464FF47A712878B1FBF0F00A4909687C
:100C1000B1FBF0F000F0FEFA48B9102C07D2002228
:100C20002146501E00F022F800206C6070BD0120AB
:100C300070BD0000000000200C0000200A4808B52C
:100C4000016841F480410160006800F48040009038
:100C50000548001F016841F080510160006800F004
:100C60008050009008BD000044380240F0B40E4BA4
:100C70001B680C46C3F30223C3F10705042D00D9FA
:100C80000425191D072901D2002300E0DB1E0126DF
:100C900006FA05F1491E214099409E40761E1640F5
:100CA0003143F0BC00F01DBF0CED00E0064900F040
:100CB000070208684FF6FF03184040EA0220034A83
:100CC00010430860704700000CED00E00000FA05DA
:100CD0002DE9F0470E46050065D0DFF81481D8F8FD
:100CE0000000F7B200F00700B04207D288F80070A9
:100CF000D8F8000000F00700B04254D128683D4CFD
:100D0000810712D5400703D5206840F4E0502060E9
:100D10002878000703D5206840F4604020602068F0
:100D2000A96820F0F000084320602878C0072DD083
:100D3000304968680839012812D0022813D00328E6
:100D400011D00968890700292DDA216821F00301F3
:100D500001432160FFF77CFC814641F2883A0EE0B6
:100D600009688903EFE709688901ECE7FFF770FC80
:100D7000A0EB0901514502D90320BDE8F0872068A6
:100D8000696800F00C00B0EB810FEFD1D8F80010CB
:100D9000404601F00701B14207D90770006800F032
:100DA0000700B04201D00120E7E72878400705D5C9
:100DB0002068E96820F4E0500843206028780007A4
:100DC00006D52068296920F4604040EAC10020600F
:100DD00000F038F82168084AC1F30311515CC8409B
:100DE0000649086006480068FFF708FF0020C4E7CE
:100DF000003C0240083802406E2500080C0000202C
:100E0000040000200448054900680968044AC1F349
:100E10008221515CC84070470C0000200838024015
:100E20007E2500080448054900680968044AC1F3A2
:100E30004231515CC84070470C0000200838024025
:100E40007E250008154810B5006810F00C02144803
:100E500013D01449042A0FD0082A0ED10F4C241F96
:100E60002268236802F03F025B0207D52068C0F3C6
:100E70008810A0FB010106E0084610BD2168C1F3FF
:100E80008811A1FB00010023FFF7F4F92168C1F3E9
:100E90000141491C4900B0FBF1F010BD0838024087
:100EA0000024F40040787D012DE9F84F04006ED055
:100EB0002078DFF84C93C007A9F104054AD009F166
:100EC00004000168C1F38101012908D00068C0F362
:100ED000810002280AD1D9F80000400206D528680E
:100EE000800337D560680028E1D033E06068B0F552
:100EF000803F10D0B0F5A02F286810D020F48030AB
:100F00002860286820F4802028606068A8B1FFF776
:100F10009FFB06460DE0286840F48030F4E740F47B
:100F200080202860F7E700BFFFF792FB801B642852
:100F300073D828688003F7D50CE0FFF789FB0646D5
:100F400005E000BFFFF784FB801B6428F0D8286809
:100F50008003F7D42078DFF8AC8280074FF0000AD6
:100F60003ED5A748001D016811F00C0F08D000689D
:100F7000C0F3810002280BD1D9F80000400207D449
:100F80002868800716D5E068012800D112E033E117
:100F9000E068B8B10120C8F80000FFF759FB064629
:100FA00005E000BFFFF754FB801B0228C0D828686B
:100FB0008007F7D52868216920F0F80040EAC100D1
:100FC00028600DE0C8F800A0FFF742FB064604E0E9
:100FD000FFF73EFB801B02281FD828688007F7D444
:100FE0002078000722D5864F87486169703771B134
:100FF00001210160FFF72CFB064604E0FFF728FB08
:10100000801B022809D838688007F7D50EE0C0F8A1
:1010100000A0FFF71DFB064605E082E0FFF718FB86
:10102000801B02287DD838688007F7D420784007D5
:1010300068D5DFF8CCB100270BF13C0BDBF80000E2
:10104000C0000BD4DBF8001041F08051CBF8001049
:10105000DBF80000012700F0805000906B4E3068F4
:10106000C00510D4306840F480703060FFF7F0FAAB
:10107000009005E0FFF7ECFA0099401A022850D8DA
:101080003068C005F6D55E4EA0686C3601280FD0DA
:101090000528306810D020F001003060306820F062
:1010A00004003060A068B8B1FFF7D2FA00900FE0FA
:1010B000306840F00100F4E740F004003060F7E7EA
:1010C000FFF7C6FA0099411A41F28830814266D88A
:1010D00030688007F4D50EE0FFF7BAFA009007E019
:1010E000FFF7B6FA0099411A41F28830814256D88A
:1010F00030688007F4D42FB1DBF8001021F0805164
:10110000CBF80010A069C8B33D49091D0968C1F3B7
:10111000810102294AD00228504607D0C8F8600051
:1011200000E03CE0FFF794FA04463BE04746C8F88D
:101130006000FFF78DFA064605E000BFFFF788FA6A
:10114000801B02282BD828688001F7D4D4E9070136
:101150000843A16A2E4A490802EB0141626A41EA4A
:101160008211084394F82C1040EA0161C9F800107C
:1011700001203866FFF76CFA044606E03EE000BF47
:10118000FFF766FA001B022809D828688001F7D506
:1011900034E000BFFFF75CFA001B022802D90320ED
:1011A000BDE8F88F28688001F4D427E00128F7D043
:1011B000D9F80000E26900F4800191421CD1226A52
:1011C00000F03F01914217D147F6C071626A0140B9
:1011D000B1EB821F10D1A26A4FF0FF3300F440310F
:1011E00003EB5202B1EB024F06D194F82C1000F041
:1011F0007060B0EB016F01D00120D1E70020CFE794
:101200000438024000004742800E47420070004010
:101210000000FFFF10B5401EB0F1807F01D3012018
:1012200010BD4FF0E02460610F21601700F059FC01
:101230000020A06107202061002010BD70B50400CF
:1012400004D094F83D00002510B106E0012070BDE7
:1012500084F83C50204600F023F8242084F83D0018
:101260002068C16821F40051C160204600F0B2FB43
:101270002068016921F4904101612068416921F0F1
:101280002A0141612068C16841F40051C1602564B0
:10129000202084F83D0084F83E00002070BD00004E
:1012A000F0B587B0044614216846FFF75AF8324972
:1012B000DFF8C0C0276800222F4B14390224032511
:1012C00007262E48674517D11F6847F010071F6093
:1012D0001B6803F0100305930B6843F001030B60D8
:1012E000096802AF01F0010105916902CDE900141E
:1012F00087E8640069461CE0DFF884C067451CD1BC
:101300001D4B1B1F1F6847F400371F601B6803F449
:10131000003305930B6843F001030B60096802ABCF
:1013200001F0010105910C21CDE9001483E864006E
:101330006946FFF78FF807B0F0BD124EB742FAD1F9
:101340001E6846F020061E601B6803F0200305930C
:101350000B6843F001030B600968029201F0010180
:1013600005914FF4C051CDE900140821CDE9035196
:101370006946DEE7001001404438024000000240A8
:101380000044004000140140FEE701684A69D2436E
:1013900052050FD46FF480624A61002140F8301F7B
:1013A000202242738173026942F0040202610173D8
:1013B00001207047002070472DE9F84F0446C06AAD
:1013C0001E4693460D4621680A6842F480620A6010
:1013D000082807D0012805D010F5803F02D0206BE7
:1013E000112804D12068016841F4807101604FF038
:1013F00001195B46002249462046009600F0C6F8D7
:101400004FF4007840B120680068C00501D5C4F8E9
:1014100040800320BDE8F88F2069DFF884A0B0F594
:10142000804F0FD00620216800EAD51747F0F00062
:10143000086133465A460AF10601204600F0DAF800
:1014400058BB03E0E8B240F001001CE02168E8B2BC
:10145000086133465A465146204600F0CBF8E0B9C1
:101460002068416981690091016841F480710160DF
:101470005B46002249462046009600F087F8002887
:10148000C1D147F0F1002168086133465A46514600
:10149000204600F0AFF80028BCD00120BAE70000D9
:1014A00002000100F8B50446C06A1E460D46174604
:1014B000082807D0012805D010F5803F02D0206B06
:1014C000122804D12068016841F48071016013463C
:1014D00000224FF001112046009600F057F840B16D
:1014E00020680068C00502D54FF400702064032016
:1014F000F8BD2069B0F5804F0ED00620216800EAC3
:10150000D51040F0F000086133463A460B492046BA
:1015100000F070F878B902E005F0FE0000E0E8B2F3
:1015200021680861054933463A46891F204600F084
:1015300061F80028DCD00120F8BD0000080001009F
:1015400070B516460D4604460DE02046FFF71DFF18
:1015500008B1012070BD681C05D0FFF779F8801B29
:10156000A84207D835B120684069C0434007ECD491
:10157000002070BD002044F8300F20216173A0735B
:10158000216941F0200121612073E2E72DE9F04754
:101590001E4690460D460446C1F30747DDF82090ED
:1015A00008E0701C06D0FFF753F8A0EB0900B0422A
:1015B0000FD876B12068012F18D0806925EA000085
:1015C0000004000C14D000214145EAD00020BDE801
:1015D000F087002044F8300F20216173A073216947
:1015E00041F02001216120730120F0E74069E5E727
:1015F0000121E9E72DE9F0479A4691460E46044657
:1016000000254FF02008C1F3074725E02068406916
:10161000C043400514D42068016841F400710160A2
:1016200021686FF480604861256384F83D8084F808
:101630003E50206C40F00400206484F83C501FE0D1
:10164000B9F1FF3F08D0FFF703F8A0EB0A014945C5
:101650000CD8B9F1000F09D02068012F13D0806990
:1016600026EA00000004000C0BD0CFE744F8305FFE
:1016700084F80D80A573206940F020002061257357
:101680000120BDE8F0874069EAE72DE9F041002537
:1016900090460E460446202717E04069C043C00626
:1016A0000CD454F8301B6FF01000486144F8105906
:1016B0006777A577206A2062257717E0FEF7C8FFD5
:1016C000A0EB0800B04208D83EB120684169C94388
:1016D0004906E2D40020BDE8F08144F8305F67732A
:1016E000A573206940F02000206125730120F2E7F6
:1016F00070B516460D4604460DE02046FFF745FE40
:1017000008B1012070BD681C05D0FEF7A1FF801B49
:10171000A84207D835B120684069C0430006ECD420
:10172000002070BD002044F8300F20216173A073A9
:10173000216941F0200121612073E2E770B586B094
:1017400014216846FEF70DFE22480024016841F08E
:1017500004010160016801F004010591016841F094
:1017600080010160016801F080010591016841F08C
:1017700001010160016801F001010591016841F07A
:10178000020101600068144E00F002004FF40055A1
:101790000590002229463046FEF754FF01200095AF
:1017A000CDE90104694630460394FEF753FE4FF439
:1017B0007040CDE90004694608480294FEF74AFEED
:1017C0006811CDE90004694605480294FEF742FE1F
:1017D00006B070BD303802400008024000040240EC
:1017E00000000240FEE7FEE70021084600F018B8BE
:1017F0003EB542F210748DF80400012301AA402185
:1018000006480094FFF7DEF8012302AA40210348AE
:101810000094FEF7E7FF9DF808003EBD1000002091
:101820001CB502238DF8040042F210708DF80510EB
:10183000009001AA40210248FFF7C4F81CBD000037
:10184000100000207047704770B5044606200E4611
:1018500000EB84001546C9B2C0B2FFF7E1FF0720D4
:1018600000EB8400C0B2C6F30721FFF7D9FF0820C0
:1018700000EB8400E9B2C0B2FFF7D2FF092000EB11
:101880008400C5F30721BDE87040C0B2FFF7C8BFB0
:1018900070B510EE100A00F0EFFD9FED1F1B53EC2A
:1018A000112B00F0BFFB00F06DFA00EE100A9FED67
:1018B0001C1AC1EE000AB7EE000A30EEC00A10EEA4
:1018C000100A00F0D9FD9FED171B53EC112B00F00F
:1018D0008BFA41EC100B00F017F951EC100B00F0F3
:1018E00037FB05460020FFF783FF044600F07F002A
:1018F00040F010010020FFF793FFE9B2FE20FFF750
:101900008FFF21460020FFF78BFF44F0A101BDE8C7
:1019100070400020FFF784BF713D0AD7A370ED3FF0
:1019200020BCBE45000000000000E03FFFF744B9C6
:1019300030B593B030216846FEF713FD14210CA892
:10194000FEF70FFD1D480024016841F08051016041
:10195000006800F0805011901948016821F440415E
:1019600041F4004101600068022500F440401190FC
:101970000120039010200490009506950820CDE9E1
:1019800007405420CDE9090504200B906846FFF775
:101990008BFA08B172B6FEE70F20CDE90C054FF4C3
:1019A0008050CDE90E4002210CA81094FFF790F969
:1019B000002801D072B6FEE713B030BD40380240B7
:1019C000007000400248016841F4700101607047F6
:1019D00088ED00E070B5044600680169E26821F412
:1019E0004051114301612169A068E26908436169BE
:1019F000114308432168CA6849F20C639A430243C1
:101A0000CA6020684169A26921F4407111434161B3
:101A100031492068884202D03049884202D1FFF71C
:101A200001FA01E0FFF7EEF9E269002319216425CC
:101A30003226B2F5004F626828D0A0FB0101930F57
:101A40009200FEF717FC0146B0FBF5F06FF01802AC
:101A5000504301EB800006EB0010B0FBF5F000F006
:101A6000F002B1FBF5F002EB0012B1FBF5F06FF004
:101A70001803584301EB800006EB0010B0FBF5F0B3
:101A800000F00F0021681044886070BDA0FB0101C8
:101A900092185B41FEF7EEFB0146B0FBF5F0020148
:101AA000B1FBF5F06FF01803584301EB800006EB33
:101AB000C000B0FBF5F000F0F80002EB4002B1FB13
:101AC000F5F0584301EB800006EBC000B0FBF5F0E9
:101AD00000F00700D6E700000010014000140140AC
:101AE000FEE70907090E002804DB00F1E02080F87A
:101AF0000014704700F00F0000F1E02080F8141D82
:101B000070470000000000002DE9F0412DED020BB0
:101B10009FED3D0B2DED028B9FED3D8BDDE90254DA
:101B2000C4F30A50A0F2FF36142E37DA002E18DA6A
:101B300053EC102B9DED020B51EC100B00F054F9FF
:101B400053EC182B00F06CFB57D2002CA4BF0024E0
:101B5000254652DA24F00040284318BF2E4C4CD0C2
:101B60001AE02E4820FA06F704EA070028431FD09F
:101B700053EC102B9DED020B51EC100B00F034F9DF
:101B800053EC182B00F04CFB37D2002C03DA4FF447
:101B90008010F0400444BC4300252EE0332E07DCC7
:101BA000A6F114004FF0FF3121FA00F73D4206D1B3
:101BB0009DED020BBDEC028B02B0BDE8F08153EC51
:101BC000102B9DED020B51EC100B00F05FFB53EC62
:101BD000182B00F025FB10D2002C0DDA142E08BFB4
:101BE000641C09D0C6F13400012101FA00F0284438
:101BF000A84238BF641C0546BD43CDE902549DEDA3
:101C0000020BD7E7000000009C7500883CE4377E9B
:101C100000000000000000000000F0BFFFFF0F0008
:101C2000FEF7D2FFFFF784FEFFF788FD4C484B49D3
:101C30004C4E00240160C0E901640D14C0E9034565
:101C400044618461C4610462FEF708FD08B172B6A4
:101C5000FEE74348444954300160C0E90164C0E9EB
:101C6000034544618461C4610462FEF7F7FC08B176
:101C700072B6FEE73A483D49A8304FF4E1350160BD
:101C8000C0E901540C26C460C0E904468461C46103
:101C9000FFF7D4FA08B172B6FEE731483449EC30A8
:101CA0000160C0E90154C460C0E904468461C461B4
:101CB000FFF7C4FA08B172B6FEE72F482D4901605C
:101CC000C0E90154C460C0E904468461C461FFF7FF
:101CD000B5FA08B172B6FEE7FFF786FD9FED270A59
:101CE000FFF7D6FD4FF48055DFF894804FF4FA6487
:101CF00040F2D4466F004FF4FA790021224608469C
:101D0000FFF7A2FD002211460120FFF79DFD2A46A4
:101D100000210220FFF798FD224600210320FFF753
:101D200093FD002211460420FFF78EFD2A46002174
:101D30000520FFF789FD2A4600210520FFF784FDD5
:101D4000324600210820FFF77FFD39464046FEF766
:101D500071FC4846FEF76CFBCFE7000000540040E2
:101D600010000020A0860100005800400010014033
:101D70000044004000140140400100200000704277
:101D80000008024021F00042A2F16052B2F5801F2B
:101D900001F0004328BFD2F17F6C0BD95FEA001C31
:101DA00043EAC20242EB507018BF704728BF20F0D0
:101DB00001007047B2F5801FBCBF184670474FEA5C
:101DC000410C1CF5001F02D2084600F0CBBB70B5D9
:101DD00000F0D2F900000089FFF7F6BF4FF0004095
:101DE000A0F580007047000010B591EA030F48BFCE
:101DF00083F0004300F15E82841A71EB030C05D27C
:101E0000121943EB0C03001B61EB0C01DFF824E11A
:101E10004FEA1154A4EB135C1EEA430F18BF9EEA6D
:101E2000445F73D023EA0E03DCF1200E21EA045153
:101E300043F4801332D322FA0CFE10EB0E0023FA87
:101E40000CFE41EB0E01CCF1200E03FA0EFE10EB5E
:101E50000E0051F10001B1F5801FCCF1200E32D2FD
:101E600001EB045112FA0EF2BDE8104058BF704762
:101E7000401C38BF5FEA420218BF7047002814BFF9
:101E800020F0010041F100014FEA410313F5001F6A
:101E900038BF7047A1F1C04100F0BCB9012A43EB43
:101EA0000302ACF1200CDCF11F0E32BF4FF0000E2C
:101EB00023FA0CF310EB030041EB0451B4EB115F78
:101EC000D0D0A1EB045101F5801149085FEA300040
:101ED00001EB04510ED350F1000038BF12FA0EFE90
:101EE00008D1BDE81040C9E7401C38BF5FEA420294
:101EF000CAD1C3E7BDE810404FEA410313F5001F04
:101F000038BF7047A1F1C04100F084B99EEA445F38
:101F100008D011EA5E0FBDE8104004BF01F0004197
:101F200000207047BDE8104070B500F025F900BFF3
:101F300064FBBE3E0000E0FF491058BFC1F14041C4
:101F40005B1058BFC3F140438B42EFF300807047F2
:101F50004FEA1153A3F58063D3F11E03A8BFD3F159
:101F6000200C08DB4FF0004242EAC12252EA5052F4
:101F700032FA03F0704709420BD4102BC4BF002083
:101F8000704703F5787CBCF1FF3F05D04FF0FF3080
:101F900070474FF00000704770B500F0EDF800BFDB
:101FA0004992248000207047F0E7000051EA030CBA
:101FB00017D41CF5801F58BFBCF5801F00F10680A8
:101FC000994218BF704708BF9042704707D711F574
:101FD000801F58BF13F5801F19D49942704789425A
:101FE00070471CF5801F08D5BCF5801FF7D58B42C4
:101FF00018BF704708BF824270474FF4001C1CEBAB
:10200000410F38BF1CEB430F01D28B42704770B5B4
:1020100000F0B2F8922449004FF000514FF0805385
:10202000FFF78ABFDFF848C170B51CEA111E1EBF5A
:102030001CEA13159EEA0C0F95EA0C0F00F06F8056
:1020400081EA030423EA4C134EEAD47E21EA4C11C0
:1020500041F4801143F48013AE44A1FB024CA0FB79
:102060000365AEF17F7E361955EB0C05A1FB034CE1
:102070004CF10003A0FB021C16EB0C06654153F16A
:102080000003094218BF46F0010613F4007F0BD18C
:102090004FEA03314FEA0530340341EA155140EA73
:1020A00016506FF003020AE04FEAC3214FEAC52041
:1020B000F40241EA555140EA56506FF0020202EB39
:1020C0002E4201EB025585EACE710AD05FEA440C3C
:1020D00018BF24F0004450F1000041F1000120EA53
:1020E000D47040F2FE7C624500D270BDA84214BF9D
:1020F0004FF080444FF04044002E08BF0024BEF152
:10210000806FA8BFA1F1C041BDE8704080F282801D
:102110004FF0000001F1C04101F0004170479EEA1C
:102120000C0F0CEA131518BF95EA0C0F06D04FF0F0
:10213000000081EA030E0EF0004170BD00F01CF8B3
:102140008900013E00F007B800F009B84FEA430CDF
:102150005FEA5C5C08D081EA030100F05BB84FEAFB
:10216000410C5FEA5C5CF6D14FF00000014970471A
:102170000000FF070000F87F0EF1020E2EF0030EA4
:102180005EF8046B364205D4012A43EB030515F5CE
:10219000001F12D8012841EB010C1CF5001F0CD8C0
:1021A0000ED14FEAD17C15F5001F0CEB4C0C0CF155
:1021B000020C08BF4CEBD37C04E04FF0080C01E0AC
:1021C0004FEAD37C0CEB4C0526FA05F606F0070621
:1021D000B6F1040C06D20EEB860CBDE870404CF054
:1021E000010C6047DFE80CF0090B02024FF00041E0
:1021F0004FF00000A1F5002170BD194610460128DE
:1022000051EB010418BFD4F5001484BF002001F085
:10221000004170BD0808A0F500114FEA3101704778
:1022200053EA010C17D41CF5801F58BFBCF5801F62
:1022300000F106808B4218BF704708BF824270478A
:1022400007D713F5801F58BF11F5801F19D48B4293
:1022500070479B4270471CF5801F08D5BCF5801F56
:10226000F7D5994218BF704708BF904270474FF4A6
:10227000001C1CEB430F38BF1CEB410F01D29942ED
:1022800070470FB40CBC03BCFFF7C1BE91EA030F4B
:1022900010B581F000413FF5AFAD83F0004300F091
:1022A00009B8000010B591EA030F48BF83F000435E
:1022B0003FF5A2AD841A71EB030C07D212198CF012
:1022C000004C43EB0C03001B61EB0C01DFF8A4E1B5
:1022D0004FEA1154A4EB135C1EEA430F18BF9EEAA9
:1022E000445F00F0B08023EA6E03524221EA0451B9
:1022F000C3EB6E0338BF5B1EDCF1200E25D322FA40
:102300000CFE10EB0E0043FA0CFE41EB0E01CCF17B
:10231000200E03FA0EFE10EB0E0051F10001CCF17D
:10232000200E29D412FA0EF201EB0451BDE8104040
:1023300058BF7047401C1CBFB2F1004F70470028C7
:102340000CBF491C20F00100704712EB020E43EB5A
:10235000030218BF4FF0010E4EEA4202ACF1200C0E
:10236000DCF11E0E54D943FA0CFE10EB0E0051F1B5
:10237000FF31CCF11E0ED5D50EF1010E12FA0EFE74
:10238000404141EB010101EB445C5FEA5C5C10D928
:1023900010EBDE7001EB045138BFBEF1004FBDE819
:1023A000104018BF704700280CBF491C20F00100E6
:1023B000704730D24FEAD42C11F5001124F4006498
:1023C0001BD0B1FA81F20B3AA41AA41ED2F1200359
:1023D000914030FA03F31943904001EBCC71002C8B
:1023E00001EB0451BDE81040A8BF704701F1C041A6
:1023F0004FF0000001F000417047B0FA80F310FA8E
:1024000003F100D110BDE41A173C4805C90AE4E7FE
:1024100001EB045110BD491001EB0451BDE810401F
:102420004FEA300002E04FF0000170474A0008BF59
:102430000042F8D0B2F5001F28BF704701F00041FC
:102440004FF0000070479EEA445F07D011EA5E0F2C
:10245000BDE8104004BF002100207047BDE81040D7
:1024600070B5FFF789FE00BF40DFF63E83F0004104
:10247000104670470000E0FF43004FEAD30C4FEADC
:102480003C0C43401FBF40070CF1605113F0FE4F5E
:1024900070471CF0006F03D100200CF00041704722
:1024A0000CF0004343EA507010B540EACC0000F055
:1024B0000EF800BF000000924FEA0001FFF7AABE2D
:1024C0004FF000414FF00000A1F5002170470EF1E0
:1024D000020E2EF0030E5EF8044B244204D44FEAA1
:1024E0004102B2F17F4F11D84FEA4003B3F17F4F61
:1024F0000CD80ED14FEAD07CB2F17F4F0CEB4C0CD4
:102500000CF1020C08BF4CEBD17C04E04FF0080C3E
:1025100001E04FEAD17C0CEB4C0324FA03F404F005
:102520000704B4F1040C06D20EEB840CBDE8104095
:102530004CF0010C6047DFE80CF0070802024FF096
:102540000040A0F5800010BD0846420018BFD2F13F
:10255000807288BF00F0004010BD4FF04070E1EE87
:10256000100A7047FF2141EAD050C00570470000B3
:102570000000000000000102030406070809000033
:102580000000010203040000A8250008000000204C
:1025900010000000D0010008B8250008100000203D
:1025A000D80D0000EC010008010000001000000040
:0825B000000000000024F4000B
:040000050800019559
:00000001FF
