:020000040800F2
:10000000E80D0020350200082B1100087D100008C3
:10001000291100082B040008E51200080000000068
:100020000000000000000000000000002F11000888
:100030002D040008000000002D11000831110008F7
:100040004F0200084F0200084F0200084F0200084C
:100050004F0200084F0200084F0200084F0200083C
:100060004F0200084F0200084F0200084F0200082C
:100070004F0200084F0200084F0200084F0200081C
:100080004F0200084F0200084F0200080000000065
:100090000000000000000000000000004F02000807
:1000A0004F0200084F0200084F0200084F020008EC
:1000B0004F0200084F0200084F0200084F020008DC
:1000C0004F0200084F0200084F0200084F020008CC
:1000D0004F0200084F0200084F0200080000000015
:1000E0004F0200084F0200084F0200080000000005
:1000F0000000000000000000000000004F020008A7
:10010000000000004F0200084F0200084F020008E4
:1001100000000000000000000000000000000000DF
:100120004F0200084F0200084F0200084F0200086B
:100130004F02000800000000000000000000000066
:100140000000000000000000000000004F02000856
:100150004F0200084F0200084F0200084F0200083B
:100160004F0200084F0200080000000000000000DD
:10017000000000000000000000000000000000007F
:10018000000000004F020008000000000000000016
:100190004F02000800F002F800F03CF80AA090E8D6
:1001A000000C82448344AAF10107DA4501D100F032
:1001B00031F8AFF2090EBAE80F0013F0010F18BFC3
:1001C000FB1A43F001031847581200007812000090
:1001D000103A24BF78C878C1FAD8520724BF30C873
:1001E00030C144BF04680C60704700000023002445
:1001F00000250026103A28BF78C1FBD8520728BF37
:1002000030C148BF0B6070471FB501F0F7F81FBD44
:1002100010B510BD00F0CFF81146FFF7F5FF01F063
:1002200073F800F0EDF803B4FFF7F2FF03BC00F041
:10023000F5F800000948804709480047FEE7FEE757
:10024000FEE7FEE7FEE7FEE7FEE7FEE7FEE7FEE786
:1002500004480549054A064B70470000C9110008CB
:1002600095010008E8010020E80D0020E8050020C5
:10027000E805002053EA020C00F069802DE9F04BFC
:100280004FF00006002B1FBFB3FA83F503FA05F405
:1002900024FA05F65E4012BF1643B2FA82F502FA5E
:1002A00005F4C5F120051EBF22FA05FC44EA0C0442
:1002B000203556EA044C4FEA144418BF641C4FF032
:1002C00000084FF00009904271EB030C39D300296C
:1002D00019BFB1FA81F701FA07F6B0FA80F700FA10
:1002E00007F6C7F120071EBF20FA07FC46EA0C06F6
:1002F0002037B6FBF4FCA7EB0507103F07F01F0BF8
:10030000CBF120060CFA0BFB2CFA06F644BFB346E1
:100310000026202FA4BF5E464FF0000B5BEA060CC0
:1003200008BF4FF0010B19EB0B09ABFB027C48EB4C
:100330000608C01B06FB02CC0BFB03CC71EB0C01C7
:10034000C1E70B46024641464846BDE8F08B13B56F
:100350004FF000004FF00001AFF30080BDE81C40FB
:1003600070474FF0000200B5134694469646203978
:1003700022BFA0E80C50A0E80C50B1F12001BFF45E
:10038000F7AF090728BFA0E80C5048BF0CC05DF8C4
:1003900004EB890028BF40F8042B08BF704748BF12
:1003A00020F8022B11F0804F18BF00F8012B704786
:1003B000704770477047754600F02CF8AE46050050
:1003C0006946534620F00700854618B020B5FFF770
:1003D0003FFFBDE820404FF000064FF000074FF010
:1003E00000084FF0000B21F00701AC46ACE8C00953
:1003F000ACE8C009ACE8C009ACE8C0098D4670475C
:1004000010B50446AFF300802046BDE81040FFF76A
:100410000ABF0000004870478401002001491820ED
:10042000ABBEFEE7260002007047FEE77047000003
:1004300070B5044600F00CF90546601C02D0044873
:100440000078044400F004F9401BA042FAD370BDC8
:10045000000000202DE9F84FDFF8B8A100220124A8
:1004600003254FF00F090AF1040BAAF1040E00BF97
:100470000B6804FA02F63340B34273D10F7907F0E8
:100480000307012F01D0022F16D187684FEA4208D7
:1004900005FA08FC27EA0C07D1F80CC00CFA08FC96
:1004A0004CEA070CC0F808C04768B7430E79C6F39A
:1004B000001696403E4346600E79F643B6070DD0CF
:1004C000C768560005FA06FC27EA0C07D1F808C0F1
:1004D0000CFA06FC4CEA070CC0F80CC00E7906F0CA
:1004E0000306022E10D1D60800EB8608D8F820604B
:1004F00057074FEAD76C09FA0CF7BE430F6907FAA2
:100500000CF73743C8F8207006684FEA420C05FA2A
:100510000CF7BE430F7907F0030707FA0CF73743D0
:1005200007604E6816F4403F6DD03B4E376847F485
:1005300080473760366822F0030706F4804600964D
:10054000364E07EB060CDCF8086897073F0F09FAF0
:1005500007F826EA0806DFF8C880404503D14FF0C7
:1005600000081EE04FE0DFF8BC80404502D14FF0AC
:10057000010816E0DFF8B080404502D14FF00208D4
:100580000FE0DFF8A880404502D14FF0030808E0F3
:10059000DFF89C80404502D14FF0040801E04FF0A5
:1005A000070808FA07F848EA0608CCF80888DAF8D5
:1005B00000605746D1F804C09E435FEACC2C00D5BA
:1005C0001E433E60DBF800605F46D1F804C09E43E6
:1005D0005FEA8C2C00D51E433E60DEF80060774653
:1005E000D1F804C09E435FEA8C3C00D51E433E60B8
:1005F000084F083F3E68D1F804C09E435FEACC3CF8
:1006000000D51E433E60521C102AFFF431AFBDE8F6
:10061000F88F0000083C014044380240003001409F
:10062000000002400004024000080240000C0240AA
:1006300000100240426921EA02030A4043EA0241F3
:10064000816170470AB1816170470904FBE70000CE
:1006500001488068704700000000002070B5040069
:1006600025D094F83D00002520B984F83C50204660
:1006700000F0B8F8242084F83D002068016821F0DB
:10068000010101602068016841F4004101602068B7
:10069000016821F40041016000F02EFA4D4A6168C2
:1006A000914201D84C4900E04C49884201D20120D6
:1006B00070BD4B492368B0FBF1F15E6826F03F0640
:1006C0000E435E606368934206D94FF496735943B4
:1006D0004FF47A73B1FBF3F12368491C1E6A26F0CC
:1006E0003F06314319626168914210D84900401EAB
:1006F000B0FBF1F2521CC2F30B02042A01D2042017
:1007000022E0B0FBF1F0401CC0F30B001CE0A2683B
:10071000F2B301EBC10303EB0116431EB3FBF6F387
:100720005B1C43F480431B0549D092B301EBC1022B
:1007300002EB0111401EB0FBF1F0401CC0F30B00B6
:1007400040F4804040F400402168CA694CF6FF73D1
:100750009A431043C861D4E9071001432068026836
:1007600022F0C00211430160D4E903010143206873
:10077000826848F2FF339A4311438160D4E905014E
:1007800008432168CA6822F0FF021043C86001E0F4
:100790000EE016E02068016841F001010160256467
:1007A000202084F83D00256384F83E50002070BD71
:1007B00001EB4106431EB3FBF6F35B1CB3E70120DC
:1007C000C2E701EB4101401EB0FBF1F0401CC0F359
:1007D0000B00B7E7A086010080841E0000093D00E1
:1007E00040420F002DE9F04186B0044614216846CE
:1007F000FFF7B7FD23682A4CDFF8A0C00025284981
:1008000012260327042227481034634518D10B68A9
:1008100043F002030B600968029501F002010591A3
:10082000C021CDE90016CDE903726946FFF712FE3B
:10083000206840F400102060206800F4001028E0D8
:10084000DFF864C0634525D10B6843F002030B60F9
:100850000968029501F0020105914FF48061CDE92C
:100860000016CDE9037269468046FFF7F3FD0820C4
:10087000CDE9000602950920CDE90370694640469E
:10088000FFF7E8FD206840F480002060206800F455
:100890008000059006B0BDE8F081000000540040E3
:1008A000303802400004024000580040024881688D
:1008B0000278114481607047000000200B4810B599
:1008C000016841F400710160016841F480610160D8
:1008D000016841F480710160032000F061F80F208D
:1008E00000F006F800F024F8002010BD003C0240A3
:1008F00070B50D4D04464FF47A712878B1FBF0F0D5
:100900000A490968B1FBF0F000F0FEFA48B9102C72
:1009100007D200222146501E00F022F800206C6011
:1009200070BD012070BD0000000000200C00002000
:100930000A4808B5016841F480410160006800F48C
:10094000804000900548001F016841F0805101601F
:10095000006800F08050009008BD0000443802405C
:10096000F0B40E4B1B680C46C3F30223C3F107051A
:10097000042D00D90425191D072901D2002300E008
:10098000DB1E012606FA05F1491E214099409E40D2
:10099000761E16403143F0BC00F0A5BC0CED00E023
:1009A000064900F0070208684FF6FF03184040EAC6
:1009B0000220034A10430860704700000CED00E07D
:1009C0000000FA052DE9F0470E46050065D0DFF876
:1009D0001481D8F80000F7B200F00700B04207D247
:1009E00088F80070D8F8000000F00700B04254D139
:1009F00028683D4C810712D5400703D5206840F494
:100A0000E05020602878000703D5206840F460405B
:100A100020602068A96820F0F00008432060287852
:100A2000C0072DD0304968680839012812D0022843
:100A300013D0032811D00968890700292DDA21680D
:100A400021F0030101432160FFF702FE814641F2DC
:100A5000883A0EE009688903EFE709688901ECE745
:100A6000FFF7F6FDA0EB0901514502D90320BDE8CF
:100A7000F0872068696800F00C00B0EB810FEFD1BF
:100A8000D8F80010404601F00701B14207D90770BD
:100A9000006800F00700B04201D00120E7E72878A5
:100AA000400705D52068E96820F4E050084320603D
:100AB0002878000706D52068296920F4604040EABC
:100AC000C100206000F038F82168084AC1F3031122
:100AD000515CC8400649086006480068FFF708FFF7
:100AE0000020C4E7003C0240083802400614000819
:100AF0000C00002004000020044805490068096833
:100B0000044AC1F38221515CC84070470C000020A8
:100B100008380240161400080448054900680968AE
:100B2000044AC1F34231515CC84070470C000020B8
:100B30000838024016140008154810B5006810F077
:100B40000C02144813D01449042A0FD0082A0ED1DD
:100B50000F4C241F2268236802F03F025B0207D576
:100B60002068C0F38810A0FB010106E0084610BD14
:100B70002168C1F38811A1FB00010023FFF77AFB74
:100B80002168C1F30141491C4900B0FBF1F010BDDF
:100B9000083802400024F40040787D012DE9F84F28
:100BA00004006ED02078DFF84C93C007A9F104054B
:100BB0004AD009F104000168C1F38101012908D07C
:100BC0000068C0F3810002280AD1D9F80000400271
:100BD00006D52868800337D560680028E1D033E067
:100BE0006068B0F5803F10D0B0F5A02F286810D015
:100BF00020F480302860286820F480202860606815
:100C0000A8B1FFF725FD06460DE0286840F48030C6
:100C1000F4E740F480202860F7E700BFFFF718FDF5
:100C2000801B642873D828688003F7D50CE0FFF791
:100C30000FFD064605E000BFFFF70AFD801B642894
:100C4000F0D828688003F7D42078DFF8AC828007DA
:100C50004FF0000A3ED5A748001D016811F00C0FA7
:100C600008D00068C0F3810002280BD1D9F8000039
:100C7000400207D42868800716D5E068012800D113
:100C800012E033E1E068B8B10120C8F80000FFF7D6
:100C9000DFFC064605E000BFFFF7DAFC801B0228F8
:100CA000C0D828688007F7D52868216920F0F800A7
:100CB00040EAC10028600DE0C8F800A0FFF7C8FCBA
:100CC000064604E0FFF7C4FC801B02281FD82868F2
:100CD0008007F7D42078000722D5864F87486169BE
:100CE000703771B101210160FFF7B2FC064604E0E4
:100CF000FFF7AEFC801B022809D838688007F7D5BB
:100D00000EE0C0F800A0FFF7A3FC064605E082E075
:100D1000FFF79EFC801B02287DD838688007F7D437
:100D20002078400768D5DFF8CCB100270BF13C0BE9
:100D3000DBF80000C0000BD4DBF8001041F080515C
:100D4000CBF80010DBF80000012700F08050009085
:100D50006B4E3068C00510D4306840F4807030604D
:100D6000FFF776FC009005E0FFF772FC0099401A4F
:100D7000022850D83068C005F6D55E4EA0686C36A3
:100D800001280FD00528306810D020F00100306015
:100D9000306820F004003060A068B8B1FFF758FC5C
:100DA00000900FE0306840F00100F4E740F00400EC
:100DB0003060F7E7FFF74CFC0099411A41F28830A8
:100DC000814266D830688007F4D50EE0FFF740FC1A
:100DD000009007E0FFF73CFC0099411A41F288308F
:100DE000814256D830688007F4D42FB1DBF8001068
:100DF00021F08051CBF80010A069C8B33D49091D0E
:100E00000968C1F3810102294AD00228504607D05F
:100E1000C8F8600000E03CE0FFF71AFC04463BE045
:100E20004746C8F86000FFF713FC064605E000BF20
:100E3000FFF70EFC801B02282BD828688001F7D40E
:100E4000D4E907010843A16A2E4A490802EB01418F
:100E5000626A41EA8211084394F82C1040EA016169
:100E6000C9F8001001203866FFF7F2FB044606E0DF
:100E70003EE000BFFFF7ECFB001B022809D8286802
:100E80008001F7D534E000BFFFF7E2FB001B02282A
:100E900002D90320BDE8F88F28688001F4D427E048
:100EA0000128F7D0D9F80000E26900F480019142EE
:100EB0001CD1226A00F03F01914217D147F6C07160
:100EC000626A0140B1EB821F10D1A26A4FF0FF337A
:100ED00000F4403103EB5202B1EB024F06D194F81B
:100EE0002C1000F07060B0EB016F01D00120D1E751
:100EF0000020CFE70438024000004742800E4742FE
:100F0000007000400000FFFF10B5401EB0F1807F70
:100F100001D3012010BD4FF0E02460610F21601764
:100F200000F0E1F90020A06107202061002010BD41
:100F300070B5040004D094F83D00002510B106E01F
:100F4000012070BD84F83C50204600F023F8242096
:100F500084F83D002068C16821F40051C16020463A
:100F600000F03AF92068016921F49041016120689C
:100F7000416921F02A0141612068C16841F40051B2
:100F8000C1602564202084F83D0084F83E000020E4
:100F900070BD0000F0B587B0044614216846FFF725
:100FA000E0F93249DFF8C0C0276800222F4B14391E
:100FB0000224032507262E48674517D11F6847F0EE
:100FC00010071F601B6803F0100305930B6843F0C4
:100FD00001030B60096802AF01F00101059169028C
:100FE000CDE9001487E8640069461CE0DFF884C09E
:100FF00067451CD11D4B1B1F1F6847F400371F603E
:101000001B6803F4003305930B6843F001030B6086
:10101000096802AB01F0010105910C21CDE9001432
:1010200083E864006946FFF715FA07B0F0BD124E79
:10103000B742FAD11E6846F020061E601B6803F016
:10104000200305930B6843F001030B6009680292CB
:1010500001F0010105914FF4C051CDE900140821C0
:10106000CDE903516946DEE70010014044380240F3
:10107000000002400044004000140140FEE7000070
:1010800070B586B014216846FFF76BF9224800243A
:10109000016841F004010160016801F0040105915B
:1010A000016841F080010160016801F08001059153
:1010B000016841F001010160016801F00101059141
:1010C000016841F0020101600068144E00F0020066
:1010D0004FF400550590002229463046FFF7B2FA3A
:1010E00001200095CDE90104694630460394FFF7DD
:1010F000B1F94FF47040CDE9000469460848029404
:10110000FFF7A8F96811CDE9000469460548029483
:10111000FFF7A0F906B070BD303802400008024069
:101120000004024000000240FEE7FEE770477047FF
:10113000FFF7BCBB30B593B030216846FFF711F91B
:1011400014210CA8FFF70DF91D480024016841F097
:1011500080510160006800F08050119019480168CA
:1011600021F4404141F4004101600068022500F48F
:1011700040401190012003901020049000950695A6
:101180000820CDE907405420CDE9090504200B9043
:101190006846FFF703FD08B172B6FEE70F20CDE900
:1011A0000C054FF48050CDE90E4002210CA810949C
:1011B000FFF708FC002801D072B6FEE713B030BD7F
:1011C00040380240007000400248016841F470015C
:1011D0000160704788ED00E070B504460068016961
:1011E000E26821F44051114301612169A068E2697C
:1011F00008436169114308432168CA6849F20C63D6
:101200009A430243CA6020684169A26921F440718F
:101210001143416131492068884202D030498842F7
:1012200002D1FFF779FC01E0FFF766FCE2690023D9
:10123000192164253226B2F5004F626828D0A0FB40
:101240000101930F9200FFF715F80146B0FBF5F08E
:101250006FF01802504301EB800006EB0010B0FB6A
:10126000F5F000F0F002B1FBF5F002EB0012B1FB7B
:10127000F5F06FF01803584301EB800006EB001007
:10128000B0FBF5F000F00F0021681044886070BDDD
:10129000A0FB010192185B41FEF7ECFF0146B0FB99
:1012A000F5F00201B1FBF5F06FF01803584301EBC4
:1012B000800006EBC000B0FBF5F000F0F80002EB98
:1012C0004002B1FBF5F0584301EB800006EBC00093
:1012D000B0FBF5F000F00700D6E700000010014079
:1012E00000140140FEE70907090E002804DB00F1A5
:1012F000E02080F80014704700F00F0000F1E020BB
:1013000080F8141D70470000FFF7D8FAFFF712FFAE
:10131000FFF7B6FE31483049314E00240160C0E984
:1013200001640D14C0E9034544618461C461046231
:10133000FFF794F908B172B6FEE7284829495430FE
:101340000160C0E90164C0E9034544618461C4618E
:101350000462FFF783F908B172B6FEE71F4822491D
:10136000A8304FF4E1350160C0E901540C26C46097
:10137000C0E904468461C461FFF7DAFD08B172B6C2
:10138000FEE716481949EC300160C0E90154C46019
:10139000C0E904468461C461FFF7CAFD08B172B6B2
:1013A000FEE7144812490160C0E90154C460C0E975
:1013B00004468461C461FFF7BBFD08B172B6FEE765
:1013C0000D4D4FF4005421462846FFF733F9C8204D
:1013D000FFF72EF8F7E7000000540040100000204F
:1013E000A086010000580040001001400044004069
:1013F0000014014040010020000802404FF04070FE
:10140000E1EE100A70470000000000000000010239
:10141000030406070809000000000102030400009D
:10142000401400080000002010000000D001000857
:101430005014000810000020D80D0000EC01000836
:101440000100000010000000000000000024F40073
:040000050800019559
:00000001FF
