:020000040800F2
:1000000008170020A1010008671B0008A5020008CE
:10001000651B00087F040008C921000800000000DB
:10002000000000000000000000000000B301000814
:100030008104000800000000F3010008691B0008AB
:10004000BB010008BB010008BB010008BB010008A0
:10005000BB010008BB010008BB010008BB01000890
:10006000BB010008BB010008BB010008BB01000880
:10007000BB010008BB010008BB010008BB01000870
:10008000BB010008BB010008BB010008BB01000860
:10009000BB010008BB010008BB010008BB01000850
:1000A000BB010008BB010008BB010008BB01000840
:1000B000BB010008BB010008BB010008BB01000830
:1000C000BB010008BB010008BB010008BB01000820
:1000D000BB010008BB010008BD210008BB010008EE
:1000E000BB010008BB010008BB010008BB01000800
:1000F000BB010008BB010008BB010008BB010008F0
:10010000BB010008BB010008BB010008BB010008DF
:10011000BB010008BB010008BB010008BB010008CF
:10012000BB010008BB010008BB010008BB010008BF
:10013000BB010008BB010008BB010008BB010008AF
:10014000BB010008BB010008BB010008BB0100089F
:10015000BB010008BB010008BB010008BB0100088F
:10016000BB010008BB010008BB010008BB0100087F
:10017000BB010008BB010008BB0100080000000033
:10018000BB010008BB010008DFF810D000F060F9E7
:100190000048004775040008AFF3008008170020EE
:1001A0000648804706480047FEE7FEE7FEE7FEE711
:1001B000FEE7FEE7FEE7FEE7FEE7FEE7811C00083C
:1001C00089010008EFF3108072B6704780F3108841
:1001D0007047424A1368012B04D04FF001031360AB
:1001E0003F4A10603F4A11603F484FF08051016024
:1001F0007047EFF3108272B63848016851B34FF080
:10020000000101603648016891B1EFF309811EF0E9
:10021000100F08BF21ED108B21E9F00F4FF0000403
:100220001EF0100F08BF012441F8044D0068016062
:100230002C490968096808C9B1E8F00F002B18BFFC
:10024000B1EC108B81F309884EF0100E002B18BF13
:100250002EF0100E82F310884EF0040E70472149E4
:100260000860EFF3148222F0040282F314881C4920
:100270004FF00000086019494FF0010008601B486A
:100280001B49D0F8002041EA0201016016484FF0F6
:100290008051016017480068006880F3088861B6E3
:1002A00062B670471EF0040F0CBFEFF30880EFF347
:1002B000098020E9F00F40F804ED40F804ED1EF04D
:1002C000040F0CBF80F3088880F3098800B503F0A1
:1002D000E9F85DF804EB4EF0040E70477C00002056
:1002E000740000207800002004ED00E020ED00E024
:1002F0000000FFFF08ED00E02DE9F05F054600205B
:1003000092469B4688460646814640241BE0284686
:1003100041464746224600F08AF853465A46C01ADC
:10032000914110D311461846224600F071F82D1A5B
:1003300067EB01084F4622460120002100F068F8D3
:1003400017EB00094E41201EA4F10104DFDC4846F2
:1003500031462A464346BDE8F09F40EA01039B0729
:1003600003D009E008C9121F08C0042AFAD203E02A
:1003700011F8013B00F8013B521EF9D27047D2B28E
:1003800001E000F8012B491EFBD270470022F6E77E
:1003900010B513460A4604461946FFF7F0FF2046FB
:1003A00010BD421E12F8013F002BFBD111F8013B9A
:1003B00002F8013B002BF9D1704710B5044604E068
:1003C0000B7800F8013B03B1491C521EF8D22046BD
:1003D00010BD421C10F8011B0029FBD1801A704788
:1003E000034611F8012B00F8012B002AF9D1184619
:1003F000704730B505460020034600E05B1C934281
:1004000005D2EC5CC85C201A01D1002CF6D130BDBD
:10041000202A04DB203A00FA02F1002070479140C4
:10042000C2F1200320FA03F3194390407047202AB9
:1004300004DB203A21FA02F00021704721FA02F38E
:10044000D040C2F120029140084319467047000095
:10045000064C074D06E0E06840F0010394E8070011
:1004600098471034AC42F6D3FFF792FE8847000855
:10047000A847000810B503F0F3FE002010BDFEE70A
:100480007047000072B602A003F052F9FEE70000C8
:100490004552524F524552524F524552524F524579
:1004A00052524F524552524F520000002DE9F04136
:1004B0000446876D00F04EF9064694F83500002595
:1004C000022806D08020606584F834500120BDE801
:1004D000F0812068016821F01601016020684169FF
:1004E00021F080014161206C08B9A06C20B1206826
:1004F000016821F0080101602068016821F0010114
:1005000001600CE000F026F9801B052807D92020A7
:100510006065032084F8350084F83450D7E72068FC
:100520000068C007EED194F85C103F208840B860A6
:10053000012084F8350084F834500020C7E790F893
:100540003510022903D08021416501207047052123
:1005500080F835100068016821F001010160002079
:10056000704700002DE9F84FDFF8BCA100220125FB
:1005700003264FF00F090AF1040BAAF1040E00BF85
:100580000B6805FA02F42340A34270D10F7907F0FB
:100590000307012F01D0022F16D187684FEA4208C6
:1005A00006FA08FC27EA0C07D1F80CC00CFA08FC84
:1005B0004CEA070CC0F808C04768A7430C79C4F39D
:1005C000001494403C4344600C79E443A4070AD0EF
:1005D000C4684FEA420C06FA0CF7BC438F6807FA6E
:1005E0000CF72743C7600C7904F00304022C12D1E6
:1005F000D40800EB840CDCF820405707FF0E09FA02
:1006000007F824EA0804D1F8108008FA07F848EA45
:100610000408CCF8208004684FEA420C06FA0CF774
:10062000BC430F7907F0030707FA0CF7274307606D
:100630004C6814F4403F70D03C4C276847F4804726
:100640002760246822F0030704F480440094384CA7
:1006500007EB040CDCF8084897074FEA177809FA0B
:1006600008F7BC43334FB84202D1002724E054E0DE
:10067000314FB84201D101271EE0304FB84201D1BD
:10068000022719E02E4FB84201D1032714E02D4F65
:10069000B84201D104270FE02B4FB84201D1052702
:1006A0000AE02A4FB84201D1062705E0284FB84298
:1006B00001D1072700E0082707FA08F72743CCF8FD
:1006C0000878DAF800405746D1F804C09C435FEA46
:1006D000CC2C00D51C433C60DBF800405F46D1F8D1
:1006E00004C09C435FEA8C2C00D51C433C60DEF8C0
:1006F00000407746D1F804C09C435FEA8C3C00D5AB
:100700001C433C60084F083F3C68D1F804C09C4340
:100710005FEACC3C00D51C433C60521C102AFFF41D
:100720002FAFBDE8F88F0000083C0140443802407C
:100730000030014000000240000402400008024076
:10074000000C024000100240001402400018024059
:10075000001C02400148806870470000080000202B
:1007600070B5040025D094F83D00002520B984F828
:100770003C50204600F0B8F8242084F83D00206862
:10078000016821F0010101602068016841F4004125
:1007900001602068016821F40041016000F020FA46
:1007A0004D4A6168914201D84C4900E04C49884269
:1007B00001D2012070BD4B492368B0FBF1F15E68A6
:1007C00026F03F060E435E606368934206D94FF4FD
:1007D000967359434FF47A73B1FBF3F12368491CC4
:1007E0001E6A26F03F06314319626168914210D8B3
:1007F0004900401EB0FBF1F2521CC2F30B02042A66
:1008000001D2042022E0B0FBF1F0401CC0F30B0049
:100810001CE0A268F2B301EBC10303EB0116431E17
:10082000B3FBF6F35B1C43F480431B0549D092B342
:1008300001EBC10202EB0111401EB0FBF1F0401CC4
:10084000C0F30B0040F4804040F400402168CA69C6
:100850004CF6FF739A431043C861D4E90710014373
:100860002068026822F0C00211430160D4E903014C
:1008700001432068826848F2FF339A431143816044
:10088000D4E9050108432168CA6822F0FF02104339
:10089000C86001E00EE016E02068016841F0010147
:1008A00001602564202084F83D00256384F83E50D3
:1008B000002070BD01EB4106431EB3FBF6F35B1C49
:1008C000B3E70120C2E701EB4101401EB0FBF1F0AC
:1008D000401CC0F30B00B7E7A086010080841E0017
:1008E00000093D0040420F00F0B587B004461421D6
:1008F0006846FFF74BFD1D492068884233D11C48EC
:100900000024016841F004010160016801F0040164
:100910000591016841F0010101600068122500F0B5
:10092000010005904FF40070CDE9000502AA0326EE
:10093000042782E8D00069460E48FFF713FEB8018D
:10094000CDE9000502AA694682E8D0000A48FFF70F
:1009500009FE07481030016841F400010160006899
:1009600000F40000059007B0F0BD0000005C0040FE
:100970003038024000080240000002400B4810B529
:10098000016841F400710160016841F48061016017
:10099000016841F480710160032000F06FF80020CD
:1009A00000F006F800F024F8002010BD003C0240E2
:1009B00070B50D4D04464FF47A712878B1FBF0F014
:1009C0000A490968B1FBF0F000F010FB48B9102C9F
:1009D00007D200222146501E00F030F800206C6043
:1009E00070BD012070BD0000080000201400002030
:1009F0000A4808B5016841F480410160006800F4CC
:100A0000804000900548001F016841F0805101605E
:100A1000006800F08050009008BD0000443802409B
:100A2000002809DB00F01F020121914040098000ED
:100A300000F1E020C0F8001170470000F0B40E4B48
:100A40001B680C46C3F30223C3F10705042D00D92C
:100A50000425191D072901D2002300E0DB1E012611
:100A600006FA05F1491E214099409E40761E164027
:100A70003143F0BC01F0A9BB0CED00E0064900F0E9
:100A8000070208684FF6FF03184040EA0220034AB5
:100A900010430860704700000CED00E00000FA050C
:100AA0002DE9F0470E46050065D0DFF81481D8F82F
:100AB0000000F7B200F00700B04207D288F80070DB
:100AC000D8F8000000F00700B04254D128683D4C2F
:100AD000810712D5400703D5206840F4E05020601C
:100AE0002878000703D5206840F460402060206823
:100AF000A96820F0F000084320602878C0072DD0B6
:100B0000304968680839012812D0022813D0032818
:100B100011D00968890700292DDA216821F0030125
:100B200001432160FFF716FE814641F2883A0EE04C
:100B300009688903EFE709688901ECE7FFF70AFE16
:100B4000A0EB0901514502D90320BDE8F0872068D8
:100B5000696800F00C00B0EB810FEFD1D8F80010FD
:100B6000404601F00701B14207D90770006800F064
:100B70000700B04201D00120E7E72878400705D5FB
:100B80002068E96820F4E0500843206028780007D6
:100B900006D52068296920F4604040EAC100206041
:100BA00000F03EF82168084AC1F30311515CC840C7
:100BB0000649086006480068FFF7FAFE0020C4E70F
:100BC000003C024008380240C243000814000020E4
:100BD0000C0000200148006870470000140000204D
:100BE0000448054900680968044AC1F38221515C40
:100BF000C84070471400002008380240D243000863
:100C00000448054900680968044AC1F34231515C4F
:100C1000C84070471400002008380240D243000842
:100C2000154810B5006810F00C02144813D041109C
:100C3000042A0FD0082A0ED10F4C241F22682368E3
:100C400002F03F025B0207D52068C0F38810A0FBCA
:100C5000010106E0084610BD2168C1F38811A1FB1F
:100C600000010023FFF748FB2168C1F30141491C43
:100C70004900B0FBF1F010BD083802400024F40038
:100C80002DE9F84F04006ED02078DFF84C93C007B0
:100C9000A9F104054AD009F104000168C1F38101FA
:100CA000012908D00068C0F3810002280AD1D9F8D0
:100CB0000000400206D52868800337D56068002808
:100CC000E1D033E06068B0F5803F10D0B0F5A02FE0
:100CD000286810D020F480302860286820F4802014
:100CE00028606068A8B1FFF735FD06460DE028686A
:100CF00040F48030F4E740F480202860F7E700BF3C
:100D0000FFF728FD801B642873D828688003F7D577
:100D10000CE0FFF71FFD064605E000BFFFF71AFDD8
:100D2000801B6428F0D828688003F7D42078DFF887
:100D3000AC8280074FF0000A3ED5A748001D01682D
:100D400011F00C0F08D00068C0F3810002280BD10D
:100D5000D9F80000400207D42868800716D5E0685B
:100D6000012800D112E033E1E068B8B10120C8F8F1
:100D70000000FFF7EFFC064605E000BFFFF7EAFCC6
:100D8000801B0228C0D828688007F7D52868216909
:100D900020F0F80040EAC10028600DE0C8F800A08B
:100DA000FFF7D8FC064604E0FFF7D4FC801B0228BE
:100DB0001FD828688007F7D42078000722D5864FEF
:100DC00087486169703771B101210160FFF7C2FC8A
:100DD000064604E0FFF7BEFC801B022809D83868ED
:100DE0008007F7D50EE0C0F800A0FFF7B3FC064679
:100DF00005E082E0FFF7AEFC801B02287DD8386852
:100E00008007F7D42078400768D5DFF8CCB10027F9
:100E10000BF13C0BDBF80000C0000BD4DBF800103A
:100E200041F08051CBF80010DBF80000012700F002
:100E3000805000906B4E3068C00510D4306840F48C
:100E400080703060FFF786FC009005E0FFF782FCC1
:100E50000099401A022850D83068C005F6D55E4E79
:100E6000A0686C3601280FD00528306810D020F01B
:100E700001003060306820F004003060A068B8B134
:100E8000FFF768FC00900FE0306840F00100F4E7E5
:100E900040F004003060F7E7FFF75CFC0099411A6E
:100EA00041F28830814266D830688007F4D50EE080
:100EB000FFF750FC009007E0FFF74CFC0099411A47
:100EC00041F28830814256D830688007F4D42FB17F
:100ED000DBF8001021F08051CBF80010A069C8B3F6
:100EE0003D49091D0968C1F3810102294AD0022840
:100EF000504607D0C8F8600000E03CE0FFF72AFC4D
:100F000004463BE04746C8F86000FFF723FC06466E
:100F100005E000BFFFF71EFC801B02282BD82868C5
:100F20008001F7D4D4E907010843A16A2E4A490891
:100F300002EB0141626A41EA8211084394F82C10E5
:100F400040EA0161C9F8001001203866FFF702FC91
:100F5000044606E03EE000BFFFF7FCFB001B022852
:100F600009D828688001F7D534E000BFFFF7F2FB0D
:100F7000001B022802D90320BDE8F88F28688001F1
:100F8000F4D427E00128F7D0D9F80000E26900F492
:100F9000800191421CD1226A00F03F01914217D199
:100FA00047F6C071626A0140B1EB821F10D1A26A9C
:100FB0004FF0FF3300F4403103EB5202B1EB024F2C
:100FC00006D194F82C1000F07060B0EB016F01D0E6
:100FD0000120D1E70020CFE704380240000047425B
:100FE000800E4742007000400000FFFF10B5401E19
:100FF000B0F1807F01D3012010BD4FF0E02460618B
:101000000F21601701F0E1F80020A06107202061A6
:10101000002010BD70B590F83C20012A32D0012488
:1010200080F83C40022280F83D2003685A689D68A1
:1010300022F070060A6832435A60134B02689A42E3
:1010400014D0B2F1804F11D0104B9A420ED0104BF9
:101050009A420BD00F4B9A4208D00F4B9A4205D0C0
:101060000E4B9A4202D00E4B9A4204D1496825F0A9
:1010700080031943916080F83D40002180F83C10C6
:10108000084670BD022070BD000001400004004011
:1010900000080040000C00400004014000400140F6
:1010A0000018004030B587B0044614216846FFF7A9
:1010B0006DF9264B226800252549022425489A42CD
:1010C0001DD10A6842F001020A600A6802F00102BA
:1010D00005920A6842F002020A60096801F0020102
:1010E0000591C0218DE83200CDE903546946FFF730
:1010F00039FA03208DE831006946174810E0174B94
:101100009A4213D1086840F00800086008686946F0
:1011100000F0080005904FF470408DE83100104851
:10112000CDE90354FFF71EFA07B030BD0D4B9A42CC
:10113000FAD10A6842F001020A60096801F001016F
:1011400005910F218DE832006946E9E7000400406F
:101150003038024000000240000402400008004015
:10116000000C0240000C004070B5044690F83C00B2
:10117000002501280FD0012084F83C006AB1042A20
:101180000FD0082A11D00C2A13D00125002084F892
:101190003C00284670BD022070BD206800F0DCFDD8
:1011A000F4E7206800F008FEF0E7206800F03AFE5F
:1011B000ECE7206800F06AFEE8E710B5040003D011
:1011C00094F83D0010B107E0012010BD002084F824
:1011D0003C00204600F01EF8022084F83D00211D4E
:1011E000206800F055FD012084F8460084F83E0098
:1011F00084F83F0084F8400084F8410084F84200FD
:1012000084F8430084F8440084F8450084F83D00E5
:10121000002010BD704770B5044690F83C000026D1
:101220000D4601280FD0012084F83C006AB1042A41
:101230001DD0082A2FD00C2A3FD00126002084F888
:101240003C00304670BD022070BD206800F084FD77
:101250002068816941F0080181612068816921F07D
:1012600004018161206881692A69114311E02068C5
:1012700000F0A2FD2068816941F40061816120686D
:10128000816921F480618161206881692A6941EA6C
:1012900002218161D2E7206800F0C4FD2068C169A5
:1012A00041F00801C1612068C16921F00401C161F8
:1012B0002068C1692A69114311E0206800F0E6FD49
:1012C0002068C16941F40061C1612068C16921F4ED
:1012D0008061C1612068C1692A6941EA0221C16156
:1012E000ACE710B5040003D094F83D0010B107E05E
:1012F000012010BD002084F83C00204600F01EF8BC
:10130000022084F83D00211D206800F0C1FC01206E
:1013100084F8460084F83E0084F83F0084F84000DA
:1013200084F8410084F8420084F8430084F84400C3
:1013300084F8450084F83D00002010BD08B5124A2D
:1013400001681248914207D1016841F00201016031
:10135000006800F0020009E00D4A914208D10168DE
:1013600041F004010160006800F00400009008BD35
:10137000084A9142FBD1016841F008010160006810
:1013800000F00800F2E7000000040040403802408E
:1013900000080040000C004070477047F8B5016835
:1013A00004460868CA684B6910F00F0F4FF000053B
:1013B00059D003F0010602F49077374365D0C10796
:1013C00005D0D10503D5216C41F00101216441070D
:1013D00005D5D90703D0216C41F0020121648107B2
:1013E00005D5D90703D0216C41F004012164010720
:1013F00007D502F02001314303D0216C41F00801F0
:101400002164216C00293AD0800604D5900602D5CB
:10141000204600F092FD20684069216CC0F38010E6
:10142000090700D460B3204600F060FD20684069E1
:10143000400621D52068143050E8001F21F04001FB
:1014400040E80012002AF5D1A06BA8B16C490165F3
:10145000A06BFFF774F8002811D0A06B016D01B0EC
:10146000BDE8F040084783060FD593060DD520460A
:10147000BDE8F84000F061BD2046FFF78EFFF8BDE3
:101480002046FFF78AFF2564F8BD266B2023012E36
:1014900079D1C60677D5D60675D508684868009014
:1014A0004869400640D5A16B086840680004000CFC
:1014B000EAD0A28D8242E7D9E085C869B0F5807F85
:1014C0002DD020680C3050E8001F21F4807140E8D6
:1014D0000012002AF5D12068143050E8001F21F0D6
:1014E000010140E80012002AF5D12068143050E8CC
:1014F000001F21F0400140E80012002AF5D184F8D5
:101500003E30256320680C3050E8001F21F01001A8
:1015100040E80012002AF5D1A06BFEF7C7FFA08DAE
:10152000E18D401A81B229E0A08DE18D401A81B28F
:10153000E08D0028A8D00029A6D020680C3050E803
:10154000002F22F4907240E80026002EF5D120688A
:10155000143050E8002F22F0010240E80026002E4F
:10156000F5D184F83E30256320680C3050E8002F18
:1015700022F0100240E80023002BF5D12046FFF7AF
:101580000BFFF8BDFFE705062BD5150629D594F806
:101590003D002128F5D1A068B0F5805F01D1206918
:1015A000B0B1206A411C2162216800784860E08C5B
:1015B000401E0004000CE084E3D12068C16821F0E3
:1015C0008001C1602068C16841F04001C160D8E776
:1015D000206A0088C0F308004860206A801C2062EE
:1015E000E5E74006CDD55006CBD5CA68204622F0A7
:1015F0004002CA6084F83D3000F08FF9C1E7000076
:10160000DD1E000870B5040004D094F83D000025EC
:1016100010B106E0012070BD84F83C50204600F077
:1016200023F8242084F83D002068C16821F400518B
:10163000C160204600F0E2FC2068016921F490417D
:1016400001612068416921F02A0141612068C16877
:1016500041F40051C1602564202084F83D0084F8E5
:101660003E00002070BD0000F0B587B00446142194
:101670006846FEF78BFE364A26680021354802236D
:101680000324072596421AD1324A1432166846F0CE
:1016900010061660126802F010020592026842F00D
:1016A00001020260006802AA00F00100059082E8D1
:1016B00032006002CDE900036946274844E0254A2C
:1016C000264F1032BE4223D1166846F4003616600B
:1016D000126802F400320592026842F008020260C9
:1016E000006802AE00F00800059086E83200602035
:1016F000CDE9000369461A48FEF734FF002211467F
:101700002620FFF79BF92620FFF78AF907B0F0BDE6
:10171000144FBE42FAD1166846F48026166012684D
:1017200002F480220592026842F002020260006820
:1017300002AE00F00200059086E832004FF44060EF
:10174000CDE9000369460848FEF70CFFDEE700001C
:1017500000100140303802400000024000440040C8
:10176000000C0240004800400004024090F83E3067
:10177000202B0ED159B152B190F83C30012B08D03A
:10178000012380F83C300023036300F0BDBC01203E
:1017900070470220704700007CB5006824498842E9
:1017A00045D1244C0025207840B104280AD00828CF
:1017B00008D00C2806D0102804D006E06178522901
:1017C0002CD113E061782C2908D1122801D01328DC
:1017D0000CD161780D2909D00A2907D04FF6FF7383
:1017E0000C2215A1184800F03FF816E0164A61785F
:1017F00088321154401CC0B2207013280ED901F059
:101800004FF80C48801C0279C178CDE9001283782A
:10181000427801780DA001F08BFF257002B00549D8
:10182000BDE870400122491C0748FFF79FBF7CBDFF
:1018300000440040000000204241442052455155E0
:101840004553545300000000C4010020783D256436
:101850002C793D25642C773D25642C683D25642C2E
:1018600069643D25640A00002DE9F843044690F8B8
:101870003D001F4616460D4620284CD1C5B1BEB1CD
:1018800094F83C00012846D0012084F83C004FF039
:101890000008C4F84080212084F83D00FEF75AFF7C
:1018A000A6848146E684A068B0F5805F03D004E09A
:1018B0000120BDE8F883206928B12E465FF00005BD
:1018C00084F83C800EE00026FAE78021204600F0F4
:1018D00038FCA0B9AEB116F8010B21684860E08C65
:1018E000401EE084E08C4B464FF000020097002839
:1018F000EBD14FF04001204600F023FC30B1032033
:10190000D7E735F8020BC0F30800E6E7202084F89B
:101910003D000020CDE70220CBE77047154808B511
:10192000016841F004010160016801F004010091C7
:10193000016841F080010160016801F080010091BF
:10194000016841F001010160016801F001010091AD
:10195000016841F002010160016801F0020100919B
:10196000016841F008010160006800F00800009083
:1019700008BD0000303802400C4810B50A4901602B
:101980000B49416000214FF480428160C0E903129D
:1019900041618161C1610162FEF7E2FE002801D070
:1019A000FEF770FD10BD0000005C004098000020B4
:1019B000A086010010B58AB0002407941C21684657
:1019C0000894FEF7E3FC1E481C490160A821C0E909
:1019D00001144FF47A71C0E9031480218161FFF78B
:1019E00080FC18BB079407A915480894FFF712FB61
:1019F000E0B96020CDE90004029400226946104855
:101A00000494FFF708FC88B9042269460C48FFF7E4
:101A100002FC58B9082269460948FFF7FCFB28B9BF
:101A20000C2269460648FFF7F6FB08B1FEF72AFDCF
:101A30000348FFF737FB0AB010BD00000004004068
:101A4000EC00002010B58AB0002407941C216846E1
:101A50000894FEF79BFC1D481B49C0E900144FF693
:101A6000FF71C0E9024104618461FFF73AFC18BBD1
:101A7000079407A915480894FFF7CCFAE0B960204D
:101A8000CDE9000402940022694610480494FFF74F
:101A9000C2FB88B9042269460C48FFF7BCFB58B961
:101AA000082269460948FFF7B6FB28B90C226946A7
:101AB0000648FFF7B0FB08B1FEF7E4FC0348FFF768
:101AC000F1FA0AB010BD0000000800403401002007
:101AD00010B58AB0002407941C2168460894FEF7CC
:101AE00055FC1F481D49C0E90014611EC0E90241B0
:101AF00004618461FFF7F5FB40BB1948FFF75DFB0C
:101B000020BB079407A916480894FFF783FAE8B9A1
:101B10006020CDE900040294002269461048049434
:101B2000FFF779FB90B9042269460D48FFF773FB74
:101B300060B9082269460A48FFF76DFB30B90C22EC
:101B4000694607480094FFF70FFB08B1FEF79AFCBF
:101B50000348FFF7A7FA0AB010BD0000000C0040D0
:101B60007C010020FEE7FEE710B501F0C5FD02F0A4
:101B700027F9BDE8104001F0CDBD000030B593B0AD
:101B800030216846FEF702FC14210CA8FEF7FEFB8C
:101B90001B480025016841F080510160006800F099
:101BA000805011901748016841F48041016000683D
:101BB000022400F480401190012000900004019064
:101BC0008001CDE9064008AA0420A82182E813007C
:101BD0000B906846FFF754F870B90CA90F2081E804
:101BE00031004FF4A0500F90E002109005210CA896
:101BF000FEF756FF002801D0FEF744FC13B030BDBD
:101C0000403802400070004070B5194C2068194AF5
:101C100010F00C01184804D05510042903D00829ED
:101C200003D002601BE0056019E01149091F0B6831
:101C3000C3F380560B6803F03F0316B1B5FBF3F214
:101C400001E0B2FBF3F20B680968C3F388135A434F
:101C5000C1F30141491C4900B2FBF1F10160216867
:101C6000064AC1F30311515C0268CA40026070BDAC
:101C7000083802400024F40014000020C243000889
:101C80000248016841F470010160704788ED00E08E
:101C9000F0B50268254C264D264E274F274B4FF0B6
:101CA000804CA04209D0604507D0A84205D0B04280
:101CB00003D0B84201D0984204D122F0700E4A6895
:101CC00042EA0E02A0421BD0604519D0A84217D0AC
:101CD000B04215D0B84213D0984211D0184DA84246
:101CE0000ED0184DA8420BD0174DA84208D0174D62
:101CF000A84205D0164DA84202D0164DA84203D1E5
:101D000022F44075CA682A434D6922F080022A43B2
:101D100002608A68C2620A688262A04201D0984268
:101D200001D10969016301214161F0BD0000014059
:101D30000004004000080040000C00400004014086
:101D400000400140004401400048014000180040AC
:101D5000001C004000200040F0B5026A22F00102A1
:101D60000262036A42688469124E24F073050C68AB
:101D70002C4323F002058B682B430D4DA84201D064
:101D8000B04205D123F00807CB683B4323F004039E
:101D9000A84201D0B04205D14D6922F440721543EA
:101DA0008A692A4342608461496841630362F0BDE5
:101DB0000000014000040140F0B5026A22F0100268
:101DC0000262026A436884690D6824F4E64444EAC6
:101DD00005248D6822F0200242EA05120F4D104EB4
:101DE000A84201D0B04206D1CF6822F0800242EA78
:101DF000071222F04002A84201D0B04207D14D693B
:101E000023F4406343EA85038D6943EA8503436015
:101E10008461496881630262F0BD000000000140F6
:101E200000040140F0B5026A22F480720262026A84
:101E30004368C46922F4007224F073050C68124EE2
:101E40002C438D6842EA05220E4DA84201D0B042D3
:101E500006D1CF6822F4006242EA072222F48062AF
:101E6000A84201D0B04207D14D6923F4405343EA60
:101E700005138D6943EA05134360C4614968C16372
:101E80000262F0BD000001400004014030B5026A6A
:101E900022F480520262046A4268C3690D6823F426
:101EA000E64343EA05238D6824F4005444EA0534EC
:101EB000084DA84202D0084DA84204D14D6922F431
:101EC000804242EA85124260C3614968016404624B
:101ED00030BD0000000001400004014010B5806BDF
:101EE0000021C185C184FFF758FA10BD01680C318B
:101EF00051E8002F22F4907241E80023002BF5D125
:101F00000168143151E8002F22F0010241E800235A
:101F1000002BF5D1016B012909D101680C3151E881
:101F2000002F22F0100241E80023002BF5D12021E0
:101F300080F83E1000210163704708B590F83E100C
:101F4000222901D0022008BD82684FF480539A42B2
:101F500001D1016921B1816A9A421BD04AB10AE0DC
:101F60000268816A5268C2F308020A80816A891C89
:101F700008E0026972B10268526802F07F020A70DA
:101F8000816A491C8162C18D491E0904090CC18501
:101F900003D019E002685268F1E70168CA6822F0CC
:101FA0002002CA600168CA6822F48072CA600168AF
:101FB0004A6922F001024A61202180F83E10016B3B
:101FC000012903D0FFF7E8FB002008BD00210163D1
:101FD00001680C3151E8002F22F0100241E8002383
:101FE000002BF5D101680A68D20602D50A68496853
:101FF0000091818DFFF7D0F9E6E7000070B5044647
:1020000000680169E26821F44051114301612169CE
:10201000A068E26908436169114308432168CA68FE
:1020200049F20C639A430243CA6020684169A2697D
:1020300021F440711143416131492068884202D046
:102040003049884202D1FEF7DBFD01E0FEF7C8FD12
:10205000E2690023192164253226B2F5004F626837
:1020600028D0A0FB0101930F9200FEF745F901462D
:10207000B0FBF5F06FF01802504301EB800006EB67
:102080000010B0FBF5F000F0F002B1FBF5F002EB50
:102090000012B1FBF5F06FF01803584301EB80001C
:1020A00006EB0010B0FBF5F000F00F0021681044C3
:1020B000886070BDA0FB010192185B41FEF71CF91E
:1020C0000146B0FBF5F00201B1FBF5F06FF018032B
:1020D000584301EB800006EBC000B0FBF5F000F0C8
:1020E000F80002EB4002B1FBF5F0584301EB800031
:1020F00006EBC000B0FBF5F000F00700D6E70000EB
:10210000001001400014014081628285C2850021D7
:102110000164222280F83E2080F83C10016921B140
:102120000168CA6842F48072CA6001684A6942F074
:1021300001024A610068C16841F02001C1600020CD
:1021400070472DE9F041984617460E460446069D15
:1021500027E0681C25D02DB1FEF7FCFAA0EB0800A3
:10216000A8421ED920680C3050E8001F21F4D0711D
:1021700040E80012002AF5D12068143050E8001F12
:1021800021F0010140E80012002AF5D1202084F856
:102190003D0084F83E00002084F83C000320BDE8A8
:1021A000F0812068006836EA000004D00020B842C0
:1021B000CFD00020F3E70120F9E700000148FFF746
:1021C000EDB80000C4010020FEE70907090E002851
:1021D00004DB00F1E02080F80014704700F00F00ED
:1021E00000F1E02080F8141D70470000002807D09F
:1021F0000E4910F0FF0F04D051FA80F00078401C17
:10220000704710F47F4F04D0C0F30720085C0930FA
:10221000704710F47F0F04D0C0F30740085C113002
:10222000704701EB1060007819307047DA430008FE
:1022300002E008C8121F08C1002AFAD1704770478F
:10224000002001E001C1121F002AFBD170470000ED
:102250002DE9F04F89B092468B460646002400E0F7
:10226000641C305D202803D0092801D05C45F7D3D9
:102270004FF0FF387CB3194804F10609184F056880
:1022800011E0062217A12868FEF7B3F850B92868B4
:1022900022463146801DFEF7ACF818B9296811F8BE
:1022A000090020B10C3538688542EAD314E0AC68E7
:1022B0008CB120216846FEF769F86A4659463046D7
:1022C00000F034FF38B16946A047CAF8000000208A
:1022D00009B0BDE8F08FFFE74046F9E78000002035
:1022E000840000205F5F636D645F00002DE9FC41A6
:1022F0001F460446DDE90831DDE90A651430406017
:102300000060C4E90827C4E90A310A4623211846B7
:102310001C3401F061FAD4E903014218D4E9010147
:10232000104B121F01F0CAF944F81A0B002004F8F0
:1023300001690D4A04F8036BE4E8020544F81059FA
:1023400001C404F83C0B01C444F87409009023460E
:102350000190194604F1440001F0C6FD0020BDE8DB
:10236000FC810000313B0008FF3C0008143001F004
:102370000FBA70B50546FDF725FF296F044609B170
:10238000284688472046BDE87040FDF71FBF000083
:1023900010B51BA001F0CCF91C4C21781CA001F059
:1023A000C7F92078C00702D01FA001F0C1F920783A
:1023B000800702D51FA001F0BBF92078400702D5A5
:1023C0001FA001F0B5F92078000702D520A001F088
:1023D000AFF92078C00602D520A001F0A9F9207835
:1023E000000607D509480F300168BDE810401DA060
:1023F00001F09EB9BDE810401EA001F099B900009F
:10240000627573206661756C743A0A0029ED00E00C
:102410005343425F434653525F424653523A3078E9
:102420002530325820000000494255534552522071
:1024300000000000505245434953455252200000CD
:10244000494D505245434953455252200000000027
:10245000554E53544B4552522000000053544B45A7
:10246000525220005343422D3E424641523A2530BB
:1024700038580A000A00000010B500F057FB002091
:1024800010BD0000104810B5416991F8211089076E
:1024900003D40E490020087013E0016921B18022A5
:1024A0000A48FDF78AFF0CE000F03EFE08B108A1E3
:1024B00000E009A10548FDF793FF09A10348FDF7D6
:1024C00070FF024810BD0000800000209409002029
:1024D0006D7368200000000066696E73682000005C
:1024E0003E0000000349496911F8212F60F34102C1
:1024F0000A70704780000020014AC2E9000170475D
:10250000800000207FB514491448FFF7F5FF154CF3
:1025100013480A23A0F58F65606115224FF480618E
:10252000A0F580608DE80F0000230F4A0FA17838D6
:1025300001F04AFB064600231A460EA1606901F02D
:102540003BFA0120FFF7CEFF16B9284601F0A0FBA9
:1025500004B0002070BD000088470008F84600085D
:10256000900E0020800000207D25000874736865AF
:102570006C6C00007368727800000000984D686908
:1025800010F8211F41F001010170FFF77BFF01F0FE
:10259000CFF8002600F04EFF0400FBD41B2C07D020
:1025A000686990F82010012907D002290ED017E0A1
:1025B0006969012081F82000ECE75B2C02D080F8EB
:1025C00020600DE0022180F82010E3E780F8206011
:1025D000412CDFD0422CDDD0442C38D0432C43D0CA
:1025E000002CD7D0FF2CD5D0092C4ED07F2C75D005
:1025F000082C73D00D2C70D00A2CFCD0B0F87210BF
:10260000502901D3A0F87260B0F87430B0F872109D
:102610008B427DD2CA1A00F122012330194418449A
:1026200001F0C0F86869B0F8741022300C54686981
:1026300090F82110C90706D0B0F874102230014478
:1026400068A001F075F86869B0F87440A5E0B0F8CA
:10265000740000289ED064A001F06AF8686930F820
:10266000741F491E018095E7B0F87410B0F872200D
:1026700091428FD22230095C5CA001F059F869695F
:1026800031F8740F401C088084E7002403E056A052
:1026900001F04EF8641C6869B0F87400A042F6DCE2
:1026A0006C6953A0223401F043F800F03DFD01288D
:1026B00002D1204600F074FCFFF7E4FE01462246FA
:1026C0004CA001F035F868692230FDF782FE696997
:1026D00021F8720F48805DE700E03DE0B0F874201B
:1026E000002AC0D0B0F87210521E491E89B293B2AF
:1026F000A0F87210A0F87430994224D9CA1A00F1D7
:10270000230122301944184401F04CF8686900E0B4
:1027100049E0B0F8721022300E546869B0F87410B5
:102720002230014435A001F003F86869B0F8744024
:1027300003E02DA000F0FCFF641C6869B0F8720093
:10274000A04290DBF5E72FA000F0F2FF6869B0F837
:10275000721022300E541DE700F0E6FC01280DD166
:10276000686990F82100C00702D021A000F0E0FFC6
:102770006869B0F87210223000F068FCFFF782FE42
:1027800000F0D6FF686950212230FDF7FFFD68692F
:1027900022E015A000F0CCFF641C6869B0F872005C
:1027A000A042F6DC0AE022300C54686990F821005F
:1027B000C00703D021460DA000F0BAFF6869B0F849
:1027C0007210491C89B2A0F87210B0F87420521C23
:1027D000A0F874205029BED320F8726F4680D9E645
:1027E0008000002025730000080000002563000021
:1027F0000A000000257325730000000008257320DF
:10280000200800000820080010B5124C206880073E
:1028100002D511A000F08CFF2068400011D50D48B2
:10282000C01E007808B1FFF7B3FD0A48001F00780A
:1028300008B100F049FB0748801E008808B101F08C
:1028400053FD2068002804DABDE8104008A000F01D
:102850006FBF10BD2CED00E06661696C6564207689
:102860006563746F722066657463680A0000000017
:102870006465627567206576656E740A0000000005
:1028800010B502A000F054FF002010BD48656C6C2C
:102890006F2052542D546872656164210A00000053
:1028A0002DE9F04300226423124D134F10464FF0E0
:1028B00001090A264FF0040809EB800108EB800C9F
:1028C00009E06C5C202C12D0303C5C43B3FBF6F387
:1028D0002244D2B2491C8C45F3DC3A5400226423D2
:1028E000401C0428E8DB687C3871BDE8F0830024D4
:1028F000ECE700004C0200200200002070B50CA0A4
:1029000000F016FF0F48104D04680BE002220FA1E3
:102910002068FDF76EFD20B1D4E900120CA000F094
:1029200007FF0C3428688442F0D3002070BD0000FB
:102930002D2D46756E6374696F6E204C6973743A01
:102940000A00000080000020840000205F5F00007B
:10295000252D313673202D2D2025730A000000000F
:102960002DE9F04104461E4617460D46084600F084
:1029700069FF001D2060257200206760C4E90360C4
:10298000BDE8F0812DE9F0410D4600212961E9689B
:1029900091B1297A81B12E6888B10446FDF712FC05
:1029A0000146A4F10C002A7A007A20F080009042BF
:1029B00009D00846FDF70AFC0020BDE8F081344646
:1029C000FDF700FC0146686800272468B44201D185
:1029D000002404E010C0EA687F1CBA42F5D1084622
:1029E000FDF7F4FB20462F61E7E700002DE9F041F9
:1029F00094B0002733A408230BAA022105A8FFF7EF
:102A0000AFFF082080460146224631A000F090FE2C
:102A1000404600F0F3FB35A000F08AFE05A93846D9
:102A2000FFF7B0FF0746002642E00BA850F826400B
:102A30000C3CFDF7C7FB217A9DF81C2021F080019A
:102A4000914202D0FDF7C2FB31E0FDF7BFFB04F17C
:102A500014006169054681421ED000F087FEA18BFB
:102A6000CDE9001023460822414626A000F060FE72
:102A70002C680BE0A4F1140126A000F059FE206898
:102A8000A84202D024A000F053FE2468AC42F1D149
:102A900015A000F04DFE0AE000F068FEA18BCDE924
:102AA00000102346082241461CA000F041FE761C7F
:102AB0000998B042B9DC002FB0D114B00020BDE8B5
:102AC000F081000073656D6170686F7265000000D1
:102AD000252D2A2E73207620202073757370656E45
:102AE00064207468726561640A000000202D2D2D39
:102AF000202D2D2D2D2D2D2D2D2D2D2D2D2D2D0A36
:102B000000000000252D2A2E2A7320253033642052
:102B100025643A00257300002F000000252D2A2E81
:102B20002A7320253033642025640A002DE9F04102
:102B3000B4B000263CA408232CAA012126A8FFF744
:102B40000FFF0820804601462246394800F0F0FD7C
:102B5000404600F053FB37A000F0EAFD26A93046BE
:102B6000FFF710FF0646002554E02CA850F825403A
:102B70000C3CFDF727FB0746207A9DF8A01020F0BB
:102B80008000884203D03846FDF720FB41E07822E0
:102B9000214607A8FDF7E1FB3846FDF717FB94F83F
:102BA0003500009023460822414632A000F0C0FDC7
:102BB00094F8340000F00F00012807D0022807D055
:102BC00040B1042808D0032808D00AE02CA006E071
:102BD0002EA004E030A002E032A000E034A000F01B
:102BE000A7FDA06A014600E0401C0278232AFBD022
:102BF000E26A401A101A64235843B0FBF2F3276BC1
:102C0000206CCDE90007E069081A81182BA000F0BC
:102C10008FFD6D1C2A98A842A7DC002E9ED134B0EF
:102C20000020BDE8F08100007468726561640000F6
:102C3000FC440008202D2D2D20202D2D2D2D2D2D57
:102C40002D202D2D2D2D2D2D2D2D2D2D202D2D2DCE
:102C50002D2D2D2D2D2D2D20202D2D2D2D2D2D20CB
:102C6000202D2D2D2D2D2D2D2D2D2D202D2D2D0AD1
:102C700000000000252D2A2E2A7320253364200011
:102C80002072656164792020000000002073757354
:102C900070656E640000000020696E697420202059
:102CA0000000000020636C6F7365202000000000AE
:102CB0002072756E6E696E67000000002030782506
:102CC0003038782030782530387820202020253082
:102CD0003264252520202030782530387820253092
:102CE00033640A00F0B593B0002626A408230BAA8B
:102CF0000A2104A8FFF734FE08272246394623A0FC
:102D000000F016FD384600F079FA2AA000F010FD18
:102D100004A93046FFF736FE0646002524E00BA83E
:102D200050F825400C3CFDF74DFA217A9DF818200B
:102D300021F08001914202D0FDF748FA13E0FDF73F
:102D400045FAD4E90901CDE90001234608223946B4
:102D500021A000F0EDFC607AC00701D024A000E0C3
:102D600026A000F0E5FC6D1C0898A842D7DC002ED8
:102D7000CED101F01FF8014624A000F0D9FC13B019
:102D80000020F0BD74696D6572000000252D2A2EAB
:102D9000732020706572696F6469632020207469F4
:102DA0006D656F757420202020202020666C61677F
:102DB0000A000000202D2D2D2D2D2D2D2D2D2D2007
:102DC0002D2D2D2D2D2D2D2D2D2D202D2D2D2D2D40
:102DD0002D2D2D2D2D2D0A00252D2A2E2A73203044
:102DE0007825303878203078253038782000000079
:102DF0006163746976617465640A00006465616387
:102E0000746976617465640A00000000637572720B
:102E1000656E74207469636B3A3078253038780AAF
:102E2000000000001DA000F083FCFEF777FDFEF718
:102E3000C1FDFEF7A1FDFEF705FEFEF749FE1A48AB
:102E400018494FF4E13500240160C0E901540C2613
:102E5000C460C0E904468461C461FEF7D3FB68B96D
:102E60001148124944300160C0E90154C460C0E90E
:102E700004468461C461FEF7C5FB08B1FDF702FB9F
:102E80000BA000F055FC01220A490748FEF76EFC32
:102E90004FF4FA64204600F0AFFEFBE7696E206D48
:102EA00061696E0000440040C401002000480040F9
:102EB0006F6B00000100002010B500F06FFABDE854
:102EC0001040FFF7AFBF000010B518A000F030FCB5
:102ED0001B4C21781BA000F02BFC2078C00702D0EF
:102EE0001EA000F025FC2078800702D51EA000F06F
:102EF0001FFC2078000702D51EA000F019FC2078E6
:102F0000C00602D51EA000F013FC2078000607D5ED
:102F10000B480C300168BDE810401CA000F008BC54
:102F2000BDE810401D4800F003BC00006D656D2039
:102F30006D616E616765206661756C743A0A0000A8
:102F400028ED00E05343425F434653525F4D4653E2
:102F5000523A30782530325820000000494143432E
:102F600056494F4C200000004441434356494F4CC2
:102F7000200000004D554E53544B45525220000046
:102F80004D53544B45525220000000005343422DF4
:102F90003E4D4D41523A253038580A0058430008FA
:102FA0002DE9F0478046002500782C4618B12248CC
:102FB000224F066831E0BDE8F0470021084600F0E6
:102FC00077B806221EA13068FDF713FA20BB3068DF
:102FD00000F106094046FDF7FCF902464946404625
:102FE000FDF707FAC0B925B94C464846FDF7F1F997
:102FF00005464946204601E0401C491C02781AB1AA
:103000000B780BB19A42F7D0001BA84200DA0546B4
:1030100049460DA000F08CFB0C3638688642D0D3B0
:10302000002C06D02A4621464046BDE8F04700F075
:1030300035BDBDE8F087000080000020840000203E
:103040005F5F636D645F000025730A0038B5044656
:1030500001E0491E641C59B120782028F9D00928C4
:10306000F7D06A462046FFF7F3F818B1204604E08F
:10307000002038BD009838BD401C0178202901D0BF
:103080000029F9D100210170214603A000F050FB76
:103090004FF0FF3038BD000025733A20636F6D6D2F
:1030A000616E64206E6F7420666F756E642E0A0008
:1030B00070B50EA000F03CFB1348144D04680CE002
:1030C000062213A12068FDF794F928B9D4E900126B
:1030D00011A0891D00F02CFB0C3428688442EFD32A
:1030E00010A000F025FB002070BD000052542D54AC
:1030F0006872656164207368656C6C20636F6D6DC8
:10310000616E64733A0A0000800000208400002091
:103110005F5F636D645F0000252D313673202D20C5
:1031200025730A000A0000000120704770B50023D3
:1031300015461C461A464BE000F8012B5B1C06782E
:10314000202E01D0092E01D18B42F5D3082C11D3AA
:1031500021A000F0EDFA002606E000BF55F8261089
:1031600025A000F0E5FA761CA642F7D321A000F0D6
:10317000DFFA2FE08B422DD2F6B2222E03D045F893
:103180002400641C1BE0401C45F824005B1C641CEC
:1031900008E05C2E04D14678222E01D1401C5B1C35
:1031A000401C5B1C0678222E01D08B42F1D38B424F
:1031B00010D200F8012B5B1C0AE0401C5B1C067857
:1031C000202E03D0092E01D08B42F6D38B4201D2A0
:1031D0008B42B4D3204670BD546F6F206D616E7901
:1031E00020617267732021205765206F6E6C7920F3
:1031F0005573653A0A0000002573200010B5044697
:1032000002E003A000F094FA641EFAD210BD0000A0
:103210002D0000002DE9F04F85B09946DDE90EA59F
:10322000109CAB46630602D5DFF814C103E0DFF85B
:1032300010C1ACF1110CE30601D524F00104E30741
:1032400001D0302300E0202300260493A3070BD5F0
:10325000002A02DA2D26524206E0630701D52B260A
:1032600002E0230700D520260023EE4622B93022B3
:103270008DF8002001230CE0B9F10A0F14D002F000
:103280000F0812091CF808800EF803805B1C002A46
:10329000F2D1AB4200DD1D46AAEB050214F0110F7E
:1032A0004FF0200708D015E00A27B2FBF7F807FB1C
:1032B0001828B2FBF7F2E5E73EB1002A05DD521E01
:1032C00003E0884200D20770401CB2F1000CA2F16A
:1032D0000102F6DC26B1884200D20670401C521E64
:1032E000E40605D508E0884201D2049C0470401C25
:1032F000141EA2F10102F6DC30242E466D1E9E4201
:103300000ADD884200D20470401CF6E7884201D2F0
:10331000E55C0570401C00E074461D1EA3F101032E
:1033200007DDBBF1000FF1D103E0884200D2077046
:10333000401C131EA2F10102F7DC05B0BDE8F08FBE
:10334000EB4400081FB50A4C14230A224FF4806195
:10335000A4F580608DE80F000023064A06A12046F0
:1033600000F032FC04B02046BDE8104000F090BCF4
:1033700060060020B92E00086D61696E0000000033
:1033800070B5044C044D02E020688047241DAC4217
:10339000FAD370BDE4460008EC46000870B5044C52
:1033A000044D02E020688047241DAC42FAD370BD72
:1033B000EC460008F446000810B5FCF703FF044A89
:1033C0005188491C5180BDE81040FCF7FFBE000049
:1033D0005000002010B5FCF7F5FE0B4C6188491E2B
:1033E00009B2618000290ADC00216180FCF7EEFE51
:1033F0006068002807D0BDE8104000F065BABDE85D
:103400001040FCF7E3BE10BD5000002010B5FDF7E2
:10341000B5FAFEF7B3FBFEF7F7FBFDF7DBFB4FF466
:103420007A71B0FBF1F0FDF7E1FDBDE81040FFF768
:10343000A7BF0000084810B500684FF0FF340168CE
:10344000C943890602D44068C4B202E00A2000F0F1
:10345000D3FBE0B210BD000050090020F8B50646CD
:103460000D200F498DF80000002481F83C403046C3
:1034700000F00CFB05460FE0305D0A2805D1012362
:103480001A4669460648FEF7EFF9012331191A4634
:103490000348FEF7E9F9641CAC42EDD3F8BD000027
:1034A0005009002070B531490546283009682C1DA7
:1034B00011B18847002857D02DA0216C00F038F9B1
:1034C0002FA0616A00F034F931A0A16A00F030F950
:1034D00033A0E16A00F02CF935A0216B00F028F947
:1034E00037A0616800F024F939A0A16800F020F944
:1034F0003BA0E16800F01CF93DA0216900F018F93B
:103500003FA0616900F014F941A0A16900F010F931
:1035100043A0E16900F00CF945A0216A00F008F928
:1035200047A0616B00F004F949A0A16B00F000F91D
:103530004BA0E16B00F0FCF82878400708D500F0BC
:1035400081FB01464AA000F0F3F8FFF7EFFA02E032
:103550004FA000F0EDF82878C00602D453A000F088
:10356000E7F8FFF751F9FEE770BD0000700000209A
:103570007073723A203078253038780A00000000E5
:103580007230303A203078253038780A0000000058
:103590007230313A203078253038780A0000000047
:1035A0007230323A203078253038780A0000000036
:1035B0007230333A203078253038780A0000000025
:1035C0007230343A203078253038780A0000000014
:1035D0007230353A203078253038780A0000000003
:1035E0007230363A203078253038780A00000000F2
:1035F0007230373A203078253038780A00000000E1
:103600007230383A203078253038780A00000000CF
:103610007230393A203078253038780A00000000BE
:103620007231303A203078253038780A00000000B6
:103630007231313A203078253038780A00000000A5
:103640007231323A203078253038780A0000000094
:10365000206C723A203078253038780A000000005B
:103660002070633A203078253038780A0000000056
:1036700068617264206661756C74206F6E20746876
:10368000726561643A2025730D0A0D0A000000007E
:1036900068617264206661756C74206F6E20686169
:1036A0006E646C65720D0A0D0A00000046505520CC
:1036B000616374697665210D0A00000070B50446E7
:1036C000121D22F0070000220A4D443840F8225013
:1036D000521C112AFAD3416200218162C16200F1B9
:1036E0003402016382E81A004FF0807303640160C2
:1036F00070BD0000EFBEADDE10B5FCF763FD044AFF
:103700001178491C1170BDE81040FCF75FBD000046
:103710001C00002010B5FCF755FD044A1178491E25
:103720001170BDE81040FCF751BD00001C000020E6
:103730000FB47F2110B503AB0448029A00F046FC99
:103740000248FFF78BFE10BC5DF814FBD007002089
:103750000268516002680A60016048607047026850
:10376000516002680A6001604860704702460021AB
:1037700000E0491C00689042FBD108467047D0E940
:1037800000124A60D0E9001211604060006070478A
:10379000D0E900124A60D0E9001211604060006078
:1037A0007047000010B50346994211D28C189C4214
:1037B0000ED9811804E000BF14F8013D01F8013D65
:1037C000521EF9D210BD00BF11F8014B03F8014B96
:1037D000521EF9D210BD000010B50346CCB2042A27
:1037E0001AD3810718D1194644EA042343EA034354
:1037F00006E008C1103A08C141F8083B41F8043C12
:10380000102AF6D201E008C1121F042AFBD20B468F
:1038100002E000BF03F8014B521EFBD210BD10B5F1
:10382000044600202072FCF7CDFCF4E903124A6044
:10383000D4E90012116064602460BDE81040FCF718
:10384000C5BC0000074A002102EB01131B7883422C
:1038500002D102EB01107047491C0329F4DB002060
:1038600070470000200000202DE9F0410546174672
:103870000E460846FFF7E6FF0446FFF79DFD211DB3
:10388000606800E000688842FCD1FFF7A3FD46F0C5
:103890008000287208223946284600F0FFF8FCF71D
:1038A00091FC54F8041F0C354D6021682960256097
:1038B0006C60BDE8F041FCF789BC007A000601D5D8
:1038C000012070470020704770B5FCF77BFC114C5D
:1038D00005466088B0B9A068FEF788FC0E49401E16
:1038E000626851F83010143991420BD020700B48A7
:1038F0006160007801F11C01002802F11C0006D073
:10390000FCF767FC2846BDE87040FCF75FBCFCF79D
:1039100060FCF7E750000020500800201C00002049
:1039200010B50446FCF74EFC024694F834000E49EC
:1039300020F00F00401C84F8340094F8350001EBAF
:10394000C00104F114004B6818604B68A361486023
:1039500006486161A16B836819438160BDE810402E
:103960001046FCF733BC0000500800205000002037
:1039700010B50446FCF726FC04F11401D1E900233C
:103980005360D1E900231A60A161616194F8352088
:10399000074951F8323001EBC2018B4204D105498D
:1039A000A36B8A689A438A60BDE81040FCF70EBC9E
:1039B00050080020500000202DE9F04116460A462C
:1039C0001F4605460221FFF74FFF05F11404AC61C5
:1039D0006C61AE836F720020BDE8F08108B509A06C
:1039E000FFF7A6FE0AA0FFF7A3FE12A00090052392
:1039F0000122032112A0FFF79BFEBDE8084018A09A
:103A0000FFF796BE0A205C207C202F0A00000000F1
:103A10002D205254202D20202020205468726561D2
:103A200064204F7065726174696E67205379737496
:103A3000656D0A0041707220203920323032320028
:103A4000202F207C205C202020202025642E25642F
:103A50002E2564206275696C642025730A000000BD
:103A60002032303036202D203230323020436F70FB
:103A70007972696768742062792072742D74687233
:103A8000656164207465616D0A000000014600E014
:103A9000491C0A78002AFBD1081A704710B5002A81
:103AA00007D0034611F8014B03F8014B2CB1521E0D
:103AB000F8D110BD03F8011B00E00021521EF9D11E
:103AC00010BD000010B50A4900230A4C4B8018466F
:103AD00004EBC002401C526012602028F8DB1F205B
:103AE000087003484B600C308B604060006010BD74
:103AF000500000205008002010B5074CA068FEF7C9
:103B000075FB0649401E51F8300014386060BDE86E
:103B100010401C30FCF7A3BB5000002050080020D0
:103B20000148406000607047680000207047000056
:103B300070B514480468FCF745FB05462046FEF7BF
:103B400018FC2046FFF714FF042084F8340004F129
:103B5000440000F0B5F92046FFF7AFFE01280CD075
:103B600004F114010848FFF7F3FD00BFFFF7ACFEB6
:103B70002846BDE87040FCF729BB2046FFF74FFE02
:103B8000F4E70000540000205C000020FEE7000085
:103B90001FB5094820231F2280218DE80F00002334
:103BA000064A07A1783800F00FF804B00248BDE8D3
:103BB0001040783800F06CB8500700208D3B0008AA
:103BC0007469646C650000002DE9FF5F92460EAADF
:103BD0000C4692E8E0010A46994683460121FFF728
:103BE00043FE8DE8E0014B46524621465846FEF71B
:103BF0007DFB04B0BDE8F09F10B500F0C1F8BDE852
:103C0000104000F025B870B5044690F8340000F07C
:103C10000F00022802D04FF0FF3070BDFCF7D2FA3F
:103C2000054604F11400FFF7AAFD04F1440000F07A
:103C3000B5F92846FCF7CAFA2046FFF771FE0020C6
:103C400070BD00000148006870470000540000206B
:103C5000F1B5FCF7B7FA05460C480468204600F0B9
:103C60002DF804F144006A460021064600F004F9EC
:103C7000304600F051F92846FCF7A8FAFFF724FE79
:103C8000206B801C00D120630020F8BD5400002070
:103C900010B590F83610012280F835108A400221C4
:103CA000826380F83410FFF7AEFF0348006808B164
:103CB000FFF70AFE002010BD5400002070B5044636
:103CC00090F8340000F00F00012802D04FF0FF30D0
:103CD00070BDFCF777FA05462046FFF749FE94F8D9
:103CE000340020F00F00801C84F8340004F14400FC
:103CF00000F054F92846FCF769FA002070BD10B5B1
:103D000004466FF00100206304F11400FFF737FD53
:103D10002046FFF705FEBDE81040FFF7D5BD0000C7
:103D200070B5FCF74FFA06461348046894F834005F
:103D300000F00F00012819D1D4E90501884215D0FF
:103D400004F114000546FFF71AFD94F835000B49FD
:103D500001EBC00041680D60416869604560286002
:103D60003046FCF733FAFFF7AFFD02E03046FCF7D0
:103D70002DFA002070BD00005400002050080020E3
:103D8000002802DA4FF0FF3070474FF47A7190FB51
:103D9000F1F290FBF1F301FB130000EB40034A4307
:103DA000C3EBC0104B1E03EBC00090FBF1F01044BE
:103DB00070470000014800687047000018000020AC
:103DC000094810B50168491C0160FFF73BFF016C11
:103DD000491E016403D1C16B0164FFF7A1FFBDE877
:103DE000104000F003B80000180000202DE9FC414D
:103DF000CDF804D0CDF800D0FFF7DCFF0646FCF785
:103E0000E1F907461B4D2DE060696FF00041301A63
:103E1000143C884229D22046FEF7A8FA607A81072E
:103E200002D420F00100607204F114018846684653
:103E3000FFF795FCD4E907108847FFF7BBFF06465C
:103E40000098694688420DD04046FFF7A1FC607A91
:103E5000810707D5C10705D020F001006072204618
:103E600000F05AF82C68AC42CED13846FCF7AEF9D7
:103E7000BDE8FC816800002070B515460E4604467A
:103E8000FCF7A0F9052E17D2DFE806F00503080CB1
:103E90001100616A0FE0296861620DE0617A21F02A
:103EA000020102E0617A41F00201617204E0617A8C
:103EB000C90700D001212960FCF788F9002070BDF6
:103EC00070B50446FCF77EF905462046FEF74EFA2B
:103ED000607A20F0010060722846FCF777F92046EE
:103EE000FFF79DFC002070BD2DE9F0411746DDE98C
:103EF00006580A461E4604460A21FFF7B5FC28F07C
:103F0000010161720021C4E90951C4E90776143442
:103F100064602460BDE8F0812DE9F8430446FCF7B5
:103F200051F980462046FEF721FA607A20F0010020
:103F30006072FFF73FFF616A174A4318A3620020CF
:103F4000009202EBC002694656686FF000475DF8C8
:103F500020200AE01268A2EBC0056D699D4202D0E4
:103F6000ED1ABD4203D341F82020B242F2D10A48F3
:103F7000001F0168491C016004F114010098FFF75B
:103F8000EEFB607A40F0010060724046FCF71EF9DB
:103F90000020BDE8F88300006800002070B50446EA
:103FA000407AC0070ED0FCF70DF905462046FEF713
:103FB000DDF9607A20F0010060722846FCF706F90E
:103FC000002070BD4FF0FF3070BD00002DE9FF4FA5
:103FD0008946044600EB090783B080464FF0FF3A5C
:103FE0004FF0200BA74202D25746C8F1FF390BE130
:103FF000252803D0BC4200D2207080E0002605991D
:10400000491C059108782D2811D02B2812D0202882
:1040100013D0232814D0302815D00A785546303ACA
:104020000A2A13D205A800F030F905461AE046F036
:104030001006E4E746F00406E1E746F00806DEE78E
:1040400046F02006DBE746F00106D8E72A2809D12A
:104050000698491C059120C80690002D02DA6D4291
:1040600046F010060598D44601782E2918D1401C38
:1040700005900178A1F130020A2A04D205A800F0C7
:1040800004F9844607E02A2908D1401C05900698C7
:1040900050F804CB0690BCF1000F01DA4FF0000C91
:1040A000059A00201178682901D06C2902D1521C90
:1040B0000846059211780A236F2974D00CDC632915
:1040C0001FD004DC25296FD058290DD184E0642944
:1040D00001D0692908D183E0702966D073292CD0DA
:1040E00075297FD0782979D0BC4201D22520207053
:1040F0000598641C0178E9B3BC4200D22170641CAD
:104100007FE0F00608D458466D1E002D04DDBC4249
:1041100000D22070641CF7E70698BC4210F8041B1C
:10412000069000D22170584602E0BC4200D22070B6
:10413000641C6D1E002DF8DC63E0069802C8069032
:1041400001B941A1002000E0401CA84202D00A5C55
:10415000002AF9D1BCF1000F02DD604500DD6046A8
:10416000F2060BD45A462B466D1E834206DDBC4236
:1041700002D200E054E02270641CF4E7002206E062
:10418000BC4201D20B782370491C521C641C824231
:10419000F6DB5A4629466D1E814232DDBC4200D212
:1041A0002270641CF6E715E010E0681C02D10825B7
:1041B00046F00106CDE9005C06980296102304C87B
:1041C00006903946204619E00CE007E0BC4296D242
:1041D000252011E7082305E046F04006102301E002
:1041E00046F002066C2801D068281CD0069804C846
:1041F0000690CDE9005C394620460296FFF70AF8A2
:1042000004460598401C05900598007800287FF426
:10421000EFAEB9F1000F11D0BC420DD220700DE00D
:10422000401E0590EDE7069830F8041B06908AB210
:10423000B007DED512B2DCE707F8010C07B0A4EB3B
:104240000800BDE8F08F0000284E554C4C290000B6
:104250000020704700207047002070470020704702
:1042600010B5FBF7AFFFFFF7D1F8FFF7B7FBFFF78C
:1042700057FCFFF727FCFFF765F8FFF757FCFFF740
:1042800087FCFFF739FC002010BD10B50146002067
:104290006FF02F0307E0541C0C60127800EB8000D5
:1042A00003EB400010440A681478303C0A2CF2D327
:1042B00010BD00000B4810B5094901604FF4E13111
:1042C0004160002181600C22C160C0E9041281615B
:1042D000C161FDF797F9002800D0FEE710BD00008E
:1042E000001001405009002010B518A0FFF720FA77
:1042F0001A4C21881AA0FFF71BFA2088C00702D0A9
:104300001DA0FFF715FA2088800702D51DA0FFF732
:104310000FFA2088400702D51DA0FFF709FA208870
:10432000000702D51CA0FFF703FA2088C00502D5BC
:104330001BA0FFF7FDF92088800502D51BA0FFF721
:10434000F7F9BDE8104004A0FFF7F2B97573616793
:1043500065206661756C743A0A0000002AED00E081
:104360005343425F434653525F554653523A307867
:104370002530325820000000554E444546494E53E2
:1043800054522000494E56535441544520000000D9
:10439000494E5650432000004E4F4350200000002D
:1043A000554E414C49474E45442000004449564231
:1043B000595A45524F20000010B5FFF70FFB00205F
:1043C00010BD000000000000000001020304060709
:1043D00008090000000001020304000001000200BF
:1043E00001000300010002000100040001000200BE
:1043F00001000300010002000100050001000200AD
:10440000010003000100020001000400010002009D
:10441000010003000100020001000600010002008B
:10442000010003000100020001000400010002007D
:10443000010003000100020001000500010002006C
:10444000010003000100020001000400010002005D
:10445000010003000100020001000700010002004A
:10446000010003000100020001000400010002003D
:10447000010003000100020001000500010002002C
:10448000010003000100020001000400010002001D
:10449000010003000100020001000600010002000B
:1044A00001000300010002000100040001000200FD
:1044B00001000300010002000100050001000200EC
:1044C00001000300010002000100040001000200DD
:1044D00001000300010002000100303132333435A5
:1044E000363738396162636465660030313233349F
:1044F000353637383941424344454600252D2A2E6A
:104500007320707269202073746174757320202089
:1045100020202073702020202020737461636B2082
:1045200073697A65206D61782075736564206C65A8
:104530006674207469636B20206572726F720A0062
:1045400068656C6C6F007361792068656C6C6F20B6
:10455000776F726C640076657273696F6E00736852
:104560006F772052542D54687265616420766572AD
:1045700073696F6E20696E666F726D6174696F6EBC
:10458000005F5F636D645F76657273696F6E007361
:10459000686F772052542D54687265616420766587
:1045A0007273696F6E20696E666F726D6174696F88
:1045B0006E006C6973745F746872656164006C6925
:1045C000737420746872656164005F5F636D645F1B
:1045D0006C6973745F746872656164006C6973748C
:1045E00020746872656164006C6973745F73656DD3
:1045F000006C6973742073656D6170686F726520FB
:10460000696E2073797374656D005F5F636D645FBD
:104610006C6973745F73656D006C69737420736586
:104620006D6170686F726520696E2073797374654F
:104630006D006C6973745F74696D6572006C697389
:10464000742074696D657220696E20737973746566
:104650006D005F5F636D645F6C6973745F74696D37
:104660006572006C6973742074696D657220696E7F
:104670002073797374656D006C697374006C697371
:104680007420616C6C2073796D626F6C20696E2090
:1046900073797374656D005F5F636D645F68656CEB
:1046A000700052542D546872656164207368656CA3
:1046B0006C2068656C702E005F5F636D645F707363
:1046C000004C697374207468726561647320696E4C
:1046D000207468652073797374656D2E0000000086
:1046E0005D42000855420008B542000851420008EA
:1046F00005250008594200084045000846450008C5
:1047000081280008564500085E450008B9430008A6
:10471000814500088F450008B9430008B2450008EC
:10472000BE4500082D2B0008CA450008DC450008DE
:104730002D2B0008E8450008F1450008ED29000888
:104740000A46000819460008ED290008324600080C
:104750003D460008E52C0008524600086346000864
:10476000E52C0008784600087D460008FD28000872
:1047700097460008A2460008B1300008B846000875
:10478000C146000879240008A8470008000000205E
:1047900098000000302200084048000898000020DF
:1047A0007016000040220008000000000000000019
:1047B0000100000010000000000000000024F400D0
:1047C00000000000000000000100000024000020A4
:1047D00024000020780000000200000034000020C7
:1047E00034000020200000000A00000044000020E7
:1047F000440000202C000000000000000000000029
:1048000000000000000000000000000000000000A8
:104810000000000000000000000000000000000098
:104820000000000000000000000000000000000088
:104830000000000000000000000000000000000078
:040000050800018965
:00000001FF
