:020000040800F2
:10000000F80800208901000873240008D51F0008A3
:1000100071240008E7020008A92A00080000000077
:10002000000000000000000000000000772400082D
:100030002B03000800000000752400087924000844
:10004000A3010008A3010008A3010008A301000800
:10005000A3010008A3010008A3010008A3010008F0
:10006000A30100085303000859030008A301000876
:10007000A3010008A3010008E9020008F502000836
:10008000A3010008A3010008A3010008A3010008C0
:10009000A3010008A3010008A30100085F030008F2
:1000A000A3010008A3010008A3010008A3010008A0
:1000B000A3010008A3010008F9240008A301000817
:1000C000A3010008A3010008A3010008A301000880
:1000D000A3010008612A0008A3010008A301000889
:1000E0002D030008A3010008A301000800F002F896
:1000F00000F03AF80AA090E8000C82448344AAF188
:100100000107DA4501D100F02FF8AFF2090EBAE885
:100110000F0013F0010F18BFFB1A43F0010318473B
:10012000B82A0000D82A0000103A24BF78C878C145
:10013000FAD8520724BF30C830C144BF04680C60ED
:10014000704700000023002400250026103A28BF35
:1001500078C1FBD8520728BF30C148BF0B60704739
:100160001FB51FBD10B510BD00F058F81146FFF7C0
:10017000F7FF02F0ABFC00F076F803B4FFF7F2FFF4
:1001800003BC00F07DF8000009488047094800479B
:10019000FEE7FEE7FEE7FEE7FEE7FEE7FEE7FEE737
:1001A000FEE7FEE704480549054A064B7047000094
:1001B000F5240008ED000008F8020020F8080020EF
:1001C000F8040020F80400204FF0000200B51346A8
:1001D00094469646203922BFA0E80C50A0E80C5067
:1001E000B1F12001BFF4F7AF090728BFA0E80C5018
:1001F00048BF0CC05DF804EB890028BF40F8042B11
:1002000008BF704748BF20F8022B11F0804F18BF7D
:1002100000F8012B7047704770477047754600F033
:100220002BF8AE4605006946534620F00700854688
:1002300018B020B5FFF7B6FFBDE820404FF000062C
:100240004FF000074FF000084FF0000B21F00701BE
:10025000AC46ACE8C009ACE8C009ACE8C009ACE801
:10026000C0098D46704710B50446AFF300802046A4
:10027000BDE81040FFF781BF00487047940200209E
:1002800001491820ABBEFEE72600020070470000BF
:1002900070B5044600688168C943C90717D18168F1
:1002A00021F00101816000F077FC05460AE000BF03
:1002B00000F072FC401B022804D920688068C0430B
:1002C000C00706D020688068C043C007F0D0002077
:1002D00070BDA06A40F01000A062E06A40F001002A
:1002E000E062012070BDFEE7014800F0E5B90000C2
:1002F0000C020020014800F0DFB90000500200208D
:1003000030B590F840500124AC40C56B6C60046877
:1003100063604368102B036803D099600068C26073
:1003200030BD9A600068C16030BD704710B54FF4B1
:10033000805000F02BFB4FF4005000F027FB4FF4EF
:10034000804000F023FBBDE810404FF4004000F077
:100350001DBB082000F01ABB102000F017BB2020A6
:1003600000F014BB72B6FEE7F8B50024009490F8D4
:1003700024202546012A12D0012280F824204A6830
:100380001F23072A0DD20668776B521E02EB8202EA
:1003900093409F430B6893401F43776319E002200B
:1003A000F8BD06680D2A0AD2376BD21F02EB820213
:1003B00093409F430B6893401F43376309E0F76AFC
:1003C0000D3A02EB820293409F430B6893401F4318
:1003D000F7620A68072306680A2A0AD3F7680A3A06
:1003E00002EB420293409F438B6893401F43F760A8
:1003F00008E0376902EB420293409F438B689340C9
:100400001F4337610A68102A01D0112A20D1124BEC
:1004100002689A4217D193681B0219D4936843F477
:10042000000393600968102912D10C490C4A09682D
:10043000B1FBF2F101EB8101490000E0491E00919E
:100440000029FBD104E0816A41F02001816201248E
:1004500080F824502046F8BD002401401000002000
:1004600040420F002DE9F0414FF0000704003D46E7
:100470007ED0A06A002628B9E66284F8246020466F
:1004800000F07EF82046FFF703FFA16AC90600D4FA
:1004900020B1A06A40F01000A06269E0A16A21F4D6
:1004A000885141F00201A1626268E169237B0A433D
:1004B00047EA43010A43A1684FF48077B94209D063
:1004C000012907D05FF0000194F814C0BCF1010FBE
:1004D00002D00AE03946F7E7F3B1A36A43F02003FC
:1004E000A362E36A43F00103E3622368D3F804C024
:1004F0002CF4694C4CEA010CC3F804C021688B68E9
:10050000DFF870C003EA0C0313438B60A168B942A3
:100510000BD0012909D00CE0DFF85CC0A3690CEB1B
:1005200043330B4343F40061DFE7218A0D05A5F552
:1005300080152168CB6A23F470032B43CB622168BA
:1005400089680E4B1940914208D1E662A16A21F0F8
:10055000020141F00101A162BDE8F081A06A20F032
:10056000020040F01000A062E06A40F00100E0628A
:100570000120F1E7FDF7E1FF00E0FFFFFE0E1FFFA6
:1005800000B585B0002100910191029103910068AE
:100590000E49884218D10E48816941F40071816189
:1005A000816901F400710491816941F00401816164
:1005B0008069694600F00400049006200090032042
:1005C0000190044800F0EEF905B000BD00240140A0
:1005D000001002400008014010B590F821100022E0
:1005E000022905D00421816380F82020012010BD5C
:1005F00001680B6823F00E030B6001680B6823F0A1
:1006000001030B6090F84030C46B012101FA03F341
:10061000636080F8211080F82020104610BD000093
:1006200010B590F821100024022903D00421816321
:1006300001243DE001680A6822F00E020A600168A8
:100640000A6822F001020A601A4A0168914201D147
:10065000012121E0174A1432914201D110211BE0FF
:10066000144A2832914201D1891515E0114A3C32D1
:10067000914201D189140FE00E4A5032914202D1C9
:100680004FF4803108E00B4A6432914202D14FF4BA
:10069000801101E04FF08071064A083A5160012153
:1006A00080F82110002180F82010416B01B18847AB
:1006B000204610BD080002402DE9F05FC16B0C68B8
:1006C00001680B68D0F840C0042202FA0CF2494DD0
:1006D000DFF824A1494E4A4FDFF828B1DFF828E1BE
:1006E00022422CD05A072AD50A68920603D40A68F7
:1006F00022F004020A600168A94201D1042219E033
:10070000514501D1402215E0B14202D14FF480623F
:1007100010E0B94202D14FF480420BE0594502D1BA
:100720004FF4802206E0714502D14FF4800201E0CF
:100730004FF080622F4908394A60C16A3BE04FF0B0
:10074000020808FA0CF818EA040F4FF000094FF0FD
:10075000010235D05FEA837832D50B689B0605D459
:100760000B6823F00A030B6080F821200168A9427E
:1007700001D1022219E0514501D1202215E0B142F8
:1007800002D14FF4007210E0B94202D14FF400528E
:100790000BE0594502D14FF4003206E0714502D119
:1007A0004FF4001201E04FF00072124908394A601C
:1007B00080F82090816A00291AD0BDE8F05F0847D0
:1007C000082505FA0CF5254212D01B0710D50B6839
:1007D00023F00E030B6090F84010C36B02FA01F196
:1007E0005960826380F8212080F82090016BE2E755
:1007F000BDE8F09F080002401C00024030000240AB
:1008000044000240580002406C00024030B528B35A
:1008100008C8134914221944B1FBF2F18900C163DD
:1008200010498163022141771A6843F6F0718A43C7
:10083000D0E900142143D0E902452C432143046947
:1008400021434469214384692143114319600021F4
:100850004163012242770177084630BD012030BD57
:10086000F8FFFDBF0000024070B5044690F820007C
:10087000002501280CD0012084F8200094F8216084
:100880000020012E06D084F820000225284670BDE5
:10089000022070BD022684F82160A06320680668EB
:1008A00026F0010606602046FFF72AFDE06A0028D0
:1008B0002068016802D041F00E0106E021F0040139
:1008C00001602068016841F00A0101602068016848
:1008D00041F001010160D9E710B5294C0121024620
:1008E00028486170202A1FD00DDC082A2BD0102A3E
:1008F00025D1102100F046F90028207861781FD01A
:1009000040EA41001AE04FF480518A422BD0C900DE
:100910008A4214D11C4800F035F90028207861780B
:100920001ED040EAC10009E0082100F02BF90028A0
:100930002078617801D0084300E08843207010BD22
:1009400020EA4100FAE7082100F01CF9002820788D
:10095000617802D040EA8100F0E720EA8100EDE70B
:1009600020EAC100EAE700F00DF90028207861785C
:1009700002D040EA0110E1E720EA0110DEE70000C2
:1009800000000020000C014000080140044910B59F
:100990000A68024202D00860FFF79EFF10BD000007
:1009A000140401402DE9F84FDFF8B891002409F153
:1009B000040A0AF1040B23460F270BF1040EC9E0C9
:1009C0000125A5402A40AA427DD1674ED1F804C036
:1009D000ACEB0608B44532D014DCBCF1030F3AD0BE
:1009E00009DCBCF1000F2AD0BCF1010F1CD0BCF116
:1009F000020F31D11DE0BCF1110F17D0BCF1120F65
:100A00002AD119E0B8F5881F19D006DCB8F5803F67
:100A100015D0B8F5801F1FD111E0B8F5001F0ED01A
:100A2000B8F5041F18D10AE0CB6815E0CB681B1D90
:100A300012E0CB6808330FE0CB680C330CE08B6816
:100A40002BB1012B4FF0080303D0456104E00423D0
:100A500002E0056100E00023FF2A01D8064601E01C
:100A600000F104064FEA840501D9A5F12005D6F866
:100A7000008007FA05FC28EA0C0803FA05F548EAA5
:100A80000508C6F800804D68ED0062D5374DAE69A7
:100A900046F00106AE61AD6924F0030605F00105DC
:100AA0000095334D06EB050CDCF80850A607360F11
:100AB00007FA06F825EA0805DFF8B880404503D1B3
:100AC0004FF0000817E044E0DFF8AC80404502D169
:100AD0004FF001080FE0DFF8A480404502D14FF04D
:100AE000020808E0DFF89880404502D14FF0030883
:100AF00001E04FF0040808FA06F848EA0508CCF8C7
:100B000008804D68D9F80060ED034D4601D51643C5
:100B100000E096432E604D68DAF80060AD0355465C
:100B200001D5164300E096432E604D68DBF8006067
:100B3000ED025D4601D5164300E096432E604D68F8
:100B4000DEF80060AD02754601D5164300E096431D
:100B50002E60641C0D682A46E5407FF431AFBDE885
:100B6000F88F000000040140000011100010024046
:100B70000000014000080140000C0140001001404D
:100B8000001401408068084000D0012070470AB17D
:100B9000016170470904FBE7014880687047000065
:100BA0000400002070B5040025D094F83D00002515
:100BB00020B984F83C50204600F0B8F8242084F88E
:100BC0003D002068016821F0010101602068016892
:100BD00041F4004101602068016821F40041016096
:100BE00000F080FA4D4A6168914201D84C4900E01A
:100BF0004C49884201D2012070BD4B492368B0FBAB
:100C0000F1F15E6826F03F060E435E606368934232
:100C100006D94FF4967359434FF47A73B1FBF3F14D
:100C20002368491C1E6A26F03F0631431962616839
:100C3000914210D84900401EB0FBF1F2521CC2F3A1
:100C40000B02042A01D2042022E0B0FBF1F0401C88
:100C5000C0F30B001CE0A268F2B301EBC10303EB8D
:100C60000116431EB3FBF6F35B1C43F480431B05E4
:100C700049D092B301EBC10202EB0111401EB0FB5F
:100C8000F1F0401CC0F30B0040F4804040F4004001
:100C90002168CA694CF6FF739A431043C861D4E9CE
:100CA000071001432068026822F0C002114301606E
:100CB000D4E9030101432068826848F2FF339A4374
:100CC00011438160D4E9050108432168CA6822F014
:100CD000FF021043C86001E00EE016E020680168E2
:100CE00041F0010101602564202084F83D00256366
:100CF00084F83E50002070BD01EB4106431EB3FB5B
:100D0000F6F35B1CB3E70120C2E701EB4101401E93
:100D1000B0FBF1F0401CC0F30B00B7E7A086010068
:100D200080841E0000093D0040420F0010B586B0CF
:100D300000210091019102910391006813498842BA
:100D400022D1134CA06940F00800A061A069694657
:100D500000F0080004904FF44070009012200190C1
:100D6000032003900B48FFF71DFE0B48416841F03C
:100D7000E06141F002014160E06940F40010E0618F
:100D8000E06900F40010049006B010BD005400406B
:100D900000100240000C0140000001400248816840
:100DA000027811448160704704000020074810B5A4
:100DB000016841F010010160032000F075F80F2078
:100DC00000F006F800F024F8002010BD00200240DA
:100DD00070B50D4D04464FF47A712878B1FBF0F0F0
:100DE0000A490968B1FBF0F000F062FB48B9102C29
:100DF00007D200222146501E00F036F800206C6019
:100E000070BD012070BD0000040000201000002013
:100E10000C4808B5816941F001018161816901F0E7
:100E200001010091C16941F08051C161C06900F0C8
:100E3000805000900448416821F0E06141F0007169
:100E4000416008BD0010024000000140002809DB9D
:100E500000F01F02012191404009800000F1E020D4
:100E6000C0F8001170470000F0B40E4B1B680C4630
:100E7000C3F30223C3F10705042D00D90425191D6E
:100E8000072901D2002300E0DB1E012606FA05F146
:100E9000491E214099409E40761E16403143F0BCC9
:100EA00001F003BE0CED00E0064900F007020868FF
:100EB0004FF6FF03184040EA0220034A104308603F
:100EC000704700000CED00E00000FA052DE9F84342
:100ED00005460078354CC00754D0E0690026C000B4
:100EE00008D4E06940F08050E061E069012600F03C
:100EF000805000902E480168C90512D401688046D0
:100F000041F480710160FFF747FE074605E000BF2E
:100F1000FFF742FEC01B642823D8D8F80000C005A4
:100F2000F6D5206A10F4407021D0A98801F44071F0
:100F300081421CD0206A1F49012220F440700A60BF
:100F400000220A602062C00711D0FFF725FE074685
:100F500041F2883808E000BFFFF71EFEC11B414583
:100F600002D90320BDE8F883206A8007F4D5206AFF
:100F7000696820F44070084320621EB1E06920F0E7
:100F80008050E0612878800705D56068A96820F462
:100F90004040084360602878C00605D56068E9686D
:100FA00020F48000084360600020DBE7001002406E
:100FB00000700040400442422DE9F0470F46050012
:100FC00061D0434E306800F00700B84209D2306863
:100FD00020F0070038433060306800F00700B84266
:100FE00051D128683B4C810712D5400703D5606872
:100FF00040F4E06060602878000703D5606840F442
:10100000605060606068A96820F0F000084360608C
:101010002878C00728D06868012810D021680228E5
:1010200010D0890700292EDA616821F003010143FD
:101030006160FFF7B1FD804641F288390DE021681B
:101040008903EFE78901EDE7FFF7A6FDA0EB0801B3
:10105000494502D90320BDE8F0876068696800F05F
:101060000C00B0EB810FEFD1306800F00700B84200
:101070000BD9306820F0070038433060306800F04A
:101080000700B84201D00120E5E72878400705D5E0
:101090006068E96820F4E060084360602878000731
:1010A00006D56068296920F4605040EAC10060609C
:1010B00000F038F86168084AC1F30311515CC84078
:1010C0000649086006480068FFF782FE0020C2E774
:1010D0000020024000100240C02B00081000002039
:1010E000080000200448054900684968044AC1F323
:1010F0000221515CC84070471000002000100240DF
:10110000D02B00080448054900684968044AC1F327
:10111000C221515CC84070471000002000100240FE
:10112000D02B000812A185B00FC98DE80F0014A0C4
:10113000144A006804905168134801F00C03042B12
:1011400010D0082B0ED1C1F38343C9031DF803004F
:101150000AD5516804AAC1F34041515C0A4A504380
:10116000B0FBF1F005B0704708494843FAE70000CA
:1011700002030405060708090A0B0C0D0E0F1010D8
:10118000010200000010024000127A0000093D0038
:101190002DE9F84F040070D02078C04DC00749D029
:1011A0006868C0F38100012807D06868C0F3810037
:1011B000022809D16868C00306D52868800339D59C
:1011C00060680028E7D035E06068B0F5803F0BD05C
:1011D00010B1B0F5A02F11D0286820F4803028601D
:1011E000286820F4802002E0286840F480302860DD
:1011F000606890B1FFF7D0FC06460AE0286840F42A
:1012000080202860F0E700BFFFF7C6FC801B642841
:1012100073D828688003F7D50CE0FFF7BDFC0646BD
:1012200005E000BFFFF7B8FC801B6428F0D82868F1
:101230008003F7D420789A4E80074FF001094FF0D1
:10124000000839D5686810F00C0F07D06868C0F343
:101250008100022809D16868C00306D42868800785
:1012600014D52069012808D110E02069B0B1C6F872
:101270000090FFF791FC074605E00AE1FFF78CFCC0
:10128000C01B0228C4D828688007F7D52868616980
:1012900020F0F80040EAC10028600DE0C6F80080A8
:1012A000FFF77AFC074604E0FFF776FCC01B022834
:1012B00023D828688007F7D4207800072CD57948F0
:1012C000A169D9B1C0F80090FFF766FC074604E0B9
:1012D000FFF762FCC01B02280FD8686A8007F7D5A9
:1012E00071484FF4FA510068B0FBF1F0009000BF74
:1012F0000098411E0091FAD20EE080E0C0F8008014
:10130000FFF74AFC074604E0FFF746FCC01B022833
:1013100075D8686A8007F7D42078400760D5E869F7
:101320000027C00008D4E86940F08050E861E8690F
:10133000012700F0805000905C480168C90513D473
:101340000168834641F480710160FFF725FC824605
:1013500006E000BFFFF720FCA0EB0A0064284ED88F
:10136000DBF80000C005F5D5E06801280AD008B117
:10137000052813D0286A20F001002862286A20F08E
:10138000040002E0286A40F001002862E06841F2AF
:10139000883B98B1FFF700FC82460BE0286A40F0DA
:1013A00004002862EEE700BFFFF7F6FBA0EB0A019E
:1013B00059455AD8286A8007F6D50CE0FFF7ECFBB0
:1013C000824605E0FFF7E8FBA0EB0A0159454CD83F
:1013D000286A8007F6D41FB1E86920F08050E861E0
:1013E000E06988B36968C1F38101022944D0022809
:1013F000C6F8608004D0FFF7CFFB044638E034E045
:10140000FFF7CAFB074604E0FFF7C6FBC01B022834
:101410002BD828688001F7D4206AB0F5803F05D129
:101420006868A16820F4003008436860D4E90801C6
:101430000843696821F4741108436860C6F8609035
:10144000FFF7AAFB044606E025E000BFFFF7A4FB78
:10145000001B022809D828688001F7D51BE000BFCF
:10146000FFF79AFB001B022802D90320BDE8F88F82
:1014700028688001F4D40EE00128F7D06868226A59
:1014800000F48031914204D1616A00F47010884206
:1014900001D00120EAE70020E8E700000010024048
:1014A00000004242800442421000002000700040D0
:1014B00010B5401EB0F1807F01D3012010BD4FF068
:1014C000E02460610F21601701F0EFFA0020A061B5
:1014D00007202061002010BD7047704710B590F8BC
:1014E0003C20012A22D0012280F83C20CA688C6866
:1014F00022F4407222434C6822F4806222430C683A
:1015000022F4006222430C6922F4805222434C6987
:1015100022F400522243C969002322F480420A4384
:1015200001684A6480F83C30002010BD022010BDE4
:1015300070B590F83C20012A26D0012480F83C4068
:10154000022280F83D2003685A689D6822F07006E8
:101550000A6832435A600D4B02689A4208D0B2F1D1
:10156000804F05D00A4B9A4202D00A4B9A4204D1CE
:10157000496825F080031943916080F83D400021BF
:1015800080F83C10084670BD022070BD002C014060
:10159000000400400008004010B5040003D094F897
:1015A0003D0010B107E0012010BD002084F83C0090
:1015B000204600F01FF8022084F83D00211D20681D
:1015C00000F0A0FF012084F8460084F83E0084F873
:1015D0003F0084F8400084F8410084F8420084F819
:1015E000430084F8440084F8450084F83D0000205E
:1015F00010BD000008B500680B49884212D10B48A5
:10160000C16941F00401C161C069002200F0040019
:10161000009011461E20FFF727FCBDE808401E2061
:10162000FFF714BC08BD0000000800400010024095
:1016300070B5044690F83C00012817D0012584F8C5
:101640003C50022084F83D002068826822F0770236
:1016500022F47F4282600868502830D00DDC2028B8
:101660004DD005DC98B310283BD148E0022070BD76
:10167000302844D0402834D139E0602828D0702860
:1016800006D0B0F5805F2CD0B0F5005F29D10AE01C
:10169000CB68D1E90121206800F077FF20688168DC
:1016A00041F0770109E0CB68D1E90121206800F021
:1016B0006CFF2068816841F48041816011E0CA6854
:1016C0004968206801F016F85021206807E016E00C
:1016D000CA684968206801F01EF86021206800F09F
:1016E0005EFF84F83D50002084F83C0070BDCA685D
:1016F0004968206800F0FEFF40212068EFE722687B
:1017000001461046EBE7704770B504460068016972
:101710004FF00005C943890715D4C168C94389073B
:1017200011D4E91E016101202077206880698007BB
:10173000204602D0FFF7E7FF04E000F007F920465B
:1017400000F0C2F9257720680169C943490717D419
:10175000C168C943490713D46FF004010161022035
:1017600020772068806910F4407F204602D0FFF780
:10177000CAFF04E000F0EAF8204600F0A5F925775A
:1017800020680169C943090716D4C168C94309071C
:1017900012D46FF008010161042020772068C0692D
:1017A0008007204602D0FFF7AEFF04E000F0CEF83D
:1017B000204600F089F9257720680169C943C906E8
:1017C00017D4C168C943C90613D46FF01001016171
:1017D000082020772068C06910F4407F204602D09E
:1017E000FFF791FF04E000F0B1F8204600F06CF93B
:1017F000257720680169C943C90708D1C168C94371
:10180000C90704D1891E0161204600F0ADF92068A6
:101810000169C943090609D4C168C943090605D449
:101820006FF0800101612046FFF756FE20680169D4
:10183000C943490609D4C168C943490605D46FF0B4
:1018400040010161204600F090F920680169C94318
:1018500089060BD4C168C943890607D46FF02001FB
:1018600001612046BDE87040FFF737BE70BD000043
:1018700030B585B00021009101910291039100687B
:101880002C4B2D4902242D4A98420FD1886940F0F3
:10189000040088618869694600F0040004904FF4F0
:1018A0007060CDE900041046039424E0244DB0F1AB
:1018B000804F24D0234B98421FD1886940F0040008
:1018C0008861886900F004000490886940F008008D
:1018D00088618869694600F008000490C020CDE95D
:1018E000000410460394FFF75DF80320CDE90004DF
:1018F000694628460394FFF755F805B030BD88695E
:1019000040F0080088618869694600F0080004908A
:101910004FF44060CDE9000428460394FFF742F8F5
:101920000948416821F4407141F0E06141F40071DF
:101930004160E2E7002C0140001002400008014035
:10194000000C01400004004000000140704770B5E9
:10195000044690F83C000D4601280AD0012084F886
:101960003C0042B1042A18D0082A2AD00C2A4DD1B2
:1019700039E0022070BD206800F01AFE20688169FD
:1019800041F0080181612068816921F004018161D1
:10199000206881692A69114311E0206800F030FE57
:1019A0002068816941F4006181612068816921F4C6
:1019B00080618161206881692A6941EA022181612F
:1019C00024E0206800F048FE2068C16941F0080169
:1019D000C1612068C16921F00401C1612068C16949
:1019E0002A69114311E0206800F062FE2068C16995
:1019F00041F40061C1612068C16921F48061C16165
:101A00002068C1692A6941EA0221C161002084F885
:101A10003C0070BD10B5040003D094F83D0010B137
:101A200007E0012010BD002084F83C00204600F0B3
:101A30001FF8022084F83D00211D206800F062FD9F
:101A4000012084F8460084F83E0084F83F0084F8C2
:101A5000400084F8410084F8420084F8430084F890
:101A6000440084F8450084F83D00002010BD0000CB
:101A700008B5124A01681248914207D1816941F4C0
:101A800000618161806900F4006014E0B1F1804F71
:101A90000AD00C4A91420FD1C16941F00201C161E3
:101AA000C06900F0020006E0C16941F00101C161B6
:101AB000C06900F00100009008BD0000002C01404A
:101AC00000100240000400407047000010B50446BA
:101AD000022249B104290ED0082913D094F84100FC
:101AE000012816D0012010BD94F83E000128F9D13C
:101AF00084F83E200FE094F83F000128F2D184F8EA
:101B00003F2008E094F840000128EBD184F8402001
:101B100001E084F841200122206800F029FD0F49EE
:101B20002068884203D1426C42F40042426420683B
:101B3000884208D0B0F1804F05D00949884202D0D0
:101B40000849884204D1816801F00701062903D0C1
:101B5000016841F001010160002010BD002C01402E
:101B6000000400400008004070477047704710B5FF
:101B700004460068416994F83D20C1F3C011212A50
:101B80000BD151B1416921F080014161606B08B115
:101B9000FEF722FD204600F06BFE2068416994F8B4
:101BA0003E20C1F38011222A0BD151B1416921F0AD
:101BB00040014161A06B08B1FEF70EFD204600F028
:101BC0003FFE002010BD7047F8B50268044610685B
:101BD000D168536910F00F0F4FF0000553D003F098
:101BE000010601F4907737435FD0C20705D0CA05DC
:101BF00003D5226C42F001022264420705D5DA07C0
:101C000003D0226C42F002022264820705D5DA0773
:101C100003D0226C42F004022264020707D501F0CF
:101C20002002324303D0226C42F008022264226C6C
:101C3000002A34D0800604D5880602D5204600F05C
:101C400020FE20684069216CC0F38010090700D491
:101C500030B3204600F0F4FD2068416949061BD5E9
:101C6000416921F040014161A06BA8B1584941632D
:101C7000A06BFEF7D5FC002811D0A06B416B01B022
:101C8000BDE8F040084783060FD58B060DD52046EA
:101C9000BDE8F84000F0F5BD2046FFF794FFF8BD21
:101CA0002046FFF790FF2564F8BD266B2023012E08
:101CB00052D1C60650D5CE064ED510685068009059
:101CC000506940062AD5A16B086840680004000CE2
:101CD000EAD0A68D8642E7D9E0858869202818D009
:101CE000D06820F48070D0602068416921F0010143
:101CF00041612068416921F04001416184F83E3032
:101D000025632068C16821F01001C160A06BFEF757
:101D100063FCA08DE18D401A81B219E0A08DE18DA8
:101D2000401A81B2E08D0028BED00029BCD0D06816
:101D300020F49070D0602068426922F00102426174
:101D400084F83E3025632068C26822F01002C26029
:101D50002046FFF70BFFF8BD05062BD50D0629D54C
:101D600094F83D002128F6D1A068B0F5805F01D13C
:101D70002069B0B1206A411C216221680078486066
:101D8000E08C401E0004000CE084E4D12068C168AF
:101D900021F08001C1602068C16841F04001C1604C
:101DA000F8BD206A0088C0F308005060206A801CDB
:101DB0002062E5E74006F3D54806F1D5D168204614
:101DC00021F04001D16084F83D3000F001F9F8BD08
:101DD0003B27000870B5040004D094F83D000025AE
:101DE00010B106E0012070BD84F83C50204600F0A0
:101DF00023F8242084F83D002068C16821F40051B4
:101E0000C160204600F098FD2068016921F49041EE
:101E100001612068416921F02A0141612068C1689F
:101E200041F40051C1602564202084F83D0084F80D
:101E30003E00002070BD0000F0B585B000240646CD
:101E4000009401940294039400682F49884258D169
:101E50002E48816941F480418161816901F48041AA
:101E60000491816941F0080181618069284D00F089
:101E7000080004904020009002200190032003906D
:101E800069462846FEF78EFD8027CDE90074694635
:101E900028460294FEF786FD1E48416841F0E06145
:101EA00041F0040141601D4D1B4801C5102091C542
:101EB0001A4845F810496C61AC61EC61FEF7A6FC6C
:101EC00008B1FEF74FFA75636E62144D124844353F
:101ED0001430C5E90004C5E902472C616C61AC61AE
:101EE0002846EC61FEF792FC08B1FEF73BFAB563B9
:101EF0000022114625206E62FEF7B6FF2520FEF770
:101F0000A5FF05B0F0BD0000003801400010024000
:101F1000000C014000000140440002400C0200207F
:101F200090F83E30202B0ED159B152B190F83C3090
:101F3000012B08D0012380F83C300023036300F01C
:101F400057BD01207047022070477047704700005E
:101F500070B5044690F83D00202830D169B362B3D3
:101F600094F83C0001282AD0012084F83C0021622A
:101F7000A284E28400252564212084F83D00636B5F
:101F800010489862636B1048D862636B0F481863FF
:101F9000606B134645632668606B321DFEF764FC78
:101FA00021686FF04000086084F83C502068416967
:101FB00041F080014161002070BD012070BD022010
:101FC00070BD000009280008372800084B270008CA
:101FD00070477047FEE700003EB5002410480094AB
:101FE000019402940D498460016004730475012515
:101FF00005614FF460214460C161FEF733FA08B116
:10200000FEF7B0F90095CDE9015469460448FEF7A2
:10201000ABF9002801D0FEF7A5F93EBD0024014030
:10202000240000200D4808B5416941F001014161DB
:102030004069002200F00100009011460E20FEF7DA
:1020400013FF0E20FEF702FF002211460F20FEF7BD
:102050000BFFBDE808400F20FEF7F8BE001002405D
:102060002DE9F04786B000253F480095019502957F
:102070000395816941F020018161816901F02001AE
:102080000491816941F004018161816901F00401D9
:102090000491816941F0080181618069DFF8CCA079
:1020A00000F008004FF48058049001224146504649
:1020B000FEF76DFD3020CDE900050124694602944C
:1020C0005046FEF76FFC2A4E41F23800CDE900067B
:1020D000DFF8A090694602944846FEF763FC4FF48F
:1020E000C04000902448CDE9010469464846FEF707
:1020F00059FCE7030097CDE9015469464846FEF7CD
:1021000051FC0220CDE90250CDE9008469465046D9
:10211000FEF748FC0097CDE9016469465046FEF79A
:1021200041FC002211460920FEF79EFE0920FEF721
:102130008DFE002211460A20FEF796FE0A20FEF7C9
:1021400085FE002211461720FEF78EFE1720FEF7AF
:102150007DFE002211462820FEF786FE2820FEF78D
:1021600075FE06B0BDE8F08700100240000801408F
:1021700000003110000C0140000021100D4810B586
:102180000B4901600C49416000214FF4804281609D
:10219000C0E9031241618161C1610162FEF702FD84
:1021A000002803D0BDE81040FEF7DCB810BD0000E9
:1021B0000054004054000020A086010010B592B0E9
:1021C00000240F941C2168461094FDF7FDFF202188
:1021D00007A8FDF7F9FF2D482B49016040F2CF21F8
:1021E000C0E901146321C0E903148021C0E905415D
:1021F000FFF710FC08B1FEF7B5F80F940FA92348BC
:102200001094FFF795F908B1FEF7ACF86020CDE91E
:1022100000040294039404940594002269461B4828
:102220000694FFF794FB08B1FEF79CF80422694678
:102230001648FFF78CFB08B1FEF794F808226946B0
:102240001248FFF784FB08B1FEF78CF80C226946B0
:102250000E48FFF77CFB08B1FEF784F8079408945A
:1022600009944FF400500A94CDE90B4007A90748A0
:102270000E94FFF733F908B1FEF774F80348FFF73F
:10228000F7FA12B010BD0000002C0140A800002099
:1022900010B58AB0002407941C2168460894FDF705
:1022A00093FF1A484FF080410160C721C0E9011433
:1022B00041F61F41C0E9031480218161FFF7AAFBA9
:1022C00008B1FEF74FF8079407A910480894FFF7E4
:1022D0002FF908B1FEF746F86020CDE9000402941A
:1022E0000822694609480494FFF731FB08B1FEF75C
:1022F00039F80C2269460548FFF729FB08B1FEF7BB
:1023000031F80248FFF7B4FA0AB010BDF00000201F
:1023100010B58AB0002407941C2168460894FDF784
:1023200053FF23482149016040F2CF21C0E9011445
:102330006321C0E9031480218161FFF76BFB08B1C1
:10234000FEF710F8079407A919480894FFF7F0F86A
:1023500008B1FEF707F86020CDE9000402940022DE
:10236000694613480494FFF7F2FA08B1FDF7FAFF43
:10237000042269460E48FFF7EAFA08B1FDF7F2FFBA
:10238000082269460A48FFF7E2FA08B1FDF7EAFFBA
:102390000C2269460648FFF7DAFA08B1FDF7E2FFBA
:1023A0000348FFF765FA0AB010BD000000040040C2
:1023B0003801002010B586B000241848009401941C
:1023C00002940394049414490594016040F2CF21CF
:1023D000C0E9011440F2E731C0E9031480218161B2
:1023E000FFF7DAF808B1FDF7BDFF4FF48050009019
:1023F00069460A48FFF71CF908B1FDF7B3FF0494DA
:1024000004A906480594FFF793F8002801D0FDF7CA
:10241000A9FF06B010BD00000008004080010020A8
:1024200010B5114C0F480C2120604FF4E130606072
:102430000020A060E060C4E90401A061E0612046E2
:10244000FFF7C8FC08B1FDF78DFF2068C16841F0B7
:102450001001C160BDE81040102204490248FFF796
:102460005FBD000000380140C801002014000020BA
:10247000FEE7FEE770477047FEF790BC30B593B0BB
:1024800028216846FDF7A0FE14210AA8FDF79CFE4E
:10249000002501200F9510951195010412958DE8E6
:1024A000230004904FF4E010CDE9081002240794B3
:1024B0006846FEF76DFE08B172B6FEE70AA90F2066
:1024C00081E831004FF48060CDE90D0502210AA8B2
:1024D000FEF772FD08B172B6FEE74FF400401190AE
:1024E0000F940FA8FEF7F2FC002801D072B6FEE7A9
:1024F00013B030BD704700000148FFF705B9000078
:1025000080010020F0B50268164B174C174D4FF0B4
:102510008047984205D0B84203D0A04201D0A842DB
:1025200003D122F070064A683243984205D0B8427F
:1025300003D0A04201D0A84203D122F44074CA685B
:1025400022434C6922F08002224302608A68C26200
:102550000A688262984201D10969016301214161DF
:10256000F0BD0000002C01400004004000080040C5
:1025700010B501F01F030121046A99408C430462E5
:10258000016A9A401143016210BD10B5846842EAA5
:10259000032224F47F440A432243826010BD8268F0
:1025A00022F070020A4342F0070181607047000088
:1025B00030B5026A22F001020262026A436884694D
:1025C00024F073050C682C4322F002058A682A4324
:1025D0000A4DA8420BD122F00805CA6823F44073C3
:1025E0002A434D6922F004021D438B692B4343604B
:1025F000846149684163026230BD0000002C0140E3
:1026000030B5026A22F010020262026A43688469ED
:102610000D6824F4E64444EA05248D6822F0200283
:1026200042EA05120B4DA8420ED1CD6822F080027D
:1026300042EA05124D6923F4406343EA85038D693C
:1026400022F0400243EA8503436084614968816364
:10265000026230BD002C014030B5026A22F4807263
:102660000262036A4268C46923F4007324F07305AC
:102670000C682C438D6843EA05230C4DA8420ED10B
:10268000CD6823F4006343EA05234D6922F44052E8
:1026900042EA05128D6923F4806342EA0512426022
:1026A000C4614968C163036230BD0000002C014071
:1026B00030B5026A22F480520262046A4268C36939
:1026C0000D6823F4E64343EA05238D6824F400549F
:1026D00044EA0534064DA84204D14D6922F48042F3
:1026E00042EA85124260C36149680164046230BDF8
:1026F000002C014010B5036A046A24F0010404624E
:10270000846924F0F00444EA021423F00A020A4324
:102710008461026210BD10B5036A23F010030362E6
:102720008369046A23F4704343EA023224F0A0036D
:1027300043EA01118261016210BD10B5406A0021B7
:10274000C185C184FFF73FFA10BD70B5446A2068A7
:10275000406994F83D10C0F3C0100025212904D130
:1027600018B1E584204600F083F82068406994F8A9
:102770003E10C0F38010222904D118B1E58520460F
:1027800000F05EF8206C40F0100020642046FFF757
:102790001AFA70BD10B50146406A096809688906D1
:1027A0001BD40021C1850168CA6822F48072CA6006
:1027B00001684A6922F001024A6101684A6922F00F
:1027C00040024A61202180F83E10016B012904D1AA
:1027D0000168CA6822F01002CA60016B012902D0A8
:1027E000FFF7B3FB10BD818DFFF7C0F910BD10B529
:1027F000406A016B012902D0FFF7A8FB10BD818D53
:102800004908FFF7B3F910BD10B50146406A0968E1
:10281000096889060CD40021C18401684A6922F044
:1028200080024A610068C16841F04001C16010BD8A
:10283000FFF7CEFB10BD10B5406AFFF7CAFB10BD15
:102840000168CA6822F49072CA6001684A6922F07D
:1028500001024A61016B012904D10168CA6822F0B2
:102860001002CA60202180F83E10002101637047E9
:102870000168CA6822F0C002CA60202180F83D10B9
:10288000704708B590F83E10222901D0022008BDFB
:1028900082684FF480539A4201D1016921B1816A63
:1028A0009A421BD04AB10AE00268816A5268C2F3B8
:1028B00008020A80816A891C08E0026972B1026814
:1028C000526802F07F020A70816A491C8162C18DE0
:1028D000491E0904090CC18503D019E00268526839
:1028E000F1E70168CA6822F02002CA600168CA687C
:1028F00022F48072CA6001684A6922F001024A61CA
:10290000202180F83E10016B012903D0FFF71DFB49
:10291000002008BD002101630168CA6822F010028E
:10292000CA6001680A68D20602D50A68496800913F
:10293000818DFFF71BF9EBE770B50446006801696C
:10294000E26821F44051114301612169A068084304
:10295000616908432168CA6841F20C639A430243E3
:10296000CA6020684169A26921F440711143416144
:102970001E492068884202D1FEF7C4FB01E0FEF741
:10298000B1FB00EBC00101EB001260686421800024
:10299000B2FBF0F3B3FBF1F36FF018067343B2FB35
:1029A000F0F5B2FBF0F605EB8305322303EB0515DA
:1029B000B5FBF1F5B6FBF1F605F0F00505EB0615F4
:1029C000B2FBF0F6B2FBF0F0B0FBF1F06FF01802E2
:1029D000504306EB800003EB0010B0FBF1F02168E0
:1029E00000F00F002844886070BD000000380140EE
:1029F00038B581628285002513460446056422208D
:102A000084F83E00A26B13489062A26B1248D06219
:102A1000A26B12481063A06B0A4645632168A06B45
:102A2000091DFDF721FF206801684168009184F8C5
:102A30003C50C16841F48071C1602068416941F037
:102A4000010141612068416941F04001416100207C
:102A500038BD000095270008EF2700084B27000825
:102A60000D4808B500680168C1F3001179B101682B
:102A7000406800900848FFF77AF808480068406806
:102A80000749C0F110000870064901200870BDE830
:102A900008400148FFF798B8C80100205002002004
:102AA0000200002003000020FEE70907090E0028AD
:102AB00004DB00F1E02080F80014704700F00F0004
:102AC00000F1E02080F8141D70470000FEF76EF959
:102AD000FFF7D4FCFFF7C4FAFFF77EFAFFF74EFBCF
:102AE000FFF76CFBFFF7D4FBFFF712FCFFF79AFA36
:102AF000FFF760FCFFF794FC00212B48FEF7E6FF90
:102B000004212948FEF7E2FF08212748FEF7DEFFEF
:102B10000C212548FEF7DAFF244F234D244C0026D4
:102B2000F87801280ED1BA7821492248FFF710FA27
:102B3000BE70FE70002002E02654401CC0B2B9787E
:102B40008842F9D310221A491A48FFF7E9F9207888
:102B50002968652803D248632868866303E04E63CA
:102B600029686438886360782968652803D2C86357
:102B70002868066403E0CE632968643808640E4858
:102B8000A178026851630268E17891630268217953
:102B9000D1630068617901640848A1790268D16352
:102BA0000068E1790164BBE7A80000200000002074
:102BB00014000020C801002038010020F00000208F
:102BC00000000000000000000102030406070809DD
:102BD0000000000001020304F82B000800000020A0
:102BE00014000000280100080C2C0008140000202C
:102BF000E40800004401000800000000010000009B
:0C2C000010000000000000000024F400A0
:04000005080000ED02
:00000001FF
