:020000040800F2
:1000000020070020890100089B14000865100008E3
:10001000991400088F0200083D1600080000000037
:1000200000000000000000000000000007150008AC
:10003000910200080000000005150008D91500080D
:10004000A3010008A3010008A3010008A301000800
:10005000A3010008A3010008A3010008A3010008F0
:10006000A3010008A3010008A3010008A3010008E0
:10007000A3010008A3010008A3010008A3010008D0
:10008000A3010008A3010008A3010008A3010008C0
:10009000A3010008A3010008A3010008A3010008B0
:1000A000A3010008A3010008A3010008A3010008A0
:1000B000A3010008A3010008A3010008A301000890
:1000C000A3010008A3010008A3010008A301000880
:1000D000A3010008A3010008A3010008A301000870
:1000E000A3010008A3010008A301000800F002F822
:1000F00000F03AF80AA090E8000C82448344AAF188
:100100000107DA4501D100F02FF8AFF2090EBAE885
:100110000F0013F0010F18BFFB1A43F0010318473B
:10012000F022000010230000103A24BF78C878C1E4
:10013000FAD8520724BF30C830C144BF04680C60ED
:10014000704700000023002400250026103A28BF35
:1001500078C1FBD8520728BF30C148BF0B60704739
:100160001FB51FBD10B510BD00F058F81146FFF7C0
:10017000F7FF01F0E3FA00F076F803B4FFF7F2FFBF
:1001800003BC00F07DF8000009488047094800479B
:10019000FEE7FEE7FEE7FEE7FEE7FEE7FEE7FEE737
:1001A000FEE7FEE704480549054A064B7047000094
:1001B0003B160008ED000008200100202007002069
:1001C00020030020200300204FF0000200B513465A
:1001D00094469646203922BFA0E80C50A0E80C5067
:1001E000B1F12001BFF4F7AF090728BFA0E80C5018
:1001F00048BF0CC05DF804EB890028BF40F8042B11
:1002000008BF704748BF20F8022B11F0804F18BF7D
:1002100000F8012B7047704770477047754600F033
:100220002BF8AE4605006946534620F00700854688
:1002300018B020B5FFF7B6FFBDE820404FF000062C
:100240004FF000074FF000084FF0000B21F00701BE
:10025000AC46ACE8C009ACE8C009ACE8C009ACE801
:10026000C0098D46704710B50446AFF300802046A4
:10027000BDE81040FFF781BF00487047BC00002078
:1002800001491820ABBEFEE7260002007047FEE7DA
:100290007047000070B5044600F00CF90546601C7C
:1002A00002D004480078044400F004F9401BA04246
:1002B000FAD370BD040000202DE9F84FDFF8B891A3
:1002C000002409F1040A0AF1040B23460F270BF15D
:1002D000040EC9E00125A5402A40AA427DD1674EFF
:1002E000D1F804C0ACEB0608B44532D014DCBCF144
:1002F000030F3AD009DCBCF1000F2AD0BCF1010F8A
:100300001CD0BCF1020F31D11DE0BCF1110F17D090
:10031000BCF1120F2AD119E0B8F5881F19D006DCFC
:10032000B8F5803F15D0B8F5801F1FD111E0B8F5A2
:10033000001F0ED0B8F5041F18D10AE0CB6815E0F5
:10034000CB681B1D12E0CB6808330FE0CB680C3381
:100350000CE08B682BB1012B4FF0080303D04561F3
:1003600004E0042302E0056100E00023FF2A01D835
:10037000064601E000F104064FEA840501D9A5F123
:100380002005D6F8008007FA05FC28EA0C0803FAD5
:1003900005F548EA0508C6F800804D68ED0062D50D
:1003A000374DAE6946F00106AE61AD6924F0030633
:1003B00005F001050095334D06EB050CDCF80850FF
:1003C000A607360F07FA06F825EA0805DFF8B88011
:1003D000404503D14FF0000817E044E0DFF8AC805F
:1003E000404502D14FF001080FE0DFF8A4804045FE
:1003F00002D14FF0020808E0DFF89880404502D1B2
:100400004FF0030801E04FF0040808FA06F848EA44
:100410000508CCF808804D68D9F80060ED034D461A
:1004200001D5164300E096432E604D68DAF800606F
:10043000AD03554601D5164300E096432E604D6846
:10044000DBF80060ED025D4601D5164300E09643FF
:100450002E604D68DEF80060AD02754601D516438A
:1004600000E096432E60641C0D682A46E5407FF448
:1004700031AFBDE8F88F000000040140000011100A
:10048000001002400000014000080140000C014043
:100490000010014000140140C26821EA02030A4032
:1004A00043EA0241016170470AB1016170470904E2
:1004B000FBE700000148806870470000040000204E
:1004C00070B5040025D094F83D00002520B984F8CB
:1004D0003C50204600F070FA242084F83D0020684B
:1004E000016821F0010101602068016841F40041C8
:1004F00001602068016821F40041016000F0C8FB40
:100500004D4A6168914201D84C4900E04C4988420B
:1005100001D2012070BD4B492368B0FBF1F15E6848
:1005200026F03F060E435E606368934206D94FF49F
:10053000967359434FF47A73B1FBF3F12368491C66
:100540001E6A26F03F06314319626168914210D855
:100550004900401EB0FBF1F2521CC2F30B02042A08
:1005600001D2042022E0B0FBF1F0401CC0F30B00EC
:100570001CE0A268F2B301EBC10303EB0116431EBA
:10058000B3FBF6F35B1C43F480431B0549D092B3E5
:1005900001EBC10202EB0111401EB0FBF1F0401C67
:1005A000C0F30B0040F4804040F400402168CA6969
:1005B0004CF6FF739A431043C861D4E90710014316
:1005C0002068026822F0C00211430160D4E90301EF
:1005D00001432068826848F2FF339A4311438160E7
:1005E000D4E9050108432168CA6822F0FF021043DC
:1005F000C86001E00EE016E02068016841F00101EA
:1006000001602564202084F83D00256384F83E5075
:10061000002070BD01EB4106431EB3FBF6F35B1CEB
:10062000B3E70120C2E701EB4101401EB0FBF1F04E
:10063000401CC0F30B00B7E7A086010080841E00B9
:1006400000093D0040420F002DE9F84F0025DDF87C
:100650002890984617468A4604460095FFF72AFFD9
:10066000064694F83D0020287AD1192301228349B7
:100670002046009600F0F8FD0028F5D194F83C00E3
:1006800001286DD0012084F83C0020680168C9076A
:1006900003D1016841F0010101602068016821F483
:1006A00000610160222084F83D00102084F83E00A3
:1006B00025646762A4F82A80608D20857048E06216
:1006C00033464A465146204600F0E4FC00287DD1DE
:1006D000208DDFF8B081202768B1012814D00228CE
:1006E000206801681ED041F4806101602068416982
:1006F00080690090B5E020684169816900910168D6
:1007000041F400710160ACE02068016821F480616F
:10071000016072B62068416981690091016841F405
:1007200000710AE041F40061016072B6206841691D
:1007300081690091016821F48061016062B690E0F6
:10074000032868D801280CD002284B464FF000023D
:100750004146204600960FD000F086FDB0BB10E069
:100760008AE032464946204600F0FDFD70BB206815
:100770000069616A08706BE000F076FD30BB72B60C
:1007800034E02068016821F48061016072B620685D
:100790000069616A0870606A401C6062208D401EBA
:1007A0002085608D401E6085374846F2A81100689C
:1007B000B0FBF1F0C0EBC00000EB80000090401EE9
:1007C000009008D020684069C04300E029E040075D
:1007D0000CD50098F3E744F8305F6773A573206980
:1007E00040F02000206162B625731AE0206801689D
:1007F00041F40071016020680069616A0870606AF4
:10080000401C6062218D491E2185618D491E6185D4
:1008100062B621681AE032464946204600F0A3FD40
:1008200010B10120BDE8F88F20680069616A087086
:10083000606A401C6062218D491E2185618D491EC0
:10084000618521684A69D24352070AD40969017057
:10085000606A401C6062208D401E2085608D401EB5
:100860006085208D00287FF46BAF84F83D7084F89C
:100870003E5084F83C50D5E70220D3E70200100038
:100880000000FFFF04000100100000202DE9F84FD8
:100890001F4690468A460446DDF82890FFF70AFE78
:1008A000054694F83D0020287FD1192301224049B4
:1008B0002046009500F0D8FC002876D194F83C0042
:1008C000012872D0012084F83C0020680168C90723
:1008D00003D1016841F0010101602068016821F441
:1008E00000610160212084F83D00102084F83E0062
:1008F00000262664C4F824806785608D20852D48F5
:10090000E0622B464A465146204600F039FC90B939
:10091000206841698069009036E02A4649462046B1
:1009200000F054FD50B1206C042804D12068016807
:1009300041F4007101600120BDE8F88F606A216810
:1009400000780861606A401C6062618D491E6185A3
:10095000218D491E89B2218522685369DB435B07DB
:100960000BD451B100781061606A401C6062608DE8
:10097000401E6085208D401E20852A46494620461F
:1009800000F04CFC0028CED1208D0028C5D154F8B1
:100990003D0B016841F400710160202004F81E093C
:1009A000E67766770020C7E7FFE70220C4E700008C
:1009B000020010000000FFFF30B585B0002100915B
:1009C0000191029103911E4D03681E4C12210322D6
:1009D0001D48AB4216D1A36943F00803A361A36984
:1009E000039203F008030493C023CDE90031694664
:1009F000FFF762FCE06940F40010E061E06900F498
:100A0000001019E0114DAB4217D1A36943F0080360
:100A1000A361A369039203F0080304934FF44063B6
:100A2000CDE900316946FFF747FCE06940F48000FA
:100A3000E061E06900F48000049005B030BD000082
:100A40000054004000100240000C014000580040DB
:100A500002488168027811448160704704000020D8
:100A6000074810B5016841F010010160032000F053
:100A700067F80F2000F006F800F024F8002010BD01
:100A80000020024070B50D4D04464FF47A7128786D
:100A9000B1FBF0F00A490968B1FBF0F000F0CEFAC2
:100AA00048B9102C07D200222146501E00F028F829
:100AB00000206C6070BD012070BD000004000020AB
:100AC000100000200C4808B5816941F001018161E6
:100AD000816901F001010091C16941F08051C1615A
:100AE000C06900F0805000900448416821F0E06146
:100AF00041F00071416008BD00100240000001405B
:100B0000F0B40E4B1B680C46C3F30223C3F1070578
:100B1000042D00D90425191D072901D2002300E066
:100B2000DB1E012606FA05F1491E214099409E4030
:100B3000761E16403143F0BC00F081BD0CED00E0A4
:100B4000064900F0070208684FF6FF03184040EA24
:100B50000220034A10430860704700000CED00E0DB
:100B60000000FA052DE9F0470F46050061D0434E1D
:100B7000306800F00700B84209D2306820F0070062
:100B800038433060306800F00700B84251D128681F
:100B90003B4C810712D5400703D5606840F4E06004
:100BA00060602878000703D5606840F4605060609A
:100BB0006068A96820F0F000084360602878C007EA
:100BC00028D06868012810D02168022810D0890731
:100BD00000292EDA616821F0030101436160FFF70B
:100BE00069FC804641F288390DE021688903EFE70E
:100BF0008901EDE7FFF75EFCA0EB0801494502D94A
:100C00000320BDE8F0876068696800F00C00B0EB75
:100C1000810FEFD1306800F00700B8420BD930687F
:100C200020F0070038433060306800F00700B84219
:100C300001D00120E5E72878400705D56068E9681C
:100C400020F4E060084360602878000706D56068FB
:100C5000296920F4605040EAC100606000F028F883
:100C60006168084AC1F30311515CC8400649086035
:100C700006480068FFF706FF0020C2E70020024098
:100C800000100240F6230008100000200800002099
:100C90000448054900684968044AC1F30221515CCF
:100CA000C8407047100000200010024006240008D1
:100CB00012A185B00FC98DE80F0014A0144A006876
:100CC00004905168134801F00C03042B10D0082B3A
:100CD0000ED1C1F38343C9031DF803000AD551683F
:100CE00004AAC1F34041515C0A4A5043B0FBF1F001
:100CF00005B0704708494843FAE7000002030405BD
:100D0000060708090A0B0C0D0E0F10100102000057
:100D10000010024000127A0000093D002DE9F84F52
:100D2000040070D02078C04DC00749D06868C0F377
:100D30008100012807D06868C0F38100022809D12A
:100D40006868C00306D52868800339D56068002824
:100D5000E7D035E06068B0F5803F0BD010B1B0F55A
:100D6000A02F11D0286820F480302860286820F453
:100D7000802002E0286840F480302860606890B1EC
:100D8000FFF798FB06460AE0286840F480202860B8
:100D9000F0E700BFFFF78EFB801B642873D828683C
:100DA0008003F7D50CE0FFF785FB064605E000BFA2
:100DB000FFF780FB801B6428F0D828688003F7D4F5
:100DC00020789A4E80074FF001094FF0000839D57E
:100DD000686810F00C0F07D06868C0F38100022823
:100DE00009D16868C00306D42868800714D5206933
:100DF000012808D110E02069B0B1C6F80090FFF7D3
:100E000059FB074605E00AE1FFF754FBC01B022827
:100E1000C4D828688007F7D52868616920F0F800F1
:100E200040EAC10028600DE0C6F80080FFF742FBF1
:100E3000074604E0FFF73EFBC01B022823D82868C2
:100E40008007F7D4207800072CD57948A169D9B15B
:100E5000C0F80090FFF72EFB074604E0FFF72AFBDF
:100E6000C01B02280FD8686A8007F7D571484FF475
:100E7000FA510068B0FBF1F0009000BF0098411EED
:100E80000091FAD20EE080E0C0F80080FFF712FB7C
:100E9000074604E0FFF70EFBC01B022875D8686AFE
:100EA0008007F7D42078400760D5E8690027C000A4
:100EB00008D4E86940F08050E861E869012700F053
:100EC000805000905C480168C90513D401688346CE
:100ED00041F480710160FFF7EDFA824606E000BF41
:100EE000FFF7E8FAA0EB0A0064284ED8DBF8000010
:100EF000C005F5D5E06801280AD008B1052813D04F
:100F0000286A20F001002862286A20F0040002E02C
:100F1000286A40F001002862E06841F2883B98B1FD
:100F2000FFF7C8FA82460BE0286A40F00400286206
:100F3000EEE700BFFFF7BEFAA0EB0A0159455AD809
:100F4000286A8007F6D50CE0FFF7B4FA824605E080
:100F5000FFF7B0FAA0EB0A0159454CD8286A800780
:100F6000F6D41FB1E86920F08050E861E06988B3E9
:100F70006968C1F38101022944D00228C6F8608063
:100F800004D0FFF797FA044638E034E0FFF792FA0E
:100F9000074604E0FFF78EFAC01B02282BD828680A
:100FA0008001F7D4206AB0F5803F05D16868A16858
:100FB00020F4003008436860D4E9080108436968F8
:100FC00021F4741108436860C6F86090FFF772FA64
:100FD000044606E025E000BFFFF76CFA001B02287C
:100FE00009D828688001F7D51BE000BFFFF762FA37
:100FF000001B022802D90320BDE8F88F2868800171
:10100000F4D40EE00128F7D06868226A00F4803139
:10101000914204D1616A00F47010884201D001202D
:10102000EAE70020E8E7000000100240000042422A
:1010300080044242100000200070004010B5401EA5
:10104000B0F1807F01D3012010BD4FF0E02460613A
:101050000F21601700F0F3FA0020A0610720206143
:10106000002010BDFEE701684A69D24352050FD443
:101070006FF480624A61002140F8301F20224273E1
:101080008173026942F0040202610173012070471A
:10109000002070472DE9F84F0446C06A1E4693466B
:1010A0000D4621680A6842F480620A60082807D069
:1010B000012805D010F5803F02D0206B112804D103
:1010C0002068016841F4807101604FF001195B46AE
:1010D000002249462046009600F0C6F84FF40078FA
:1010E00040B120680068C00501D5C4F840800320E5
:1010F000BDE8F88F2069DFF884A0B0F5804F0FD0ED
:101100000620216800EAD51747F0F0000861334651
:101110005A460AF10601204600F0DAF858BB03E00F
:10112000E8B240F001001CE02168E8B208613346F3
:101130005A465146204600F0CBF8E0B92068416994
:1011400081690091016841F4807101605B46002271
:1011500049462046009600F087F80028C1D147F0A4
:10116000F1002168086133465A465146204600F096
:10117000AFF80028BCD00120BAE70000020001004F
:10118000F8B50446C06A1E460D461746082807D023
:10119000012805D010F5803F02D0206B122804D121
:1011A0002068016841F480710160134600224FF00D
:1011B00001112046009600F057F840B12068006801
:1011C000C00502D54FF4007020640320F8BD2069EB
:1011D000B0F5804F0ED00620216800EAD51040F00F
:1011E000F000086133463A460B49204600F070F89B
:1011F00078B902E005F0FE0000E0E8B2216808617D
:10120000054933463A46891F204600F061F8002818
:10121000DCD00120F8BD00000800010070B51646C2
:101220000D4604460DE02046FFF71DFF08B10120E2
:1012300070BD681C05D0FFF73DF9801BA84207D898
:1012400035B120684069C0434007ECD4002070BD30
:10125000002044F8300F20216173A073216941F010
:10126000200121612073E2E72DE9F0471E469046F8
:101270000D460446C1F30747DDF8209008E0701CD6
:1012800006D0FFF717F9A0EB0900B0420FD876B1EE
:101290002068012F18D0806925EA00000004000CA6
:1012A00014D000214145EAD00020BDE8F08700209D
:1012B00044F8300F20216173A073216941F02001AF
:1012C000216120730120F0E74069E5E70121E9E7AA
:1012D0002DE9F0479A4691460E46044600254FF008
:1012E0002008C1F3074725E020684069C043400556
:1012F00014D42068016841F40071016021686FF422
:1013000080604861256384F83D8084F83E50206CFD
:1013100040F00400206484F83C501FE0B9F1FF3F26
:1013200008D0FFF7C7F8A0EB0A0149450CD8B9F17E
:10133000000F09D02068012F13D0806926EA000031
:101340000004000C0BD0CFE744F8305F84F80D8028
:10135000A573206940F02000206125730120BDE8BD
:10136000F0874069EAE72DE9F041002590460E46F6
:101370000446202717E04069C043C0060CD454F847
:10138000301B6FF01000486144F810596777A5775B
:10139000206A2062257717E0FFF78CF8A0EB0800A1
:1013A000B04208D83EB120684169C9434906E2D439
:1013B0000020BDE8F08144F8305F6773A5732069B1
:1013C00040F02000206125730120F2E770B5164639
:1013D0000D4604460DE02046FFF745FE08B101200A
:1013E00070BD681C05D0FFF765F8801BA84207D8C0
:1013F00035B120684069C0430006ECD4002070BDC0
:10140000002044F8300F20216173A073216941F05E
:10141000200121612073E2E770B586B000241C48EA
:101420000094019402940394816941F01001816158
:10143000816901F010010491816941F0200181610D
:10144000816901F020010491816941F00801816105
:10145000816901F008010491816941F00401816111
:1014600080690C4E00F004004FF4005504900022F7
:1014700029463046FFF718F801200095CDE9010410
:101480000220039069463046FEF716FF06B070BD95
:101490000010024000100140FEE7FEE7024908602C
:1014A0000021084600F01CB8000000203EB50B4D9E
:1014B00042F210748DF804000094012301AA402127
:1014C0002868FFF7E3F90094012302AA4021286865
:1014D000FFF7BAF89DF808003EBD000000000020AC
:1014E0001CB502238DF8040042F2107000900448ED
:1014F0008DF8051001AA40210068FFF7C7F91CBD4F
:10150000000000207047704770B5044606200E4664
:1015100000EB84001546C9B2C0B2FFF7E1FF072017
:1015200000EB8400C0B2C6F30721FFF7D9FF082003
:1015300000EB8400E9B2C0B2FFF7D2FF092000EB54
:101540008400C5F30721BDE87040C0B2FFF7C8BFF3
:1015500070B500F0C9FC1C4A1C4B00F09BFA00F06F
:1015600049F904461A486FF00B0100F006FF2146C6
:1015700000F04EFD4FF07E5100F058FE00F0B4FC3C
:101580000022144B00F068F900F06AF800F018FA35
:1015900005460020FFF78AFF044600F07F0040F078
:1015A00010010020FFF79CFFE9B2FE20FFF798FF33
:1015B00021460020FFF794FF44F0A101BDE87040F0
:1015C0000020FFF78DBF0000713D0AD7A370ED3FEB
:1015D00020BCBE4B0000E03FFFF73ABA30B58FB0F9
:1015E00028216846FEF7F0FD14210AA8FEF7ECFD5D
:1015F00001210804CDE90010002402940225049181
:10160000CDE907504FF4E01009906846FFF786FBDC
:1016100008B172B6FEE70F20CDE90A054FF48060ED
:10162000CDE90C4002210AA80E94FFF79BFA00288E
:1016300001D072B6FEE70FB030BD7047FEE7090774
:10164000090E002804DB00F1E02080F80014704748
:1016500000F00F0000F1E02080F8141D704700003A
:101660002DE9F041C1F30A52A2F2FF362F4A304B66
:101670000D460446142E2FDA002E12DA00F0ECF894
:101680000022134600F004FB4CD2002DA4BF00241E
:10169000254647DA25F00040204318BF254D41D0AC
:1016A00018E0DFF894C02CFA06F705EA070C5CEAAC
:1016B000040C08BFBDE8F08100F0CEF8002213460C
:1016C00000F0E6FA2ED2002D03DA4FF48010F0403D
:1016D0000544BD43002425E0332EC8BFBDE8F0819A
:1016E000A6F1140C4FF0FF3727FA0CF73C4208BF65
:1016F000BDE8F08100F002FB0022134600F0C8FABA
:1017000010D2002D0DDA142E08BF6D1C09D0C6F1C1
:101710003400012101FA00F02044A04238BF6D1CC2
:101720000446BC4329462046BDE8F0819C750088EC
:101730003CE4377E0000F0BFFFFF0F00FFF790F999
:10174000FFF74CFFFFF768FE25482449254D00248C
:101750000160C0E901540E14C0E90346446184618C
:10176000C4610462FEF7ACFE08B172B6FEE71C4825
:101770001D4954300160C0E90154C0E90346446189
:101780008461C4610462FEF79BFE08B172B6FEE795
:101790001348FFF783FE1548FFF7DAFE4FF4FA64AB
:1017A000134F65004FF400564FF4FA78002122469B
:1017B0000846FFF7A9FE002211461046FFF7A4FED7
:1017C00000212A460846FFF79FFE31463846FEF7BD
:1017D00063FE4046FEF75EFDE8E70000005400406F
:1017E00014000020A08601000058004000007A4448
:1017F0000010014021F00042A2F16052B2F5801FBA
:1018000001F0004328BFD2F17F6C0BD95FEA001CC6
:1018100043EAC20242EB507018BF704728BF20F065
:1018200001007047B2F5801FBCBF184670474FEAF1
:10183000410C1CF5001F02D2084600F0F1BC70B547
:1018400000F0D2F900000089FFF7F6BF4FF000402A
:10185000A0F580007047000010B591EA030F48BF63
:1018600083F0004300F15E82841A71EB030C05D211
:10187000121943EB0C03001B61EB0C01DFF824E1B0
:101880004FEA1154A4EB135C1EEA430F18BF9EEA03
:10189000445F73D023EA0E03DCF1200E21EA0451E9
:1018A00043F4801332D322FA0CFE10EB0E0023FA1D
:1018B0000CFE41EB0E01CCF1200E03FA0EFE10EBF4
:1018C0000E0051F10001B1F5801FCCF1200E32D293
:1018D00001EB045112FA0EF2BDE8104058BF7047F8
:1018E000401C38BF5FEA420218BF7047002814BF8F
:1018F00020F0010041F100014FEA410313F5001F00
:1019000038BF7047A1F1C04100F0BCB9012A43EBD8
:101910000302ACF1200CDCF11F0E32BF4FF0000EC1
:1019200023FA0CF310EB030041EB0451B4EB115F0D
:10193000D0D0A1EB045101F5801149085FEA3000D5
:1019400001EB04510ED350F1000038BF12FA0EFE25
:1019500008D1BDE81040C9E7401C38BF5FEA420229
:10196000CAD1C3E7BDE810404FEA410313F5001F99
:1019700038BF7047A1F1C04100F084B99EEA445FCE
:1019800008D011EA5E0FBDE8104004BF01F000412D
:1019900000207047BDE8104070B500F025F900BF89
:1019A00064FBBE3E0000E0FF491058BFC1F140415A
:1019B0005B1058BFC3F140438B42EFF30080704788
:1019C0004FEA1153A3F58063D3F11E03A8BFD3F1EF
:1019D000200C08DB4FF0004242EAC12252EA50528A
:1019E00032FA03F0704709420BD4102BC4BF002019
:1019F000704703F5787CBCF1FF3F05D04FF0FF3016
:101A000070474FF00000704770B500F0EDF800BF70
:101A10004992248000207047F0E7000051EA030C4F
:101A200017D41CF5801F58BFBCF5801F00F106803D
:101A3000994218BF704708BF9042704707D711F509
:101A4000801F58BF13F5801F19D4994270478942EF
:101A500070471CF5801F08D5BCF5801FF7D58B4259
:101A600018BF704708BF824270474FF4001C1CEB40
:101A7000410F38BF1CEB430F01D28B42704770B54A
:101A800000F0B2F8922449004FF000514FF080531B
:101A9000FFF78ABFDFF848C170B51CEA111E1EBFF0
:101AA0001CEA13159EEA0C0F95EA0C0F00F06F80EC
:101AB00081EA030423EA4C134EEAD47E21EA4C1156
:101AC00041F4801143F48013AE44A1FB024CA0FB0F
:101AD0000365AEF17F7E361955EB0C05A1FB034C77
:101AE0004CF10003A0FB021C16EB0C06654153F100
:101AF0000003094218BF46F0010613F4007F0BD122
:101B00004FEA03314FEA0530340341EA155140EA08
:101B100016506FF003020AE04FEAC3214FEAC520D6
:101B2000F40241EA555140EA56506FF0020202EBCE
:101B30002E4201EB025585EACE710AD05FEA440CD1
:101B400018BF24F0004450F1000041F1000120EAE8
:101B5000D47040F2FE7C624500D270BDA84214BF32
:101B60004FF080444FF04044002E08BF0024BEF1E7
:101B7000806FA8BFA1F1C041BDE8704080F28280B3
:101B80004FF0000001F1C04101F0004170479EEAB2
:101B90000C0F0CEA131518BF95EA0C0F06D04FF086
:101BA000000081EA030E0EF0004170BD00F01CF849
:101BB0008900013E00F007B800F009B84FEA430C75
:101BC0005FEA5C5C08D081EA030100F05BB84FEA91
:101BD000410C5FEA5C5CF6D14FF0000001497047B0
:101BE0000000FF070000F87F0EF1020E2EF0030E3A
:101BF0005EF8046B364205D4012A43EB030515F564
:101C0000001F12D8012841EB010C1CF5001F0CD855
:101C10000ED14FEAD17C15F5001F0CEB4C0C0CF1EA
:101C2000020C08BF4CEBD37C04E04FF0080C01E041
:101C30004FEAD37C0CEB4C0526FA05F606F00706B6
:101C4000B6F1040C06D20EEB860CBDE870404CF0E9
:101C5000010C6047DFE80CF0090B02024FF0004175
:101C60004FF00000A1F5002170BD19461046012873
:101C700051EB010418BFD4F5001484BF002001F01B
:101C8000004170BD0808A0F500114FEA310170470E
:101C900053EA010C17D41CF5801F58BFBCF5801FF8
:101CA00000F106808B4218BF704708BF8242704720
:101CB00007D713F5801F58BF11F5801F19D48B4229
:101CC00070479B4270471CF5801F08D5BCF5801FEC
:101CD000F7D5994218BF704708BF904270474FF43C
:101CE000001C1CEB430F38BF1CEB410F01D2994283
:101CF00070470FB40CBC03BCFFF7C1BE91EA030FE1
:101D000010B581F000413FF5AFAD83F0004300F026
:101D100009B8000010B591EA030F48BF83F00043F3
:101D20003FF5A2AD841A71EB030C07D212198CF0A7
:101D3000004C43EB0C03001B61EB0C01DFF8A4E14A
:101D40004FEA1154A4EB135C1EEA430F18BF9EEA3E
:101D5000445F00F0B08023EA6E03524221EA04514E
:101D6000C3EB6E0338BF5B1EDCF1200E25D322FAD5
:101D70000CFE10EB0E0043FA0CFE41EB0E01CCF111
:101D8000200E03FA0EFE10EB0E0051F10001CCF113
:101D9000200E29D412FA0EF201EB0451BDE81040D6
:101DA00058BF7047401C1CBFB2F1004F704700285D
:101DB0000CBF491C20F00100704712EB020E43EBF0
:101DC000030218BF4FF0010E4EEA4202ACF1200CA4
:101DD000DCF11E0E54D943FA0CFE10EB0E0051F14B
:101DE000FF31CCF11E0ED5D50EF1010E12FA0EFE0A
:101DF000404141EB010101EB445C5FEA5C5C10D9BE
:101E000010EBDE7001EB045138BFBEF1004FBDE8AE
:101E1000104018BF704700280CBF491C20F001007B
:101E2000704730D24FEAD42C11F5001124F400642D
:101E30001BD0B1FA81F20B3AA41AA41ED2F12003EE
:101E4000914030FA03F31943904001EBCC71002C20
:101E500001EB0451BDE81040A8BF704701F1C0413B
:101E60004FF0000001F000417047B0FA80F310FA23
:101E700003F100D110BDE41A173C4805C90AE4E794
:101E800001EB045110BD491001EB0451BDE81040B5
:101E90004FEA300002E04FF0000170474A0008BFEF
:101EA0000042F8D0B2F5001F28BF704701F0004192
:101EB0004FF0000070479EEA445F07D011EA5E0FC2
:101EC000BDE8104004BF002100207047BDE810406D
:101ED00070B5FFF789FE00BF40DFF63E83F000419A
:101EE000104670470000E0FF43004FEAD30C4FEA72
:101EF0003C0C43401FBF40070CF1605113F0FE4FF4
:101F000070471CF0006F03D100200CF000417047B7
:101F10000CF0004343EA507010B540EACC0000F0EA
:101F200039F900BF000000924FEA0001FFF7AABE96
:101F30004FF000414FF00000A1F500217047000074
:101F400090EA010F48BF81F0004100F17681421A0A
:101F50003CBF801A89184FEAD0524FF07F4C1CEAE0
:101F6000410FA2EBD15318BF9CEA026F00F03B80F7
:101F70004FF0004C4CEA00204CEA012121FA03FC0E
:101F800010EB0C0C1ED202F1FF325FEA1C2040EB7A
:101F9000C25038BF70471CF07F0F4FEA400C18BF8B
:101FA000BCF17F4F38BF7047C3F12003994008BF91
:101FB00020F00100BCF17F4F38BF7047A0F1C04056
:101FC00000F02EB94FEA3C00000A40EBC25028BF97
:101FD0001CF0FF0F4FEA400CE6D018BFBCF17F4F5A
:101FE00038BF7047EAE79CEA026F05D010EA5C0F41
:101FF00008BF00F00040704710B500F0CBF800BFFC
:1020000064FBBE3E014800F086B900BF0000C07FFF
:102010004FF47F0C1CEAD0121EBF1CEAD11392EAC7
:102020000C0F93EA0C0F00F0858090EA010F48BF77
:1020300042F4807240F4000C41F400002CF07F4127
:1020400020F07F4000B58142A2EB03020FF2081C92
:10205000ACEB504EC0F100009EF800E04FEA4E0E8F
:1020600000FB0EFC38BF49004FEA2C1C02F5FA02B7
:102070000CFB0EF34FEACE1E4FEA112C4FEAC121A2
:102080000EEB635E42EB22420EFB0CFC4FEA1C534C
:1020900000FB03114FEA112C4FEA01310EFB0CFC3F
:1020A0004FEADC4C00FB0C11C14228BF09184CEB75
:1020B00003335DF804EB10EB410143EBC250B2F582
:1020C0007C0F38BF704729D512F0F00F1CBF00F10C
:1020D000C04000F00040704700818283848586877D
:1020E00088898B8C8D8E8F919293959697999A9CD7
:1020F0009D9FA0A2A3A5A7A8AAACAEB0B2B3B5B746
:10210000B9BCBEC0C2C5C7C9CCCED1D4D7D9DCDF1B
:10211000E2E6E9ECF0F3F7FAFE0000004FEA400CCB
:102120000CF1807CBCF17E4F28BF7047B0F1C040FD
:1021300000F076B890EA010F0CEAD11348BF42F4E0
:102140008072624538BF634507D213F47F0F16D003
:1021500080EA010000F00040704710B500F01AF866
:10216000097EFC3E00F005B880EA010000F0004066
:10217000704780EA010000F0004000F051B812F40E
:102180007F0F04BF0248704780EA010000F048B8A2
:102190000000C07F0EF1020E2EF0030E5EF8044B1D
:1021A000244204D44FEA4102B2F17F4F11D84FEAE2
:1021B0004003B3F17F4F0CD80ED14FEAD07CB2F17F
:1021C0007F4F0CEB4C0C0CF1020C08BF4CEBD17C9C
:1021D00004E04FF0080C01E04FEAD17C0CEB4C031B
:1021E00024FA03F404F00704B4F1040C06D20EEB55
:1021F000840CBDE810404CF0010C6047DFE80CF0A7
:10220000070802024FF00040A0F5800010BD08460C
:10221000420018BFD2F1807288BF00F0004010BDAC
:10222000FF2141EAD050C0057047000090EA010F3D
:1022300048BF81F000413FF58AAE421A04D882F0CF
:102240000042A0EB020011444FEAD0524FF07F4C05
:102250001CEA410FA2EBD15318BF9CEA026F4AD08F
:102260004FF0004C4CEA00204CEA012121FA03FC1B
:10227000B0EB0C0C0FD412F0FE0F36D05FEA4C001E
:102280001DD5001240EBC25038BF70471CF03F0F05
:1022900018BF70470BE0A2F101025FEA1C2040EB7F
:1022A000C25038BF70471CF07F0F18BF7047C3F192
:1022B0002003994014BF401E20F0010070478008A1
:1022C0004FEA122308BF7047B0FA80FCA2EB0C0261
:1022D000CCF1280C60FA0CF093EA122F04BF00EB4B
:1022E000C25070474FEAC3707047130A5FEADC10B0
:1022F00008BF7047F6E79CEA026F04D010EA5C0F53
:1023000008BF0020704710B5FFF744FF40DFF63EDE
:1023100081F0004070470CF00F03092B08BF082024
:1023200000F051800A2B0BD0082B18BF704708BF54
:102330001CF0400F0AD04FF000004FF00001704732
:102340001CF0400F18BF4FF0004070471CF0100FFA
:1023500008D020F0704300F07F4242EAD3014FEAF8
:102360004370704700F0604021F07F4242EA000273
:1023700001F07F4040EA727070474FF0FF0212EAAE
:10238000D0521CBF92F0FF038B42C2BFD14200EB80
:10239000C1507047002A0AD0002B0BD0002900F052
:1023A0000040A4BF40F0FE4040F40000704700F041
:1023B0000040704743024FF00B0C18BF4CF0806C8C
:1023C0007FF420AE70471CF4801F11D01CF4E02F66
:1023D00003D06FEACC31490070474FF04050EFF323
:1023E000008222F0704242EA000282F300887047C5
:1023F0004FF00000704700000000000000000102E4
:10240000030406070809000000000102030400009D
:1024100030240008000000201400000028010008FB
:1024200044240008140000200C07000044010008A8
:10243000000000000100000010000000000000008B
:042440000024F40080
:04000005080000ED02
:00000001FF
